:040000000DEF00F010
:0400080080EF09F08C
:10001800FF00CBEF08F046B214EF00F016EF00F047
:100028001FEF00F0000E2F6E000E306E000E356EC2
:10003800000E366E4682CCA224EF00F028EF00F0C6
:100048004D6A4D2A29EF00F04D6A4D38F00B2F12FA
:10005800CAAC31EF00F035EF00F04D6A4D2A36EFAB
:1000680000F04D6AD8904D36D8904D36D8904D3422
:100078002F12CAAE42EF00F046EF00F04D6A4D2A4B
:1000880047EF00F04D6AD8904D36D8904D342F1276
:10009800CAAA51EF00F055EF00F04D6A4D2A56EF0D
:1000A80000F04D6AD8904D342F12CAA85EEF00F0C8
:1000B80061EF00F0010E62EF00F0000E2F12800ECB
:1000C800306E0701FE51D8A46CEF00F06EEF00F01F
:1000D800DAEF00F0CCAA73EF00F077EF00F04D6A8A
:1000E8004D2A78EF00F04D6A060E4E6ED8904D36C8
:1000F8004E2E7AEF00F04D503012CCAA86EF00F069
:1001080088EF00F08FEF00F0000E0001D46F000EB2
:10011800D36F94EF00F0000E0001D46F800ED36F00
:10012800D3513512CCA49BEF00F09FEF00F04D6A3D
:100138004D2AA0EF00F04D6A050E4E6ED8904D3650
:100148004E2EA2EF00F04D503012CCA4AEEF00F0CE
:10015800B0EF00F0B7EF00F0000E0001D66F000E10
:10016800D56FBCEF00F0000E0001D66F800ED56F82
:10017800D5513612CBAAC3EF00F0C7EF00F04D6A95
:100188004D2AC8EF00F04D6A4D38F00B3012CCA064
:10019800D0EF00F0D4EF00F04D6A4D2AD5EF00F013
:1001A8004D6A4D38F00B301204EF02F0FE05D8A46A
:1001B800E0EF00F0E2EF00F041EF01F0CCAAE7EF4A
:1001C80000F0EBEF00F04D6A4D2AECEF00F04D6ABD
:1001D800060E4E6ED8904D364E2EEEEF00F04D5076
:1001E8003012CCAAFAEF00F0FCEF00F003EF01F0B8
:1001F800000E0001D86F000ED76F08EF01F0000E57
:100208000001D86F800ED76FD7513512CCA40FEFED
:1002180001F013EF01F04D6A4D2A14EF01F04D6A19
:10022800050E4E6ED8904D364E2E16EF01F04D50FD
:100238003012CCA022EF01F024EF01F02BEF01F0F7
:10024800000E0001DA6F000ED96F30EF01F0000EDA
:100258000001DA6F800ED96FD9513612CBAA37EF69
:1002680001F03BEF01F04D6A4D2A3CEF01F04D6A79
:100278004D38F00B301204EF02F0020EFE19D8A42C
:1002880048EF01F04AEF01F0A9EF01F0CCAA4FEFD7
:1002980001F053EF01F04D6A4D2A54EF01F04D6A19
:1002A800060E4E6ED8904D364E2E56EF01F04D503C
:1002B8003012CBAA62EF01F064EF01F06BEF01F0AE
:1002C800000E0001DC6F000EDB6F70EF01F0000E16
:1002D8000001DC6F800EDB6FDB513512CCA477EFA9
:1002E80001F07BEF01F04D6A4D2A7CEF01F04D6A79
:1002F800050E4E6ED8904D364E2E7EEF01F04D50C5
:100308003012CCA48AEF01F08CEF01F093EF01F0EA
:10031800000E0001DE6F000EDD6F98EF01F0000E99
:100328000001DE6F800EDD6FDD513612CCA09FEF2D
:1003380001F0A3EF01F04D6A4D2AA4EF01F04D6AD8
:100348004D38F00B301204EF02F0030EFE19D8A45A
:10035800B0EF01F0B2EF01F004EF02F0CCAAB7EF72
:1003680001F0BBEF01F04D6A4D2ABCEF01F04D6A78
:10037800060E4E6ED8904D364E2EBEEF01F04D5003
:100388003012CBAACAEF01F0CCEF01F0D3EF01F0A5
:10039800000E0001E06F000EDF6FD8EF01F0000ED5
:1003A8000001E06F800EDF6FDF513512CCA4DFEF64
:1003B80001F0E3EF01F04D6A4D2AE4EF01F04D6AD8
:1003C800050E4E6ED8904D364E2EE6EF01F04D508C
:1003D8003012CCA0F2EF01F0F4EF01F0FBEF01F0E6
:1003E800000E0001E26F000EE16F00EF02F0000E58
:1003F8000001E26F800EE16FE151361204EF02F066
:10040800CCAC09EF02F00DEF02F04D6A4D2A0EEF69
:1004180002F04D6AD8904D36D8904D36D8904D346C
:100428003012CCAE1AEF02F01EEF02F04D6A4D2AE0
:100438001FEF02F04D6AD8904D36D8904D343012E7
:10044800CBA029EF02F02DEF02F04D6A4D2A2EEFD6
:1004580002F04D6AD8904D343012CBA236EF02F03C
:1004680039EF02F0010E3AEF02F0000E30121200DE
:100478001450D8A442EF02F044EF02F050EF02F01B
:10048800020E3E01F16FF881000E156E000E136E1C
:10049800010E146EE4EF03F03E01F8B156EF02F0DE
:1004A80058EF02F0E4EF03F01350D8B45EEF02F017
:1004B80060EF02F09EEF02F079EF02F0030E3E01CA
:1004C800F16F97EF02F0000E3E01F16F97EF02F027
:1004D800010E3E01F16F97EF02F046964684000E3A
:1004E800146E000E136EE4EF03F015500001D36F85
:1004F800D46BD451000AD8B484EF02F097EF02F01D
:10050800D351000AD8B462EF02F0010AD8B467EFF9
:1005180002F0030AD8B46CEF02F0010AD8B471EF04
:1005280002F097EF02F0152A000E136E3E01F881D3
:10053800E4EF03F0010E136E3B0EF16FF881EF51FB
:100548006F00C0FBD3F00001D46BD3C0D4F0D36BE1
:10055800D327000ED423D890D433D333D890D433B0
:10056800D333D890D433D333D3C00BF0D4C00CF0EA
:100578003EEF03F0610068FF09F061006CFF0AF0CC
:10058800610058FF07F061005CFF08F0610060FF40
:1005980005F0610064FF06F06100B8FF03F0610038
:1005A800BCFF04F06100C0FF01F06100C4FF02F06D
:1005B8005BEF03F0610080FF09F0610084FF0AF03F
:1005C800610070FF07F0610074FF08F0610078FFB8
:1005D80005F061007CFF06F06100C8FF03F06100D0
:1005E800CCFF04F06100D0FF01F06100D4FF02F0FD
:1005F8005BEF03F0610098FF09F061009CFF0AF0CF
:10060800610088FF07F061008CFF08F0610090FF2F
:1006180005F0610094FF06F06100D8FF03F0610067
:10062800DCFF04F06100E0FF01F06100E4FF02F08C
:100638005BEF03F06100B0FF09F06100B4FF0AF05E
:100648006100A0FF07F06100A4FF08F06100A8FFA7
:1006580005F06100ACFF06F06100E8FF03F06100FF
:10066800ECFF04F06100F0FF01F06100F4FF02F01C
:100678005BEF03F01550D36FD46BD451000AD8B494
:1006880048EF03F05BEF03F0D351000AD8B4BEEF94
:1006980002F0010AD8B4DEEF02F0030AD8B4FEEF84
:1006A80002F0010AD8B41EEF03F05BEF03F0040E6A
:1006B8000524D36F000E0620D46F0B50D35D0C5069
:1006C800D459D8B06AEF03F06CEF03F097EF03F05A
:1006D80009500B5C0A500C58D8A075EF03F077EF5F
:1006E80003F081EF03F0310E1524D96EDA6A000E9B
:1006F800DA22E40EDF6EE4EF03F0310E1524D96E32
:10070800DA6A000EDA2205500B5C536E06500C585C
:10071800546E03C055F004C056F015EC0BF0800F72
:10072800DF6EE4EF03F0FC0ED36FFF0ED46F05C04D
:10073800D5F006C0D6F0D351D527D451D623D551FC
:100748000B5CD6510C58D8B0ACEF03F0AEEF03F009
:10075800DCEF03F00B50075C0C500858D8A0B7EF3B
:1007680003F0B9EF03F0C3EF03F0310E1524D96E8F
:10077800DA6A000EDA221C0EDF6EE4EF03F0310EA7
:100788001524D96EDA6A000EDA220B50055C536E16
:100798000C500658546E01C055F002C056F015ECC6
:1007A8000BF00001D36FD3517F08DF6EE4EF03F045
:1007B800310E1524D96EDA6A000EDA22800EDF6E49
:1007C80012001450D8A4EBEF03F0EDEF03F0F9EFAB
:1007D80003F0020E3E01F16FF881000E156E000E57
:1007E800136E010E146E2AEF05F03E01F8B1FFEF0B
:1007F80003F001EF04F02AEF05F01350D8B407EF27
:1008080004F009EF04F042EF04F01FEF04F0030EC8
:10081800F16F3CEF04F0000EF16F3CEF04F0010EB5
:10082800F16F3CEF04F0000E146E000E136E2AEF09
:1008380005F02AEF05F015504D6E4E6A4E50000A2D
:10084800D8B429EF04F03CEF04F04D50000AD8B4B6
:100858000BEF04F0010AD8B40FEF04F0030AD8B480
:1008680013EF04F0010AD8B417EF04F03CEF04F0DA
:10087800152A000E136EF8812AEF05F0010E136E8B
:100888003B0EF16FF881EF516F00C0FB4DF04E6ADF
:100898004DC04EF04D6A4D26000E4E22D8904E3275
:1008A8004D32D8904E324D32D8904E324D324DC0E6
:1008B8000BF04EC00CF00DEF05F00B500701DA5DA0
:1008C8000C50DB59D8B06BEF04F06DEF04F073EF08
:1008D80004F060002CF0DAF7600030F0DBF7D65156
:1008E8000B5CD7510C58D8B07CEF04F07EEF04F0C5
:1008F80084EF04F060002CF0D6F7600030F0D7F7F2
:1009080060002CF0D8F7600030F0D9F72AEF05F036
:100918000B500701E05D0C50E159D8B096EF04F098
:1009280098EF04F09EEF04F060002CF0E0F7600010
:1009380030F0E1F7DC510B5CDD510C58D8B0A7EF73
:1009480004F0A9EF04F0AFEF04F060002CF0DCF73E
:10095800600030F0DDF760002CF0DEF7600030F06A
:10096800DFF72AEF05F00B500701E65D0C50E75959
:10097800D8B0C1EF04F0C3EF04F0C9EF04F0600091
:100988002CF0E6F7600030F0E7F7E2510B5CE3513A
:100998000C58D8B0D2EF04F0D4EF04F0DAEF04F03A
:1009A80060002CF0E2F7600030F0E3F760002CF014
:1009B800E4F7600030F0E5F72AEF05F00B50070187
:1009C800EC5D0C50ED59D8B0ECEF04F0EEEF04F00C
:1009D800F4EF04F060002CF0ECF7600030F0EDF775
:1009E800E8510B5CE9510C58D8B0FDEF04F0FFEF6B
:1009F80004F005EF05F060002CF0E8F7600030F037
:100A0800E9F760002CF0EAF7600030F0EBF72AEF26
:100A180005F015504D6E4E6A4E50000AD8B417EFC7
:100A280005F01DEF04F04D50000AD8B461EF04F052
:100A3800010AD8B48CEF04F0030AD8B4B7EF04F075
:100A4800010AD8B4E2EF04F01DEF04F0120046AC3E
:100A58001200C3946000B3F0E9FF6F00BCFF2EF0F2
:100A6800486A4886CB942EAE75EF05F0484EE6EFFF
:100A780005F0000000000000000000000000000079
:100A88000000000000000000000000000000CB840F
:100A9800000000000000000000000000000000004E
:100AA800000000000000000000000000000000003E
:100AB800000000000000000000000000000000002E
:100AC800000000000000000000000000000000001E
:100AD8000000000000000000000000000000B0EF6F
:100AE80005F0484E14EF06F000000000000000007A
:100AF80000000000000000000000000000000000EE
:100B080000000000000000000000000000000000DD
:100B180000000000000000000000000000000000CD
:100B280000000000000000000000000000000000BD
:100B380000000000000000000000000000000000AD
:100B48000000CB840000000000000000000000004E
:100B580000000000000000002E3636EF05F02C2AB9
:100B68002D2E2EEF05F00000000000000000000010
:100B780000000000000000000000CB94000000000E
:100B8800000000000000000000000000000000005D
:100B9800000000000000000000000000000000004D
:100BA800000000000000000000000000000000003D
:100BB8000000000000000000000000000000CB84DE
:100BC800468A12000000000000000000000000003B
:100BD8000000000000000000000000000000CB84BE
:100BE80000000000000000000000000000000000FD
:100BF80000000000000000000000000000000000ED
:100C080000000000000000000000000000000000DC
:100C1800000000000000000000000000B3EF05F035
:100C280000000000000000000000000000000000BC
:100C380000000000000000000000000000000000AC
:100C4800000000000000000000000000000000009C
:100C5800000000000000000000000000000000008C
:100C6800000000000000000000000000000000007C
:100C7800000000000000000000000000CB84B3EF7B
:100C880005F04DC057F04EC058F051505210D8A43E
:100C980050EF06F052EF06F054EF06F00CEF07F0B5
:100CA80060005FF1D9FF600063F1DAFF60003FF197
:100CB800DFFF51505724536E52505820546EFF0E88
:100CC8005324D96EFF0E5420DA6E60003FF1DFFF27
:100CD800525007E1030E515CD8B075EF06F077EF7C
:100CE80006F079EF06F00CEF07F020EE01F0575010
:100CF800D9265850DA2260003FF1DFFF20EE02F0DB
:100D08005750D9265850DA2260003FF1DFFF515082
:100D18005724536E52505820546EFE0E5324D96EE9
:100D2800FF0E5420DA6E60003FF1DFFF5150572468
:100D3800536E52505820546EFD0E5324D96EFF0E38
:100D48005420DA6E60003FF1DFFF525007E1070ED2
:100D5800515CD8B0B2EF06F0B4EF06F0B6EF06F08B
:100D68000CEF07F020EE03F05750D9265850DA223E
:100D780060003FF1DFFF51505724536E5250582006
:100D8800546EFC0E5324D96EFF0E5420DA6E6000A8
:100D98003FF1DFFF525007E1090E515CD8B0D7EFA1
:100DA80006F0D9EF06F0DBEF06F00CEF07F057C0BE
:100DB80053F058C054F0531E541E534A542A030E7D
:100DC8005314556E566A555057265650582255504A
:100DD800515E5650525AFC0E5116FF0E521603EF32
:100DE80007F060005FF1D9FF600063F1DAFF60008F
:100DF8003FF1DFFF5106D8A05206574A582A5150F2
:100E08005210D8A40AEF07F00CEF07F0F5EF06F040
:100E18001200610068FF54F061006CFF55F061003A
:100E280060FF56F0610064FF57F014EC0AF06000B0
:100E380050F1EEF7600054F1EFF7610060FF54F0F5
:100E4800610064FF55F0610058FF56F061005CFFD7
:100E580057F014EC0AF0600050F1F0F7600054F11C
:100E6800F1F7610098FF54F061009CFF55F06100B4
:100E780090FF56F0610094FF57F014EC0AF0600000
:100E880050F1F6F7600054F1F7F7610090FF54F065
:100E9800610094FF55F0610088FF56F061008CFFF7
:100EA80057F014EC0AF0600050F1F8F7600054F1C4
:100EB800F9F7610080FF54F0610084FF55F061008C
:100EC80078FF56F061007CFF57F014EC0AF06000E0
:100ED80050F1F2F7600054F1F3F7610078FF54F035
:100EE80061007CFF55F0610070FF56F0610074FFEF
:100EF80057F014EC0AF0600050F1F4F7600054F178
:100F0800F5F76100B0FF54F06100B4FF55F06100DF
:100F1800A8FF56F06100ACFF57F014EC0AF060002F
:100F280050F1FAF7600054F1FBF76100A8FF54F0A4
:100F38006100ACFF55F06100A0FF56F06100A4FF0E
:100F480057F014EC0AF0600050F1FCF7600054F11F
:100F5800FDF712003AEC0BF089EC08F0000E3E01A8
:100F6800F16FF88FCABCBBEF07F0BDEF07F0E2EFF7
:100F780007F0CABEC2EF07F0C4EF07F0E2EF07F0D0
:100F8800CAB8C9EF07F0CBEF07F0E2EF07F0010EA0
:100F9800196E62EC0AF0E2EF07F0E5EC03F0CCB270
:100FA800D8EF07F0DAEF07F0E2EF07F00DEC07F003
:100FB800A3EC0AF0000E196EEAEF07F01950D8A456
:100FC800E8EF07F0EAEF07F0D1EF07F0D28EB7ECC1
:100FD80009F046A0F2EF07F0F4EF07F0F6EF07F09C
:100FE8008BEC0BF02BEC05F0BEEC0AF046A6FFEFFD
:100FF80007F001EF08F020EF08F000016205D8A41F
:1010080008EF08F00AEF08F00FEF08F0CB88F00EB1
:101018007D6E1EEF08F0020E6219D8A416EF08F0D4
:1010280018EF08F01DEF08F0CB88600E7D6E1EEFFC
:1010380008F0CB983CEC02F046A425EF08F027EF27
:1010480008F0EBEF07F00FEC00F0EBEF07F00DEF17
:1010580000F0000E0701D46F000ED36F4E0ED56F4F
:10106800000ED76F8C0ED66F000ED96FFE0ED86F9C
:10107800010EDB6F810EDA6F000EDD6F8C0EDC6FF8
:10108800000EDF6FFC0EDE6F010EE16F8E0EE06F5B
:10109800000EE36F6C0EE26F000EE56FFC0EE46F5E
:1010A800010EE76F630EE66F000EE96F7F0EE86FC3
:1010B800000EEB6FFE0EEA6F010EED6F810EEC6F06
:1010C800000EEF6FC80EEE6F000EF16FE80EF06FB6
:1010D800000EF36FAF0EF26F000EF56FE40EF46FB3
:1010E800010EF76F010EF66F000EF96FB10EF86F73
:1010F800000EFB6FC30EFA6F000EFD6FC90EFC6F7A
:10110800000EFE6F010EFF6F1200D30E4D6E070E1C
:101118004E6E000E506E000E4F6E000E526E2D0E6B
:10112800516E45EC06F0D30E596E070E5A6E000E3E
:101138005B6E04005B505924D96E000E5A20DA6E9B
:101148005B5066EC0BF0DF6E020E5B18D8A4AFEFB5
:1011580008F0B1EF08F0C1EF08F04E0E0701D519FD
:10116800D8B4B9EF08F0BBEF08F0C1EF08F02DECE8
:1011780008F0A3EC0AF0CAEF08F05B2A2C0E5B64B7
:10118800C8EF08F0CAEF08F09DEF08F01200000E53
:10119800F66E160EF76E000EF86E00EEAAF010EE60
:1011A80029F009006F00D7FFEEFFE550E150F9E1A3
:1011B800B20EF66E160EF76E000EF86E00EE2FF0F9
:1011C80010EE1AF009006F00D7FFEEFFE550E1506E
:1011D800F9E100EE00F13C0EEE6AE806FDE100EEF2
:1011E80060F04A0EEE6AE806FDE100EE01F02E0E10
:1011F800EE6AE806FDE1080ED56E000ED66E000E0A
:10120800D76E000EF86E0001AEEF07F0F00EBA6E62
:10121800270EBB6EBC68C268E70EC36EC468000EBA
:101228003A01606F000E506F070E406F000E816F1D
:10123800270E516FF00E416F6169000E5A6F000E54
:101248005B6F000E6A6F000E6B6F000E426F000E30
:10125800526F180E626F4369536963694469546930
:101268006469080E846F579556855595000E4D6E26
:10127800000E4E6E95EC0BF0090E3A010B6F0A0E3C
:10128800D26F1200000E536E000E526E4F50501067
:10129800D8B451EF09F053EF09F07BEF09F0010ED4
:1012A800516E5BEF09F0D8904F365036512A50AE48
:1012B80060EF09F062EF09F057EF09F0D890523665
:1012C80053364F504D5C50504E58D8A06EEF09F031
:1012D80070EF09F075EF09F04F504D5E50504E5ABF
:1012E8005280D89050324F32512E62EF09F052C0DE
:1012F8004DF053C04EF012006F00D8FF49F06F0058
:10130800DCFF4AF06F00E0FF4BF06F00D4FF4CF0B9
:10131800390191AF92EF09F094EF09F0AAEF09F0C3
:10132800A1AF99EF09F09BEF09F0AAEF09F0A19F8F
:101338006F0060FC2AF046A4A4EF09F0A6EF09F0BC
:10134800A8EF09F04694469284EC0AF0600033F165
:10135800F5FF60002FF1F8FF60002BF1F7FF600048
:1013680027F1F6FF110046AE12003F01D29F1F9FE2
:10137800600E6F00A3FFE9FFEF504318E83CCEEF83
:1013880009F02F0E2C6EE92AE92AEFB046882D863F
:10139800468C1200EF504418E83CD9EF09F0AA0E29
:1013A8002C6E2D862D82468C1200EF50E866E4EFF5
:1013B80009F02D802D82B40E2C6E4682468C1200C8
:1013C80046801200000E3E01DE6F000EDF6F000E39
:1013D800E06F000EE16F000EE46F000EE56F000E87
:1013E800EA6F000EEC6F000EF16F100EF36F000E37
:1013F800F46F000EF56F000EF66F000EF76F000E1B
:10140800F96F000EFA6F000EFB6F000EFC6F000EF6
:10141800FD6F000EFE6F010EFF6F840EF86F120055
:101428005650545C0001D36F57505558D46FD3C0F1
:101438004FF0D4C050F0270E4E6E100E4D6E46EC95
:1014480009F04DC04EF04D6A4DC0D7F04EC0D8F0EF
:10145800D7C04DF0D8C04EF0000E506E640E4F6EDF
:1014680046EC09F04DC0D5F04EC0D6F0D5C054F0CA
:10147800D6C055F012004E6E000ED2BE010E4F6E51
:1014880060003BF1E0F9600037F1E3F93F0E390104
:10149800E517E585D29E550EE66FAA0EE66FE58341
:1014A800E5B359EF0AF05BEF0AF054EF0AF0E5955F
:1014B8004FB002D0D29E01D0D28E1200000E07018A
:1014C800D76FFA0ED66F000EDB6FFA0EDA6F000ECA
:1014D800DD6FFA0EDC6F000EE16FFA0EE06F000EA2
:1014E800E36FFA0EE26F000EE76FFA0EE66F000E7A
:1014F800E96FFA0EE86F000EED6FFA0EEC6F12004E
:101508006000A3F0E9FF47B693EF0AF0EF46EF90CB
:101518006000ABF0E8FF4560EF809AEF0AF06000EA
:10152800ABF0E8FF4560A1EF0AF0EF90474E9EEF61
:101538000AF01200282A47861200468E1200D30E9F
:10154800506E070E516E000E526E52505024D96ED6
:10155800000E5120DA6EDF504D6E52503FEC0AF00B
:10156800522A2C0E5264BBEF0AF0BDEF0AF0A9EF25
:101578000AF0120046AA1200600E6F00A0FF28F0C1
:10158800469E469C469A4690476A47862E6A2C6A2B
:101598002D6A296A2A6A4686C3843F01D28F1F8F23
:1015A80012009C0E3F011E6FC30E1F6F000E206FAE
:1015B800000E216F000E236F000E226F1D691C693B
:1015C8001B693901918F919D3F011F8F12004D506A
:1015D8004F026F00CCFF51F06F00D0FF52F04D501A
:1015E8005002F35052264E504F02F350522651C02B
:1015F8004DF052C04EF012000080808080800000C4
:101608000202090003C900C300B1000101E400AFF0
:1016180000E800C8008101FE007F006301FC006C47
:0116280000C1
:10162A0053C04DF054C04EF055C04FF056C050F064
:10163A00EBEC0AF0010E4D26000E4E224E50576E6C
:10164A00586A57501200000E3901C06F000EC16F60
:10165A00000EC26F000EC36F000EC46F000EC56F7E
:10166A00000EC66F000EC76F12009AEC0BF028EC42
:10167A000BF00AEC09F07FEC0BF073EC0BF0E6ECE4
:10168A0009F04BEC0BF0D5EC0AF01200010EA26E39
:10169A00000EA16E000EA36E9F68000E9E6E3901A9
:1016AA00A791800EA06E1200000083837D7D00004A
:1016BA008E01FC008C008101FE008300BFBE322037
:1016CA0008084D6E600037F1E0F93F0E3901E51761
:1016DA00E58100F000F03901E35112009C0E7E6EA4
:1016EA00F00E7D6E000E7C6E3F015E51FC0B02090E
:1016FA005E6F1200600E3901D96F000EDB6F000EAB
:10170A00DD6F080EDF6F000EDE6F12000A0E4D6EDF
:10171A00580EE82EFED74D2EFCD700D0468A12006E
:10172A004DC0E3F04EC0E4F01200D28A3901818F35
:04173A00819D12007B
:020000040020DA
:10000000FF0FFF0FFF0FFF0FFF0FFF0FFF0FFF0F80
:020000040030CA
:0A0000008CFFF7FF9FFFFFFFFFFFDB
:00000001FF
