:040000000DEF00F010
:04000800FFEF02F014
:10001800FF0041EF02F02BAC1200C3946000C3F064
:10002800E9FF6F00BCFF32F04B6A4B86CB9432AECF
:1000380059EF00F04B4ECAEF00F00000000000003E
:1000480000000000000000000000000000000000A8
:10005800000000000000CB84000000000000000049
:100068000000000000000000000000000000000088
:100078000000000000000000000000000000000078
:100088000000000000000000000000000000000068
:100098000000000000000000000000000000000058
:1000A80000000000000094EF00F04B4EF8EF00F065
:1000B8000000000000000000000000000000000038
:1000C8000000000000000000000000000000000028
:1000D8000000000000000000000000000000000018
:1000E8000000000000000000000000000000000008
:1000F80000000000000000000000000000000000F8
:1001080000000000000000000000CB840000000098
:1001180000000000000000000000000000000000D7
:1001280032361AEF00F0302A312E12EF00F00000BC
:1001380000000000000000000000000000000000B7
:100148000000CB9400000000000000000000000048
:100158000000000000000000000000000000000097
:100168000000000000000000000000000000000087
:100178000000000000000000000000000000000077
:10018800000000000000CB842B8A12000000000051
:100198000000000000000000000000000000000057
:1001A800000000000000CB840000000000000000F8
:1001B8000000000000000000000000000000000037
:1001C8000000000000000000000000000000000027
:1001D8000000000000000000000000000000000017
:1001E8000000000097EF00F0000000000000000091
:1001F80000000000000000000000000000000000F7
:1002080000000000000000000000000000000000E6
:1002180000000000000000000000000000000000D6
:1002280000000000000000000000000000000000C6
:1002380000000000000000000000000000000000B6
:1002480000000000CB8497EF00F01450D8A40BD026
:10025800020E3E01F16FF881000E156E000E136E4E
:10026800010E146E12003E01F8B112001350D8A40A
:1002780010D02AD0030E03D0000E01D0010E3E018B
:10028800F16F1CD02B962B84000E146E000E136E8B
:10029800120015500001DB6FDC6BDC51000AD8A49A
:1002A8000DD0DB51000AD8B4E5D7010AD8B4E4D799
:1002B800030AD8B4E3D7010AD8B4E4D7152A000E44
:1002C800136E3E01F8811200010E136E3B0EF16FA2
:1002D800F881EF516F00C0FBDBF00001DC6BDBC085
:1002E800DCF0DB6BDB27000EDC23D890DC33DB3360
:1002F800D890DC33DB33D890DC33DB33DBC00BF056
:10030800DCC00CF051D0010E0A6E810E096E000E91
:10031800086E830E076E000E066EFE0E056E000E4A
:10032800046EC80E036E000E026EE80E3BD0010E7E
:100338000A6E8E0E096E000E086E8C0E076E000E89
:10034800066EFC0E056E000E046EAF0E036E000EF8
:10035800026EE40E27D0010E0A6E630E096E000EBF
:10036800086E6C0E076E000E066EFC0E056E010E12
:10037800046E010E036E000E026EB10E13D0010E54
:100388000A6E810E096E000E086E7F0E076E000E53
:10039800066EFE0E056E000E046EC30E036E000E92
:1003A800026EC90E016E14D01550DB6FDC6BDC5188
:1003B800000AD8A40DD0DB51000AD8B4A4D7010A8A
:1003C800D8B4B5D7030AD8B4C6D7010AD8B4D7D792
:1003D8000B50055C0C500658D8B020D009500B5C67
:1003E8000A500C58D8A007D01550350FD96EDA6AC4
:1003F800E40EDF6E12001550350FD96EDA6A05501B
:100408000B5CD76F06500C58D86F03C0D9F004C0E6
:10041800DAF047EC04F0800FDF6E120005500B5C39
:1004280006500C58D8B022D00B50075C0C50085816
:10043800D8A007D01550350FD96EDA6A1B0EDF6EBB
:1004480012001550350FD96EDA6A0B50055CD76F5C
:100458000C500658D86F01C0D9F002C0DAF047EC4A
:1004680004F0DB6FDB518008DF6E12001550350F8A
:10047800D96EDA6A800EDF6E1200160EF66E080E5E
:10048800F76E000EF86E00EE3CF110EE2BF009004E
:100498006F00D7FFEEFFE550E150F9E1BC0EF66EB4
:1004A800070EF76E000EF86E00EEAAF010EE2DF0B3
:1004B80009006F00D7FFEEFFE550E150F9E1C60EE5
:1004C800F66E080EF76E000EF86E00EE33F010EEC2
:1004D80019F009006F00D7FFEEFFE550E150F9E190
:1004E80000EE00F13C0EEE6AE806FDE100EE60F079
:1004F8004A0EEE6AE806FDE100EE01F0320EEE6A01
:10050800E806FDE1080ED56E000ED66E000ED76E19
:10051800000EF86E0001C5EF03F0F00EBA6E270E5C
:10052800BB6EBC68C268C368C468000E3A01606FDD
:10053800000E506F070E406F000E816F270E516F2F
:10054800F00E416F6169000E5A6F000E5B6F000E6E
:100558006A6F000E6B6F000E426F000E526F180E1E
:10056800626F436953696369446954696469080E31
:10057800846F579556855595000E526E000E536E32
:1005880084EC04F00A0ED26F12002BB209D0000ED0
:10059800336E000E346E000E396E000E3A6E2B82EA
:1005A800CAA803D0526A522A01D0526AD89052344B
:1005B800331ACAAA03D0526A522A01D0526AD89072
:1005C8005234331ACAAE03D0526A522A01D0526A40
:1005D800D8905234331ACAAC03D0526A522A01D086
:1005E800526AD8905234331ACCA202D0010E01D0EC
:1005F800000E331A12006F00E8FF4CF06F00ECFF9A
:100608004DF06F00D8FF4EF06F00DCFF4FF06F0029
:10061800E0FF50F06F00D4FF51F0390191BFA1AF56
:100628000AD0A19F6F0060FC2EF02BA402D02B945F
:100638002B928BEC03F0600047F1F5FF600043F16B
:10064800F8FF60003FF1F7FF60003BF1F6FF600044
:1006580037F1FBFF600033F1FAFF1100000E3E0195
:10066800DE6F000EDF6F000EE06F000EE16F000E10
:10067800E46F000EE56F000EEA6F000EEC6F000EDF
:10068800F16F100EF36F000EF46F000EF56F000E91
:10069800F66F000EF76F000EF96F000EFA6F000E7E
:1006A800FB6F000EFC6F000EFD6F000EFE6F010E5B
:1006B800FF6F840EF86F12002BAE12003F01D29F1D
:1006C8001F9F600E6F00A3FFE9FFEF504718E83C3B
:1006D80073EF03F0330E306E31862B8C1200EF501F
:1006E8004818E83C7EEF03F0AA0E306E318631825E
:1006F8002B8C1200EF50E86689EF03F031803182CD
:10070800B40E306E2B822B8C12002B8A12006000E4
:10071800B3F0E9FF4AB69AEF03F0EF46EF906000B6
:10072800BBF0E8FF4960EF80A1EF03F06000BBF089
:10073800E8FF4960A8EF03F0EF904A4EA5EF03F0F9
:1007480012002C2A4A8612002B8E12002BB0AFEF13
:1007580003F02BAA1200600E6F00A0FF2CF02B9E56
:100768002B9C2B9A2B904A6A4A86326A306A316AE5
:100778002D6A2E6A2B882B86C3843F01D28F1F8F48
:100788001200600E6F00A0FF2CF056EC04F0D28E21
:10079800000E3E01F16FF88F60EC03F00FEC00F0F3
:1007A800AAEC03F02BB629EC01F02BA4F5D7C9EC81
:1007B80002F0F2D7008080808080000002020900E9
:1007C8000317005E01C900C300B1000101E400AFD6
:1007D80000E800C8008101FE007F006301FC006C96
:0107E8000010
:1007EA009C0E3F011E6FC30E1F6F000E206F000E7E
:1007FA00216F000E236F000E226F1D691C691B6991
:10080A003901918F919D3F011F8F120000008300D3
:10081A00FE0081018C00FC008E016C00FC0063016B
:10082A007F00FE008101C800E800AF00E40001017A
:07083A00B100C300C900007A
:10084200525054026F00CCFF56F06F00D0FF57F0A9
:1008520052505502F350572653505402F350572624
:1008620056C052F057C053F01200000EC06F000E77
:10087200C16F000EC26F000EC36F000EC46F000E78
:10088200C56F000EC66F000EC76F1200D7C052F0C0
:10089200D8C053F0D9C054F0DAC055F021EC04F0BE
:1008A2005350586E596A5850120089EC04F036ECD5
:1008B20004F091EC02F070EC04F032EC03F0F5EC91
:1008C20003F01200000083837D7D00008E01FC0096
:0D08D2008C008101FE008300BFBE1A0808E3
:1008E000600E3901D96F000EDB6F000EDD6F080E50
:1008F000DF6F000EDE6F12004AB612002BB212003C
:100900002DA012002B90120052C0DDF053C0DEF07B
:0C0910001200D28A3901818F819D1200F3
:020000040020DA
:10000000FF0FFF0FFF0FFF0FFF0FFF0FFF0FFF0F80
:020000040030CA
:0A0000008CFFF7DF9FFFFFFFFFFFFB
:00000001FF
