:040000000DEF00F010
:040008003BEF0AF0D0
:10001800FF0086EF09F053B214EF00F016EF00F07E
:100028001FEF00F0000E446E000E456E000E4A6E83
:10003800000E4B6E5382CCA224EF00F028EF00F0A4
:10004800336A332A29EF00F0336A3338F00B44124D
:10005800CAAC31EF00F035EF00F0336A332A36EFDF
:1000680000F0336AD8903336D8903336D89033348A
:100078004412CAAE42EF00F046EF00F0336A332A6A
:1000880047EF00F0336AD8903336D89033344412AF
:10009800CAAA51EF00F055EF00F0336A332A56EF41
:1000A80000F0336AD89033344412CAA85EEF00F0E7
:1000B80061EF00F0010E62EF00F0000E4412800EB6
:1000C800456E0701FE51D8A46CEF00F06EEF00F00A
:1000D800DAEF00F0CCAA73EF00F077EF00F0336AA4
:1000E800332A78EF00F0336A060E346ED890333630
:1000F800342E7AEF00F033504512CCAA86EF00F088
:1001080088EF00F08FEF00F0000E0001DC6F000EAA
:10011800DB6F94EF00F0000E0001DC6F800EDB6FE8
:10012800DB514A12CCA49BEF00F09FEF00F0336A3A
:10013800332AA0EF00F0336A050E346ED8903336B8
:10014800342EA2EF00F033504512CCA4AEEF00F0ED
:10015800B0EF00F0B7EF00F0000E0001DE6F000E08
:10016800DD6FBCEF00F0000E0001DE6F800EDD6F6A
:10017800DD514B12CBAAC3EF00F0C7EF00F0336A92
:10018800332AC8EF00F0336A3338F00B4512CCA09D
:10019800D0EF00F0D4EF00F0336A332AD5EF00F047
:1001A800336A3338F00B451250EF02F0FE05D8A43D
:1001B800E0EF00F0E2EF00F054EF01F0CCAAE7EF37
:1001C80000F0EBEF00F0336A332AECEF00F0336A0B
:1001D800060E346ED8903336342EEEEF00F03350DE
:1001E8004512CCAAFAEF00F0FCEF00F003EF01F0A3
:1001F800000E0001E06F000EDF6F08EF01F0000E47
:100208000001E06F800EDF6FDF514A12CCA40FEFC0
:1002180001F013EF01F0336A332A14EF01F0336A67
:10022800050E346ED8903336342E16EF01F0335065
:100238004512CCA422EF01F024EF01F02BEF01F0DE
:10024800000E0001E26F000EE16F30EF01F0000ECA
:100258000001E26F800EE16FE1514B12CCA037EF45
:1002680001F039EF01F03FEF01F0000EE46F000EEE
:10027800E36F43EF01F0000EE46F800EE36FE3518C
:100288004B12CBAA4AEF01F04EEF01F0336A332A42
:100298004FEF01F0336A3338F00B451250EF02F09C
:1002A800020EFE19D8A45BEF01F05DEF01F0CFEF6D
:1002B80001F0CCAA62EF01F066EF01F0336A332A4D
:1002C80067EF01F0336A060E346ED8903336342E59
:1002D80069EF01F033504512CCAA75EF01F077EFC2
:1002E80001F07EEF01F0000E0001E66F000EE56FF1
:1002F80083EF01F0000E0001E66F800EE56FE55117
:100308004A12CBAA8AEF01F08CEF01F092EF01F0CC
:10031800000EE86F000EE76F96EF01F0000EE86F31
:10032800800EE76FE7514A12CCA49DEF01F0A1EFD0
:1003380001F0336A332AA2EF01F0336A050E346EF6
:10034800D8903336342EA4EF01F033504512CCA4A4
:10035800B0EF01F0B2EF01F0B9EF01F0000E0001CB
:10036800EA6F000EE96FBEEF01F0000E0001EA6FC0
:10037800800EE96FE9514B12CCA0C5EF01F0C9EF2F
:1003880001F0336A332ACAEF01F0336A3338F00BCD
:10039800451250EF02F0030EFE19D8A4D6EF01F073
:1003A800D8EF01F050EF02F0CCAADDEF01F0E1EF59
:1003B80001F0336A332AE2EF01F0336A060E346E35
:1003C800D8903336342EE4EF01F033504512CCAADE
:1003D800F0EF01F0F2EF01F0F9EF01F0000E00018B
:1003E800EC6F000EEB6FFEEF01F0000E0001EC6FFA
:1003F800800EEB6FEB514A12CBAA05EF02F007EF24
:1004080002F00DEF02F0000EEE6F000EED6F11EF2F
:1004180002F0000EEE6F800EED6FED514A12CCA483
:1004280018EF02F01CEF02F0336A332A1DEF02F0D6
:10043800336A050E346ED8903336342E1FEF02F02F
:1004480033504512CCA42BEF02F02DEF02F034EF1D
:1004580002F0000E0001F06F000EEF6F39EF02F0AE
:10046800000E0001F06F800EEF6FEF514B12CCA021
:1004780040EF02F042EF02F048EF02F0000EF26F98
:10048800000EF16F4CEF02F0000EF26F800EF16F6C
:10049800F1514B1250EF02F0CCAC55EF02F059EF8E
:1004A80002F0336A332A5AEF02F0336AD8903336AF
:1004B800D8903336D89033344512CCAE66EF02F07C
:1004C8006AEF02F0336A332A6BEF02F0336AD8908E
:1004D8003336D89033344512CBA075EF02F079EF5C
:1004E80002F0336A332A7AEF02F0336AD890333451
:1004F8004512CBA282EF02F085EF02F0010E86EFE3
:1005080002F0000E451212001450D8A48EEF02F02B
:1005180090EF02F09CEF02F0020E3E01F16FF881BD
:10052800000E156E000E136E010E146E29EF04F006
:100538003E01F8B1A2EF02F0A4EF02F029EF04F0B7
:100548001350D8B4AAEF02F0ACEF02F0E5EF02F0D6
:10055800C2EF02F0030EF16FDFEF02F0000EF16F51
:10056800DFEF02F0010EF16FDFEF02F053965384D4
:10057800000E146E000E136E29EF04F015503F6E36
:10058800406A4050000AD8B4CCEF02F0DFEF02F026
:100598003F50000AD8B4AEEF02F0010AD8B4B2EF67
:1005A80002F0030AD8B4B6EF02F0010AD8B4BAEFE1
:1005B80002F0DFEF02F0152A000E136EF88129EF22
:1005C80004F0010E136E3B0EF16FF881EF516F00CE
:1005D800C0FB3FF0406A3FC040F03F6A3F26000E34
:1005E8004022D89040323F32D89040323F32D890A3
:1005F80040323F323FC00BF040C00CF084EF03F0B4
:10060800610068FF09F061006CFF0AF0610058FFA3
:1006180007F061005CFF08F0610060FF05F0610011
:1006280064FF06F06100B8FF03F06100BCFF04F04E
:100638006100C0FF01F06100C4FF02F0A1EF03F008
:10064800610080FF09F0610084FF0AF0610070FF1B
:1006580007F0610074FF08F0610078FF05F06100A1
:100668007CFF06F06100C8FF03F06100CCFF04F0D6
:100678006100D0FF01F06100D4FF02F0A1EF03F0A8
:10068800610098FF09F061009CFF0AF0610088FF93
:1006980007F061008CFF08F0610090FF05F0610031
:1006A80094FF06F06100D8FF03F06100DCFF04F05E
:1006B8006100E0FF01F06100E4FF02F0A1EF03F048
:1006C8006100B0FF09F06100B4FF0AF06100A0FF0B
:1006D80007F06100A4FF08F06100A8FF05F06100C1
:1006E800ACFF06F06100E8FF03F06100ECFF04F0E6
:1006F8006100F0FF01F06100F4FF02F0A1EF03F0E8
:1007080015503F6E406A4050000AD8B48EEF03F08F
:10071800A1EF03F03F50000AD8B404EF03F0010A38
:10072800D8B424EF03F0030AD8B444EF03F0010A65
:10073800D8B464EF03F0A1EF03F0060E05243F6E72
:10074800000E0620406E0B503F5C0C504058D8B04D
:10075800B0EF03F0B2EF03F0DDEF03F009500B5CEC
:100768000A500C58D8A0BBEF03F0BDEF03F0C7EF59
:1007780003F0460E1524D96EDA6A000EDA22E40E6A
:10078800DF6E29EF04F0460E1524D96EDA6A000EE2
:10079800DA2205500B5C396E06500C583A6E03C0CD
:1007A8003BF004C03CF0D3EC0BF0800FDF6E29EF78
:1007B80004F0FA0E3F6EFF0E406E05C041F006C011
:1007C80042F03F5041264050422241500B5C42507B
:1007D8000C58D8B0F2EF03F0F4EF03F021EF04F077
:1007E8000B50075C0C500858D8A0FDEF03F0FFEF42
:1007F80003F009EF04F0460E1524D96EDA6A000EEC
:10080800DA221C0EDF6E29EF04F0460E1524D96E8D
:10081800DA6A000EDA220B50055C396E0C50065865
:100828003A6E01C03BF002C03CF0D3EC0BF03F6ED7
:100838003F507F08DF6E29EF04F0460E1524D96E6D
:10084800DA6A000EDA22800EDF6E12001450D8A485
:1008580030EF04F032EF04F03EEF04F0020E3E01F8
:10086800F16FF881000E156E000E136E010E146EF6
:100878006FEF05F03E01F8B144EF04F046EF04F0E5
:100888006FEF05F01350D8B44CEF04F04EEF04F0BE
:1008980087EF04F064EF04F0030EF16F81EF04F0CA
:1008A800000EF16F81EF04F0010EF16F81EF04F09B
:1008B800000E146E000E136E6FEF05F06FEF05F06B
:1008C8001550336E346A3450000AD8B46EEF04F011
:1008D80081EF04F03350000AD8B450EF04F0010A55
:1008E800D8B454EF04F0030AD8B458EF04F0010A5E
:1008F800D8B45CEF04F081EF04F0152A000E136EF3
:10090800F8816FEF05F0010E136E3B0EF16FF88161
:10091800EF516F00C0FB33F0346A33C034F0336AF0
:100928003326000E3422D89034323332D890343201
:100938003332D8903432333233C00BF034C00CF039
:1009480052EF05F00B500701DA5D0C50DB59D8B0B7
:10095800B0EF04F0B2EF04F0B8EF04F060002CF050
:10096800DAF7600030F0DBF7D6510B5CD7510C5842
:10097800D8B0C1EF04F0C3EF04F0C9EF04F0600091
:100988002CF0D6F7600030F0D7F760002CF0D8F7DD
:10099800600030F0D9F76FEF05F00B500701E05D0C
:1009A8000C50E159D8B0DBEF04F0DDEF04F0E3EFD1
:1009B80004F060002CF0E0F7600030F0E1F7DC5163
:1009C8000B5CDD510C58D8B0ECEF04F0EEEF04F0FE
:1009D800F4EF04F060002CF0DCF7600030F0DDF795
:1009E80060002CF0DEF7600030F0DFF76FEF05F005
:1009F8000B500701E65D0C50E759D8B006EF05F03B
:100A080008EF05F00EEF05F060002CF0E6F7600047
:100A180030F0E7F7E2510B5CE3510C58D8B017EF10
:100A280005F019EF05F01FEF05F060002CF0E2F774
:100A3800600030F0E3F760002CF0E4F7600030F07D
:100A4800E5F76FEF05F00B500701EC5D0C50ED5921
:100A5800D8B031EF05F033EF05F039EF05F060005D
:100A68002CF0ECF7600030F0EDF7E8510B5CE95141
:100A78000C58D8B042EF05F044EF05F04AEF05F006
:100A880060002CF0E8F7600030F0E9F760002CF027
:100A9800EAF7600030F0EBF76FEF05F01550336EB2
:100AA800346A3450000AD8B45CEF05F062EF04F001
:100AB8003350000AD8B4A6EF04F0010AD8B4D1EF35
:100AC80004F0030AD8B4FCEF04F0010AD8B427EF05
:100AD80005F062EF04F0120053AC1200C3946000FA
:100AE800B3F0E9FF6F00BCFF2EF0556A5586CB9432
:100AF8002EAEBAEF05F0554E2BEF06F000000000C1
:100B080000000000000000000000000000000000DD
:100B18000000000000000000CB840000000000007E
:100B280000000000000000000000000000000000BD
:100B380000000000000000000000000000000000AD
:100B4800000000000000000000000000000000009D
:100B5800000000000000000000000000000000008D
:100B68000000000000000000F5EF05F0554E59EFB9
:100B780006F0000000000000000000000000000077
:100B8800000000000000000000000000000000005D
:100B9800000000000000000000000000000000004D
:100BA800000000000000000000000000000000003D
:100BB800000000000000000000000000000000002D
:100BC800000000000000000000000000CB840000CE
:100BD800000000000000000000000000000000000D
:100BE80000002E367BEF05F02C2A2D2E73EF05F032
:100BF80000000000000000000000000000000000ED
:100C080000000000CB94000000000000000000007D
:100C180000000000000000000000000000000000CC
:100C280000000000000000000000000000000000BC
:100C380000000000000000000000000000000000AC
:100C48000000000000000000CB84538A120000005E
:100C5800000000000000000000000000000000008C
:100C68000000000000000000CB840000000000002D
:100C7800000000000000000000000000000000006C
:100C8800000000000000000000000000000000005C
:100C9800000000000000000000000000000000004C
:100CA800000000000000F8EF05F000000000000060
:100CB800000000000000000000000000000000002C
:100CC800000000000000000000000000000000001C
:100CD800000000000000000000000000000000000C
:100CE80000000000000000000000000000000000FC
:100CF80000000000000000000000000000000000EC
:100D0800000000000000CB84F8EF05F0F8EC0BF0D1
:100D180044EC09F0000E3E01F16FF88FCBBA97EF63
:100D280006F099EF06F0A7EF06F0CCB09EEF06F0BC
:100D3800A0EF06F0A7EF06F0000E0701FE6F5DECCE
:100D48000BF0E0EF06F0CBBAACEF06F0AEEF06F032
:100D5800BAEF06F0CCBAB3EF06F0B5EF06F0BAEF8B
:100D680006F0020E0701FE6FA3EF06F0CCB0BFEF4E
:100D780006F0C1EF06F0CDEF06F0CCB4C6EF06F0F2
:100D8800C8EF06F0CDEF06F0010E0701FE6FA3EFE6
:100D980006F0CCB4D2EF06F0D4EF06F0E0EF06F0A0
:100DA800CCBAD9EF06F0DBEF06F0E0EF06F0030E61
:100DB8000701FE6FA3EF06F0CCB2E5EF06F0E7EF10
:100DC80006F0F5EF06F00701FF51D8B4EEEF06F094
:100DD800F1EF06F0010EF2EF06F0000EFF6F5DEC8A
:100DE8000BF0CABCFAEF06F0FCEF06F021EF07F0B3
:100DF800CABE01EF07F003EF07F021EF07F0CAB80A
:100E080008EF07F00AEF07F021EF07F0010E196E5F
:100E18001CEC0BF021EF07F02AEC04F0CCB217EF32
:100E280007F019EF07F021EF07F047EC08F05DEC49
:100E38000BF0000E196E29EF07F01950D8A427EF10
:100E480007F029EF07F010EF07F0D28E72EC0AF0E6
:100E580053A031EF07F033EF07F035EF07F03CEC24
:100E68000CF070EC05F091EC0BF053A63EEF07F098
:100E780040EF07F072EF07F000016205D8A447EFD2
:100E880007F049EF07F057EF07F00701FF51D8B413
:100E980050EF07F052EF07F057EF07F0CB88F00E4E
:100EA8007D6E70EF07F0020E00016219D8A45FEFA3
:100EB80007F061EF07F06FEF07F00701FF51D8B4B3
:100EC80068EF07F06AEF07F06FEF07F0CB88600E66
:100ED8007D6E70EF07F0CB9888EC02F053A477EFA3
:100EE80007F079EF07F02AEF07F00FEC00F02AEF90
:100EF80007F00DEF00F033C03DF034C03EF037503E
:100F08003810D8A48AEF07F08CEF07F08EEF07F0BF
:100F180046EF08F06000F7F0D9FF6000FBF0DAFF59
:100F28006000D7F0DFFF37503D24396E38503E203F
:100F38003A6EFF0E3924D96EFF0E3A20DA6E600041
:100F4800D7F0DFFF385007E1030E375CD8B0AFEFBA
:100F580007F0B1EF07F0B3EF07F046EF08F020EE27
:100F680001F03D50D9263E50DA226000D7F0DFFF6D
:100F780020EE02F03D50D9263E50DA226000D7F02C
:100F8800DFFF37503D24396E38503E203A6EFE0E52
:100F98003924D96EFF0E3A20DA6E6000D7F0DFFFF1
:100FA80037503D24396E38503E203A6EFD0E3924B4
:100FB800D96EFF0E3A20DA6E6000D7F0DFFF3850A6
:100FC80007E1070E375CD8B0ECEF07F0EEEF07F05B
:100FD800F0EF07F046EF08F020EE03F03D50D92679
:100FE8003E50DA226000D7F0DFFF37503D24396EDB
:100FF80038503E203A6EFC0E3924D96EFF0E3A2046
:10100800DA6E6000D7F0DFFF385007E1090E375C71
:10101800D8B011EF08F013EF08F015EF08F046EF1D
:1010280008F03DC039F03EC03AF0391E3A1E394A40
:101038003A2A030E39143B6E3C6A3B503D263C501D
:101048003E223B50375E3C50385AFC0E3716FF0E96
:1010580038163DEF08F06000F7F0D9FF6000FBF0AC
:10106800DAFF6000D7F0DFFF3706D8A038063D4A20
:101078003E2A37503810D8A444EF08F046EF08F05D
:101088002FEF08F01200610068FF3AF061006CFF72
:101098003BF0610060FF3CF0610064FF3DF0CFEC85
:1010A8000AF06000E8F0EEF76000ECF0EFF761009E
:1010B80060FF3AF0610064FF3BF0610058FF3CF0CC
:1010C80061005CFF3DF0CFEC0AF06000E8F0F0F75B
:1010D8006000ECF0F1F7610098FF3AF061009CFFC6
:1010E8003BF0610090FF3CF0610094FF3DF0CFECD5
:1010F8000AF06000E8F0F6F76000ECF0F7F761003E
:1011080090FF3AF0610094FF3BF0610088FF3CF0EB
:1011180061008CFF3DF0CFEC0AF06000E8F0F8F7D2
:101128006000ECF0F9F7610080FF3AF0610084FF9D
:101138003BF0610078FF3CF061007CFF3DF0CFECB4
:101148000AF06000E8F0F2F76000ECF0F3F76100F5
:1011580078FF3AF061007CFF3BF0610070FF3CF0E3
:10116800610074FF3DF0CFEC0AF06000E8F0F4F79E
:101178006000ECF0F5F76100B0FF3AF06100B4FFF1
:101188003BF06100A8FF3CF06100ACFF3DF0CFEC04
:101198000AF06000E8F0FAF76000ECF0FBF7610095
:1011A800A8FF3AF06100ACFF3BF06100A0FF3CF003
:1011B8006100A4FF3DF0CFEC0AF06000E8F0FCF716
:1011C8006000ECF0FDF71200000E0701D46F000E6E
:1011D800D36F4E0ED56F000ED76F8C0ED66F000EE4
:1011E800D96FFE0ED86F010EDB6F810EDA6F000E1D
:1011F800DD6F8C0EDC6F000EDF6FFC0EDE6F010EF4
:10120800E16F8E0EE06F000EE36F6C0EE26F000E62
:10121800E56FFC0EE46F010EE76F630EE66F000EDC
:10122800E96F7F0EE86F000EEB6FFE0EEA6F010E9E
:10123800ED6F810EEC6F000EEF6FC80EEE6F000EB3
:10124800F16FE80EF06F000EF36FAF0EF26F000E45
:10125800F56FE40EF46F010EF76F010EF66F000ED6
:10126800F96FB10EF86F000EFB6FC30EFA6F000E28
:10127800FD6FC90EFC6F000EFE6F010EFF6F1200AE
:10128800D30E336E070E346E000E366E000E356EBA
:10129800000E386E2D0E376E7FEC07F0D30E3F6EC2
:1012A800070E406E000E416E040041503F24D96E77
:1012B800000E4020DA6E415017EC0CF0DF6E020E83
:1012C8004118D8A46AEF09F06CEF09F07CEF09F037
:1012D8004E0E0701D519D8B474EF09F076EF09F06E
:1012E8007CEF09F0E8EC08F05DEC0BF085EF09F015
:1012F800412A2C0E416483EF09F085EF09F058EF7D
:1013080009F01200F00EF66E160EF76E000EF86E6B
:1013180000EEAAF010EE31F009006F00D7FFEEFFE3
:10132800E550E150F9E18C0EF66E180EF76E000EDE
:10133800F86E00EE44F010EE12F009006F00D7FFCF
:10134800EEFFE550E150F9E100EE00F13C0EEE6AE7
:10135800E806FDE100EE60F04A0EEE6AE806FDE1FF
:1013680000EE01F02E0EEE6AE806FDE1080ED56EDD
:10137800000ED66E000ED76E000EF86E00018AEFD2
:1013880006F0F00EBA6E270EBB6EBC68C268E70E98
:10139800C36EC468000E3A01606F000E506F070EEE
:1013A800406F000E816F270E516FF00E416F61691B
:1013B800000E5A6F000E5B6F000E6A6F000E6B6FA7
:1013C800000E426F000E526F180E626F4369536928
:1013D8006369446954696469080E846F5795568532
:1013E8005595000E336E000E346E4FEC0CF0090E5E
:1013F8003A010B6F0A0ED26F1200000E386E000E03
:10140800376E35503610D8B40CEF0AF00EEF0AF0EC
:1014180036EF0AF0010E396E16EF0AF0D89035361D
:101428003636392A36AE1BEF0AF01DEF0AF012EFF6
:101438000AF0D890373638363550335C3650345841
:10144800D8A029EF0AF02BEF0AF030EF0AF0355058
:10145800335E3650345A3780D89036323532392E8A
:101468001DEF0AF037C033F038C034F012006F00B7
:10147800D8FF2FF06F00DCFF30F06F00E0FF31F095
:101488006F00D4FF32F0390191AF4DEF0AF04FEF02
:101498000AF065EF0AF0A1AF54EF0AF056EF0AF030
:1014A80065EF0AF0A19F6F0060FC2AF053A45FEF7C
:1014B8000AF061EF0AF063EF0AF0539453923EEC9E
:1014C8000BF06000CBF0F5FF6000C7F0F8FF60009C
:1014D800C3F0F7FF6000BFF0F6FF110053AE120033
:1014E8003F01D29F1F9F600E6F00A3FFE9FFEF50DF
:1014F8005018E83C89EF0AF0440E2C6EE92AE92AD4
:10150800EFB053882D86538C1200EF505118E83CE9
:1015180094EF0AF0AA0E2C6E2D862D82538C1200A1
:10152800EF50E8669FEF0AF02D802D82B40E2C6EE6
:101538005382538C120053801200000E3E01DE6F5E
:10154800000EDF6F000EE06F000EE16F000EE46F1B
:10155800000EE56F000EEA6F000EEC6F000EF16FE3
:10156800100EF36F000EF46F000EF56F000EF66F9D
:10157800000EF76F000EF96F000EFA6F000EFB6F8A
:10158800000EFC6F000EFD6F000EFE6F010EFF6F68
:10159800840EF86F12003C503A5C3E6E3D503B584A
:1015A8003F6E3EC035F03FC036F0270E346E100E49
:1015B800336E01EC0AF033C034F0336A33C042F0C2
:1015C80034C043F042C033F043C034F0000E366EEE
:1015D800640E356E01EC0AF033C040F034C041F0BF
:1015E80040C03AF041C03BF01200346E000ED2BE4B
:1015F800010E356E6000D3F0E0F96000CFF0E3F93A
:101608003F0E3901E517E585D29E550EE66FAA0E05
:10161800E66FE583E5B313EF0BF015EF0BF00EEF74
:101628000BF0E59535B002D0D29E01D0D28E1200D3
:10163800000E0701D76FFA0ED66F000EDB6FFA0E99
:10164800DA6F000EDD6FFA0EDC6F000EE16FFA0E36
:10165800E06F000EE36FFA0EE26F000EE76FFA0E0E
:10166800E66F000EE96FFA0EE86F000EED6FFA0EE6
:10167800EC6F12006000A3F0E9FF54B64DEF0BF0D9
:10168800EF46EF906000ABF0E8FF5260EF8054EF58
:101698000BF06000ABF0E8FF52605BEF0BF0EF90EF
:1016A800544E58EF0BF01200282A54861200538E1D
:1016B8001200D30E366E070E376E000E386E385095
:1016C8003624D96E000E3720DA6EDF50336E38506C
:1016D800F9EC0AF0382A2C0E386475EF0BF077EF26
:1016E8000BF063EF0BF01200008080808080000018
:1016F8000202090003C900C300B1000101E400AF00
:1017080000E800C8008101FE007F006301FC006C56
:09171800008E01FC008C0081012F
:1017220053AA1200600E6F00A0FF28F0539E539C34
:10173200539A5390546A54862E6A2C6A2D6A296AE7
:101742002A6A5386C3843F01D28F1F8F12009C0ED8
:101752003F011E6FC30E1F6F000E206F000E216F20
:10176200000E236F000E226F1D691C691B6939016F
:10177200918F919D3F011F8F1200335035026F00F0
:10178200CCFF37F06F00D0FF38F033503602F35001
:10179200382634503502F350382637C033F038C07B
:1017A20034F0120039C033F03AC034F03BC035F0A7
:1017B2003CC036F0BEEC0BF0010E3326000E342294
:1017C20034503D6E3E6A3D501200000E3901C06F2A
:1017D200000EC16F000EC26F000EC36F000EC46F09
:1017E200000EC56F000EC66F000EC76F120054ECDC
:1017F2000CF0E6EC0BF0C5EC09F030EC0CF024EC4C
:101802000CF0A1EC0AF009EC0CF0A8EC0BF01200C1
:10181200010EA26E000EA16E000EA36E9F68000E56
:101822009E6E3901A791800EA06E1200336E600089
:10183200CFF0E0F93F0E3901E517E58100F000F045
:101842003901E35112009C0E7E6EF00E7D6E000E89
:101852007C6E3F015E51FC0B02095E6F1200600E4E
:101862003901D96F000EDB6F000EDD6F080EDF6FDE
:10187200000EDE6F12000A0E336E580EE82EFED7EF
:10188200332EFCD700D0538A1200000083837D7D63
:101892000000FE008300BFBE3220080833C0F3F010
:1018A20034C0F4F01200D28A3901818F819D120076
:020000040020DA
:10000000FF0FFF0FFF0FFF0FFF0FFF0FFF0FFF0F80
:020000040030CA
:0A0000008CFFF7FF9FFFFFFFFFFFDB
:00000001FF
