:040000000DEF00F010
:0400080072EF03F0A0
:10001800FF0041EF02F02BAC1200C3946000C3F064
:10002800E9FF6F00BCFF32F04D6A4D86CB9432AECB
:1000380059EF00F04D4ECAEF00F00000000000003C
:1000480000000000000000000000000000000000A8
:10005800000000000000CB84000000000000000049
:100068000000000000000000000000000000000088
:100078000000000000000000000000000000000078
:100088000000000000000000000000000000000068
:100098000000000000000000000000000000000058
:1000A80000000000000094EF00F04D4EF8EF00F063
:1000B8000000000000000000000000000000000038
:1000C8000000000000000000000000000000000028
:1000D8000000000000000000000000000000000018
:1000E8000000000000000000000000000000000008
:1000F80000000000000000000000000000000000F8
:1001080000000000000000000000CB840000000098
:1001180000000000000000000000000000000000D7
:1001280032361AEF00F0302A312E12EF00F00000BC
:1001380000000000000000000000000000000000B7
:100148000000CB9400000000000000000000000048
:100158000000000000000000000000000000000097
:100168000000000000000000000000000000000087
:100178000000000000000000000000000000000077
:10018800000000000000CB842B8A12000000000051
:100198000000000000000000000000000000000057
:1001A800000000000000CB840000000000000000F8
:1001B8000000000000000000000000000000000037
:1001C8000000000000000000000000000000000027
:1001D8000000000000000000000000000000000017
:1001E8000000000097EF00F0000000000000000091
:1001F80000000000000000000000000000000000F7
:1002080000000000000000000000000000000000E6
:1002180000000000000000000000000000000000D6
:1002280000000000000000000000000000000000C6
:1002380000000000000000000000000000000000B6
:1002480000000000CB8497EF00F01450D8A40BD026
:10025800020E3E01F16FF881000E156E000E136E4E
:10026800010E146E12003E01F8B112001350D8A40A
:1002780010D02AD0030E03D0000E01D0010E3E018B
:10028800F16F1CD02B962B84000E146E000E136E8B
:100298001200155001013E6F3F6B3F51000AD8A470
:1002A8000DD03E51000AD8B4E5D7010AD8B4E4D736
:1002B800030AD8B4E3D7010AD8B4E4D7152A000E44
:1002C800136E3E01F8811200010E136E3B0EF16FA2
:1002D800F881EF516F00C0FB3EF101013F6B3EC159
:1002E8003FF13E6B3E27000E3F23D8903F333E330D
:1002F800D8903F333E33D8903F333E333EC10BF066
:100308003FC10CF051D0010E0A6E810E096E000E2D
:10031800086E830E076E000E066EFE0E056E000E4A
:10032800046EC80E036E000E026EE80E3BD0010E7E
:100338000A6E8E0E096E000E086E8C0E076E000E89
:10034800066EFC0E056E000E046EAF0E036E000EF8
:10035800026EE40E27D0010E0A6E630E096E000EBF
:10036800086E6C0E076E000E066EFC0E056E010E12
:10037800046E010E036E000E026EB10E13D0010E54
:100388000A6E810E096E000E086E7F0E076E000E53
:10039800066EFE0E056E000E046EC30E036E000E92
:1003A800026EC90E016E14D015503E6F3F6B3F515F
:1003B800000AD8A40DD03E51000AD8B4A4D7010A27
:1003C800D8B4B5D7030AD8B4C6D7010AD8B4D7D792
:1003D8000B50055C0C500658D8B020D009500B5C67
:1003E8000A500C58D8A007D01550350FD96EDA6AC4
:1003F800E40EDF6E12001550350FD96EDA6A05501B
:100408000B5C586E06500C58596E03C05AF004C065
:100418005BF028EC04F0800FDF6E120005500B5CD7
:1004280006500C58D8B022D00B50075C0C50085816
:10043800D8A007D01550350FD96EDA6A1B0EDF6EBB
:1004480012001550350FD96EDA6A0B50055C586EDC
:100458000C500658596E01C05AF002C05BF028ECE7
:1004680004F03E6F3E518008DF6E12001550350FC4
:10047800D96EDA6A800EDF6E12008E0EF66E060EE8
:10048800F76E000EF86E00EE60F010EE56F0090000
:100498006F00D7FFEEFFE550E150F9E1700EF66E00
:1004A800080EF76E000EF86E00EE33F010EE1BF03B
:1004B80009006F00D7FFEEFFE550E150F9E100EECB
:1004C80000F13C0EEE6AE806FDE100EEB6F04A0ED9
:1004D800EE6AE806FDE100EE01F0320EEE6AE8068B
:1004E800FDE1080ED56E000ED66E000ED76E000E1A
:1004F800F86E0001D3EF03F0F00EBA6E270EBB6E54
:10050800BC68C268C368C468000E3A01606F000E18
:10051800506F070E406F000E816F270E516FF00E5F
:10052800416F6169000E5A6F000E5B6F000E6A6FB3
:10053800000E6B6F000E426F000E526F180E626F46
:10054800436953696369446954696469080E846F2F
:10055800579556855595000E526E000E536E67ECF2
:1005680004F00A0ED26F12002BB209D0000E336EBF
:10057800000E346E000E396E000E3A6E2B82CAA839
:1005880003D0526A522A01D0526AD8905234331A90
:10059800CAAA03D0526A522A01D0526AD890523459
:1005A800331ACAAE03D0526A522A01D0526AD8907E
:1005B8005234331ACAAC03D0526A522A01D0526A52
:1005C800D8905234331ACCA202D0010E01D0000EBA
:1005D800331A1200000E3E01DE6F000EDF6F000EB0
:1005E800E06F000EE16F000EE46F000EE56F000E85
:1005F800EA6F000EEC6F000EF16F100EF36F000E35
:10060800F46F000EF56F000EF66F000EF76F000E18
:10061800F96F000EFA6F000EFB6F000EFC6F000EF4
:10062800FD6F000EFE6F010EFF6F840EF86F120053
:100638002BAE12003F01D29F1F9FB60E6F00A3FF83
:10064800E9FFEF504918E83C2FEF03F0330E306E06
:1006580031862B8C1200EF504A18E83C3AEF03F031
:100668008B0E306E318631822B8C1200EF50E8668B
:1006780045EF03F031803182950E306E2B822B8C42
:1006880012002B8A120000008300FE0081018C00FA
:10069800FC008E016C00FC0063017F00FE008101FC
:1006A800C800E800AF00E4000101B100C300C900C0
:1006B800000080808080800000020209000317008B
:1006C8005E01C900C300B1000101E400AF00E80009
:1006D800C8008101FE007F006301FC006F00D8FFA5
:1006E8004EF06F00DCFF4FF06F00E0FF50F06F003E
:1006F800D4FF51F0390191BFA1AF0AD0A19F6F007B
:1007080060FC2EF02BA402D02B942B9299EC03F0D2
:10071800600047F1F5FF600043F1F8FF60003FF12A
:10072800F7FF60003BF1F6FF11006000B3F0E9FF4E
:100738004CB6A8EF03F0EF46EF906000BBF0E8FF7F
:100748004B60EF80AFEF03F06000BBF0E8FF4B6059
:10075800B6EF03F0EF904C4EB3EF03F012002C2AE3
:100768004C8612002B8E12002BB0BDEF03F02BAA83
:100778001200B60E6F00A0FF2CF02B9E2B9C2B9A1C
:100788002B904C6A4C86326A306A316A2D6A2E6A1E
:100798002B882B86C3843F01D28F1F8F1200B60E81
:1007A8006F00A0FF2CF046EC04F0D28E000E3E0144
:1007B800F16FF88F1CEC03F00FEC00F0B8EC03F0CD
:1007C8002BB629EC01F02BA4F5D7B8EC02F0F2D740
:1007D8009C0E3F011E6FC30E1F6F000E206F000E90
:1007E800216F000E236F000E226F1D691C691B69A3
:1007F8003901918F919D3F011F8F12005250540271
:100808006F00CCFF56F06F00D0FF57F052505502E2
:10081800F350572653505402F350572656C052F0FF
:1008280057C053F01200000EC06F000EC16F000ECB
:10083800C26F000EC36F000EC46F000EC56F000EAE
:10084800C66F000EC76F120058C052F059C053F05F
:100858005AC054F05BC055F002EC04F0535001014B
:100868003C6F3D6B3C511200000083837D7D00008E
:100878006C008E01FC008C008101FE008300BFBE6D
:030888001A080843
:10088C006CEC04F017EC04F080EC02F053EC04F088
:10089C00EEEC02F0ECEC03F01200600E3901D96FB3
:1008AC00000EDB6F000EDD6F080EDF6F000EDE6FCB
:1008BC0012004CB612002BB212002DA012002B907D
:1008CC00120052C040F153C041F11200D28A3901DA
:0608DC00818F819D1200D6
:020000040020DA
:10000000FF0FFF0FFF0FFF0FFF0FFF0FFF0FFF0F80
:020000040030CA
:0A0000008CFFF7DF9FFFFFFFFFFFFB
:00000001FF
