:040000000DEF00F010
:04000800C7EF06F048
:10001800FF0015EF06F01450D8A415EF00F017EF05
:1000280000F023EF00F0020E3E01F16FF881000EA0
:10003800156E000E136E010E146E8FEF01F03E0167
:10004800F8B129EF00F02BEF00F08FEF01F013501B
:10005800D8B431EF00F033EF00F071EF00F04CEF5F
:1000680000F0030E3E01F16F6AEF00F0000E3E0152
:10007800F16F6AEF00F0010E3E01F16F6AEF00F0D8
:1000880028962884000E146E000E136E8FEF01F070
:10009800155001013C6F3D6B3D51000AD8B457EF34
:1000A80000F06AEF00F03C51000AD8B435EF00F0D8
:1000B800010AD8B43AEF00F0030AD8B43FEF00F0D1
:1000C800010AD8B444EF00F06AEF00F0152A000ED8
:1000D800136E3E01F8818FEF01F0010E136E3B0E97
:1000E800F16FF881EF516F00C0FB3CF101013D6BEE
:1000F8003CC13DF13C6B3C27000E3D23D8903D337D
:100108003C33D8903D333C33D8903D333C333CC1ED
:100118000BF03DC10CF0E9EF00F0B2C009F0B3C03C
:100128000AF0AEC007F0AFC008F0B0C005F0B1C02B
:1001380006F0C6C003F0C7C004F0C8C001F0C9C0CB
:1001480002F006EF01F0B8C009F0B9C00AF0B4C077
:1001580007F0B5C008F0B6C005F0B7C006F0CAC0D1
:1001680003F0CBC004F0CCC001F0CDC002F006EF24
:1001780001F0BEC009F0BFC00AF0BAC007F0BBC0AA
:1001880008F0BCC005F0BDC006F0CEC003F0CFC07B
:1001980004F0D0C001F0D1C002F006EF01F0C4C0F5
:1001A80009F0C5C00AF0C0C007F0C1C008F0C2C05D
:1001B80005F0C3C006F0D2C003F0D3C004F0D4C029
:1001C80001F0D5C002F006EF01F015503C6F3D6B11
:1001D8003D51000AD8B4F3EF00F006EF01F03C51AE
:1001E800000AD8B491EF00F0010AD8B4A7EF00F0E4
:1001F800030AD8B4BDEF00F0010AD8B4D3EF00F079
:1002080006EF01F0040E05243C6F000E06203D6F3A
:100218000B503C5D0C503D59D8B015EF01F017EF6D
:1002280001F042EF01F009500B5C0A500C58D8A0BD
:1002380020EF01F022EF01F02CEF01F0320E15242F
:10024800D96EDA6A000EDA22E40EDF6E8FEF01F063
:10025800320E1524D96EDA6A000EDA2205500B5CCC
:10026800556E06500C58566E03C057F004C058F02F
:100278007AEC08F0800FDF6E8FEF01F0FC0E3C6F18
:10028800FF0E3D6F05C03EF106C03FF13C513E27D1
:100298003D513F233E510B5C3F510C58D8B057EFAE
:1002A80001F059EF01F087EF01F00B50075C0C509B
:1002B8000858D8A062EF01F064EF01F06EEF01F08A
:1002C800320E1524D96EDA6A000EDA221C0EDF6EA1
:1002D8008FEF01F0320E1524D96EDA6A000EDA2299
:1002E8000B50055C556E0C500658566E01C057F001
:1002F80002C058F07AEC08F001013C6F3C517F08CD
:10030800DF6E8FEF01F0320E1524D96EDA6A000E17
:10031800DA22800EDF6E12001450D8A496EF01F096
:1003280098EF01F0A4EF01F0020E3E01F16FF881A1
:10033800000E156E000E136E010E146EBDEF02F066
:100348003E01F8B1AAEF01F0ACEF01F0BDEF02F009
:100358001350D8B4B2EF01F0B4EF01F0EDEF01F0B3
:10036800CAEF01F0030EF16FE7EF01F0000EF16F35
:10037800E7EF01F0010EF16FE7EF01F0000E146EE8
:10038800000E136EBDEF02F0BDEF02F015504F6E78
:10039800506A5050000AD8B4D4EF01F0E7EF01F0EA
:1003A8004F50000AD8B4B6EF01F0010AD8B4BAEF3A
:1003B80001F0030AD8B4BEEF01F0010AD8B4C2EFC5
:1003C80001F0E7EF01F0152A000E136EF881BDEF7A
:1003D80002F0010E136E3B0EF16FF881EF516F00C2
:1003E800C0FB4FF0506A4FC050F04F6A4F26000EC6
:1003F8005022D89050324F32D89050324F32D89045
:1004080050324F324FC00BF050C00CF0A0EF02F04A
:100418000B500001B25D0C50B359D8B016EF02F082
:1004280018EF02F01CEF02F00BC0B2F00CC0B3F0F2
:10043800AE510B5CAF510C58D8B025EF02F027EF46
:1004480002F02BEF02F00BC0AEF00CC0AFF00BC007
:10045800B0F00CC0B1F0BDEF02F00B500001B85D78
:100468000C50B959D8B03BEF02F03DEF02F041EF24
:1004780002F00BC0B8F00CC0B9F0B4510B5CB55128
:100488000C58D8B04AEF02F04CEF02F050EF02F0EF
:100498000BC0B4F00CC0B5F00BC0B6F00CC0B7F090
:1004A800BDEF02F00B500001BE5D0C50BF59D8B033
:1004B80060EF02F062EF02F066EF02F00BC0BEF0F0
:1004C8000CC0BFF0BA510B5CBB510C58D8B06FEFE1
:1004D80002F071EF02F075EF02F00BC0BAF00CC039
:1004E800BBF00BC0BCF00CC0BDF0BDEF02F00B5070
:1004F8000001C45D0C50C559D8B085EF02F087EFF4
:1005080002F08BEF02F00BC0C4F00CC0C5F0C05174
:100518000B5CC1510C58D8B094EF02F096EF02F082
:100528009AEF02F00BC0C0F00CC0C1F00BC0C2F0D3
:100538000CC0C3F0BDEF02F015504F6E506A50501A
:10054800000AD8B4AAEF02F0C8EF01F04F50000A31
:10055800D8B40CEF02F0010AD8B431EF02F0030A64
:10056800D8B456EF02F0010AD8B47BEF02F0C8EF16
:1005780001F0120028AC1200C3946000B7F0E9FF44
:100588006F00BCFF2FF04A6A4A86CB942FAE08EF63
:1005980003F04A4E79EF03F000000000000000006D
:1005A8000000000000000000000000000000000043
:1005B80000000000CB8400000000000000000000E4
:1005C8000000000000000000000000000000000023
:1005D8000000000000000000000000000000000013
:1005E8000000000000000000000000000000000003
:1005F80000000000000000000000000000000000F3
:100608000000000043EF03F04A4EA7EF03F000009C
:1006180000000000000000000000000000000000D2
:1006280000000000000000000000000000000000C2
:1006380000000000000000000000000000000000B2
:1006480000000000000000000000000000000000A2
:100658000000000000000000000000000000000092
:100668000000000000000000CB8400000000000033
:1006780000000000000000000000000000002F360D
:10068800C9EF02F02D2A2E2EC1EF02F00000000063
:100698000000000000000000000000000000000052
:1006A800CB940000000000000000000000000000E3
:1006B8000000000000000000000000000000000032
:1006C8000000000000000000000000000000000022
:1006D8000000000000000000000000000000000012
:1006E80000000000CB84288A1200000000000000EF
:1006F80000000000000000000000000000000000F2
:1007080000000000CB840000000000000000000092
:1007180000000000000000000000000000000000D1
:1007280000000000000000000000000000000000C1
:1007380000000000000000000000000000000000B1
:10074800000046EF03F00000000000000000000079
:100758000000000000000000000000000000000091
:100768000000000000000000000000000000000081
:100778000000000000000000000000000000000071
:100788000000000000000000000000000000000061
:100798000000000000000000000000000000000051
:1007A8000000CB8446EF03F028B2DDEF03F0DFEF63
:1007B80003F0E8EF03F0000E306E000E316E000E0D
:1007C800366E000E376E2882CCA2EDEF03F0F1EF03
:1007D80003F04F6A4F2AF2EF03F04F6A4F38F00BDD
:1007E8003012CAACFAEF03F0FEEF03F04F6A4F2A5B
:1007F800FFEF03F04F6AD8904F36D8904F36D89015
:100808004F343012CAAE0BEF04F00FEF04F04F6A0A
:100818004F2A10EF04F04F6AD8904F36D8904F34D3
:100828003012CAAA1AEF04F01EEF04F04F6A4F2ADA
:100838001FEF04F04F6AD8904F343012CAA827EF40
:1008480004F02AEF04F0010E2BEF04F0000E301232
:10085800800E316ECCAA33EF04F037EF04F04F6A04
:100868004F2A38EF04F04F6A060E506ED8904F3674
:10087800502E3AEF04F04F503112CCA446EF04F05A
:100888004AEF04F04F6A4F2A4BEF04F04F6A050E07
:10089800506ED8904F36502E4DEF04F04F50311215
:1008A800CBAA59EF04F05DEF04F04F6A4F2A5EEFD0
:1008B80004F04F6A4F38F00B3112CCA066EF04F009
:1008C8006AEF04F04F6A4F2A6BEF04F04F6A4F3813
:1008D800F00B3112CCAC73EF04F077EF04F04F6AF1
:1008E8004F2A78EF04F04F6AD8904F36D8904F3699
:1008F800D8904F343112CCAE84EF04F088EF04F076
:100908004F6A4F2A89EF04F04F6AD8904F36D89033
:100918004F343112CBA093EF04F097EF04F04F6AF5
:100928004F2A98EF04F04F6AD8904F343112CBA277
:10093800A0EF04F0A3EF04F0010EA4EF04F0000E02
:1009480031121200B2C056F0B3C057F0B0C058F020
:10095800B1C059F057EC07F056C0C6F057C0C7F001
:10096800B0C056F0B1C057F0AEC058F0AFC059F0A3
:1009780057EC07F056C0C8F057C0C9F0BEC056F0D3
:10098800BFC057F0BCC058F0BDC059F057EC07F0D5
:1009980056C0CEF057C0CFF0BCC056F0BDC057F01F
:1009A800BAC058F0BBC059F057EC07F056C0D0F0A9
:1009B80057C0D1F0B8C056F0B9C057F0B6C058F01B
:1009C800B7C059F057EC07F056C0CAF057C0CBF083
:1009D800B6C056F0B7C057F0B4C058F0B5C059F01B
:1009E80057EC07F056C0CCF057C0CDF0C4C056F055
:1009F800C5C057F0C2C058F0C3C059F057EC07F053
:100A080056C0D2F057C0D3F0C2C056F0C3C057F09A
:100A1800C0C058F0C1C059F057EC07F056C0D4F028
:100A280057C0D5F01200600E6F00A0FF29F0BAEC95
:100A380008F0D0EC05F0000E3E01F16FF88FCABC4B
:100A480028EF05F02AEF05F04FEF05F0CABE2FEFAB
:100A580005F031EF05F04FEF05F0CAB836EF05F0B5
:100A680038EF05F04FEF05F0010E196EA5EC07F011
:100A78004FEF05F090EC01F0CCB245EF05F047EFF1
:100A880005F04FEF05F0A6EC04F020EC08F0000E9E
:100A9800196E57EF05F01950D8A455EF05F057EF28
:100AA80005F03EEF05F0D28E2CEC07F0BEEC02F01C
:100AB80005EC08F028A663EF05F065EF05F067EF91
:100AC80005F00FEC00F028A46CEF05F06EEF05F0D0
:100AD80058EF05F0D8EC03F058EF05F00DEF00F0F3
:100AE800000E0001AB6F000EAA6F4E0EAD6FF40E34
:100AF800AC6F000EAF6F080EAE6F000EB16FFE0E3A
:100B0800B06F010EB36F810EB26F000EB56F8C0E11
:100B1800B46F000EB76FFC0EB66F010EB96F8E0E74
:100B2800B86F000EBB6F6C0EBA6F000EBD6FFC0E77
:100B3800BC6F010EBF6F630EBE6F000EC16F7F0EDC
:100B4800C06F000EC36FFE0EC26F010EC56F810E1F
:100B5800C46F000EC76FC80EC66F000EC96FE80ECF
:100B6800C86F000ECB6FAF0ECA6F000ECD6FE40ECC
:100B7800CC6F010ECF6F010ECE6F000ED16FB10E8C
:100B8800D06F000ED36FC30ED26F000ED56FC90E93
:100B9800D46F000ED66F1200AA0E4F6E000E506E64
:100BA800000E526E000E516E000E546E2D0E536ED6
:100BB800E6EC07F0AA0E576E000E586E000E596E3E
:100BC800040059505724D96E000E5820DA6E595037
:100BD800ADEC08F0DF6E030E5918D8A4F6EF05F057
:100BE800F8EF05F00BEF06F0F40E0001AC1909E17F
:100BF8004E0EAD19D8B403EF06F005EF06F00BEF73
:100C080006F074EC05F020EC08F014EF06F0592A11
:100C18002C0E596412EF06F014EF06F0E4EF05F01D
:100C28001200CC0EF66E100EF76E000EF86E00EE87
:100C3800D7F010EE27F009006F00D7FFEEFFE55060
:100C4800E150F9E13E0EF66E110EF76E000EF86EE9
:100C580000EE30F010EE1BF009006F00D7FFEEFF3A
:100C6800E550E150F9E100EE00F13C0EEE6AE806CD
:100C7800FDE100EE60F0770EEE6AE806FDE100EEB9
:100C880001F02F0EEE6AE806FDE1080ED56E000EA3
:100C9800D66E000ED76E000EF86E000117EF05F045
:100CA800000E556E000E546E51505210D8B45FEFBE
:100CB80006F061EF06F089EF06F0010E536E69EF5A
:100CC80006F0D89051365236532A52AE6EEF06F0DF
:100CD80070EF06F065EF06F0D8905436553651504F
:100CE8004F5C52505058D8A07CEF06F07EEF06F0CB
:100CF80083EF06F051504F5E5250505A5480D890AE
:100D080052325132532E70EF06F054C04FF055C096
:100D180050F01200F00EBA6E270EBB6EBC68C268A7
:100D2800C368C468000E3A01606F000E506F070E6A
:100D3800406F000E816F270E516FF00E416F616991
:100D4800000E5A6F000E5B6F000E6A6F000E6B6F1D
:100D5800000E426F000E526F180E626F436953699E
:100D68006369446954696469080E846F57955685A8
:100D78005595000E4F6E000E506EDBEC08F00A0E13
:100D88003A01D26F12006F00D8FF4BF06F00DCFF02
:100D98004CF06F00E0FF4DF06F00D4FF4EF03901CA
:100DA80091AFD9EF06F0DBEF06F0F1EF06F0A1AF57
:100DB800E0EF06F0E2EF06F0F1EF06F0A19F6F001A
:100DC80060FC2BF028A4EBEF06F0EDEF06F0EFEF58
:100DD80006F028942892C7EC07F060003BF1F5FF75
:100DE800600037F1F8FF600033F1F7FF60002FF182
:100DF800F6FF1100000E3E01DE6F000EDF6F000EE1
:100E0800E06F000EE16F000EE46F000EE56F000E5C
:100E1800EA6F000EEC6F000EF16F100EF36F000E0C
:100E2800F46F000EF56F000EF66F000EF76F000EF0
:100E3800F96F000EFA6F000EFB6F000EFC6F000ECC
:100E4800FD6F000EFE6F010EFF6F840EF86F12002B
:100E580028AE12003F01D29F1F9F600E6F00A3FFB4
:100E6800E9FFEF504618E83C3FEF07F0300E2D6ED3
:100E78002E86288C1200EF504718E83C4AEF07F0FE
:100E8800D70E2D6E2E862E82288C1200EF50E86623
:100E980055EF07F02E802E82E10E2D6E2882288CC9
:100EA8001200288A12005850565C01013C6F5950B4
:100EB80057583D6F3CC151F03DC152F0270E506E5E
:100EC800100E4F6E54EC06F04FC050F04F6A4FC0F2
:100ED80040F150C041F140C14FF041C150F0000E07
:100EE800526E640E516E54EC06F04FC03EF150C085
:100EF8003FF13EC156F03FC157F01200506E000E50
:100F0800D2BE010E516E600043F1E0F960003FF17E
:100F1800E3F93F0E3901E517E585D29E550EE66FD8
:100F2800AA0EE66FE583E5B39CEF07F09EEF07F0A6
:100F380097EF07F0E59551B002D0D29E01D0D28E3E
:100F48001200000E0001AF6FFA0EAE6F000EB36F05
:100F5800FA0EB26F000EB56FFA0EB46F000EB96FCD
:100F6800FA0EB86F000EBB6FFA0EBA6F000EBF6FA5
:100F7800FA0EBE6F000EC16FFA0EC06F000EC56F7D
:100F8800FA0EC46F12006000A7F0E9FF49B6D6EF69
:100F980007F0EF46EF906000AFF0E8FF4860EF80A1
:100FA800DDEF07F06000AFF0E8FF4860E4EF07F01E
:100FB800EF90494EE1EF07F01200292A4986120006
:100FC800288E12004FC055F050C056F0F7EF07F0CA
:100FD800600057F1D9FF60005BF1DAFF600047F16C
:100FE800DFFF554A562A5306D8A05406532806E16F
:100FF8005428D8A402EF08F004EF08F0ECEF07F04B
:10100800120028B00AEF08F028AA1200600E6F003C
:10101800A0FF29F0289E289C289A2890496A49868A
:101028002F6A2D6A2E6A2A6A2B6A28882886C38422
:101038003F01D28F1F8F1200AA0E526E000E536E00
:10104800000E546E54505224D96E000E5320DA6E9E
:10105800DF504F6E545082EC07F0542A2C0E546423
:1010680038EF08F03AEF08F026EF08F012009C0E6F
:101078003F011E6FC30E1F6F000E206F000E216F01
:10108800000E236F000E226F1D691C691B69390150
:10109800918F919D3F011F8F12004F5051026F0099
:1010A800CCFF53F06F00D0FF54F04F505202F35072
:1010B800542650505102F350542653C04FF054C098
:1010C80050F0120000808080808000000202090039
:1010D80003C900C300B1000101E400AF00E800C883
:0B10E800008101FE007F006301FC009E
:1010F40055C04FF056C050F057C051F058C052F090
:1011040051EC08F0010E4F26000E50225050596E3B
:101114005A6A59501200000E3901C06F000EC16F97
:10112400000EC26F000EC36F000EC46F000EC56FB9
:10113400000EC66F000EC76F1200000083837D7D12
:1011440000006C008E01FC008C008101FE00830015
:05115400BFBE1A0808EF
:10115A004F6E60003FF1E0F93F0E3901E517E58176
:10116A0000F000F03901E3511200E0EC08F08DECD8
:10117A0008F08EEC06F0C7EC08F0FEEC06F03BEC4B
:10118A0008F01200600E3901D96F000EDB6F000EF5
:10119A00DD6F080EDF6F000EDE6F120049B6120017
:1011AA0028B212002AA01200289012004FC0FEF0A6
:1011BA0050C0FFF01200D28A3901818F819D12003E
:020000040020DA
:10000000FF0FFF0FFF0FFF0FFF0FFF0FFF0FFF0F80
:020000040030CA
:0A0000008CFFF7DF9FFFFFFFFFFFFB
:00000001FF
