:040000000DEF00F010
:0400080022EF0FF0E4
:10001800FF0063EF11F0020E3318D8A40AD0000EC7
:10002800496E800E4A6E000E4F6E000E506E030E23
:10003800336ECCB603D0056A052A01D0056A0538A7
:10004800F00B491208013351D8A425D0CCB003D005
:10005800056A052A01D0056AD8900536D890053674
:10006800D89005344912CABC03D0056A052A01D0C4
:10007800056AD8900536D89005344912CABE03D00F
:10008800056A052A01D0056AD89005344912CABA0A
:1000980025D0010E24D0CABC03D0056A052A01D098
:1000A800056AD8900536D8900536D8900534491297
:1000B800CCB003D0056A052A01D0056AD890053668
:1000C800D89005344912CABA03D0056A052A01D066
:1000D800056AD89005344912CAAEDBD7000E49121A
:1000E80008012B51D8A43ED0CCBA03D0056A052A02
:1000F80001D0056A060E066ED8900536062EFCD786
:1001080005504A12CCAA04D0000E086E000E03D087
:10011800000E086E800E076E07504F12CCB803D041
:10012800056A052A01D0056A050E066ED8900536BF
:10013800062EFCD705504A12CCA804D0000E0A6E31
:10014800000E03D0000E0A6E800E096E0950501280
:10015800CBBA03D0056A052A01D0056A0538F00B29
:100168004A128AD02B05D8A443D0CCBA03D0056A4A
:10017800052A01D0056A060E066ED8900536062EA9
:10018800FCD705504A12CCAA04D0000E0C6E000E03
:1001980003D0000E0C6E800E0B6E0B504F12CCB8B5
:1001A80003D0056A052A01D0056A050E066ED890A7
:1001B8000536062EFCD705504A12CCA804D0000EEE
:1001C8000E6E000E03D0000E0E6E800E0D6E0D50DA
:1001D8005012CCA204D0000E106E000E03D0000EF8
:1001E800106E800E0F6E0F505012CBBAE4D046D06E
:1001F800020E2B19D8A445D0CCBA03D0056A052A1B
:1002080001D0056A060E066ED8900536062EFCD774
:1002180005504A12CCAA04D0000E126E000E03D06C
:10022800000E126E800E116E11504F12CBAA04D020
:10023800000E146E000E03D0000E146E800E136EA6
:1002480013504F12CCB803D0056A052A01D0056AAD
:10025800050E066ED8900536062EFCD705504A12B4
:10026800CCA804D0000E166E000E03D0000E166E39
:10027800800E156E15505012CCB29DD0056A052A15
:100288009BD0030E2B19D8A44DD0CCBA03D0056A45
:10029800052A01D0056A060E066ED8900536062E88
:1002A800FCD705504A12CCAA04D0000E186E000ED6
:1002B80003D0000E186E800E176E17504F12CBAA7F
:1002C80004D0000E1A6E000E03D0000E1A6E800EB7
:1002D800196E19504F12CCB803D0056A052A01D0FF
:1002E800056A050E066ED8900536062EFCD7055011
:1002F8004A12CCA804D0000E1C6E000E03D0000ECB
:100308001C6E800E1B6E1B505012CCA204D0000E27
:100318001E6E000E03D0000E1E6E800E1D6E1D5048
:1003280050124DD0040E2B19D8A449D0CCBA03D002
:10033800056A052A01D0056A060E066ED8900536AC
:10034800062EFCD705504A12CCAA04D0000E206E07
:10035800000E03D0000E206E800E1F6E1F504F122D
:10036800CCB803D0056A052A01D0056A050E066EC9
:10037800D8900536062EFCD705504A12CCA804D0D2
:10038800000E226E000E03D0000E226E800E216E2B
:1003980021505012CBB203D0056A052A01D0056A54
:1003A8000538F00B4A12CBBA02D0010E01D0000E6C
:1003B8004A12CCA263D7056A0538F00B4A12CCBCA6
:1003C80003D0056A052A01D0056AD8900536D89069
:1003D8000536D89005344A12CCBE03D0056A052AE2
:1003E80001D0056AD8900536D89005344A12CBB0AA
:1003F80003D0056A052A01D0056AD89005344A1247
:10040800040E08012B19D8B41200CBB202D0010E89
:1004180001D0000E4A121200156E31D115502AD1A2
:100428001550080D6F00CCFF0DF06F00D0FF0EF0D7
:100438000B500D24056E000E0E20066E000E086E81
:100448001C0E076E13EC12F014D01550050D6F003A
:10045800CCFF0DF06F00D0FF0EF00B500D24056E91
:10046800000E0E20066E000E086E2A0E076E13ECA4
:1004780012F006C005F0066A05BE066805C011F050
:1004880006C012F027D01550030D6F00CCFF0DF0F9
:100498006F00D0FF0EF00B50B4D01550020D6F0056
:1004A800CCFF0DF06F00D0FF0EF015C00FF0D89004
:1004B8000F320F500D26000E0E220B500D24056E24
:1004C800000E0E20066E000E086E490E076E13EC25
:1004D80012F0CFD7000E12BEFF0E136E146E05D1A8
:1004E8001550020D6F00CCFF0DF06F00D0FF0EF01D
:1004F8000B500D24056E000E0E20066E000E086EC1
:10050800550E076E13EC12F0B4D715C00DF0D89045
:100518000D320D5015C00EF00F6A0E26000E0F2278
:100528000B500E24056E000E0F20066E000E086E8E
:10053800660E076E13EC12F09CD70B5015C00DF029
:100548000E6A0D26000E0E220E340E30106E0D307F
:100558000F6E0FC011F010C012F0BCD70BC00DF019
:10056800D8900D320D500BC00EF00F6A0E26000EFB
:100578000F2215500E24056E000E0F20066E000E79
:10058800086E660E076E13EC12F073D70B50020D4F
:100598006F00CCFF0DF06F00D0FF0EF015500D244A
:1005A800056E000E0E20066E000E086E550E076EC4
:1005B80013EC12F05ED70B50020D6F00CCFF0DF05C
:1005C8006F00D0FF0EF00BC00FF0D8900F320F5015
:1005D8000D26000E0E2215500D24056E000E0E205D
:1005E800066E000E086E490E076E13EC12F041D726
:1005F8000B50030D6F00CCFF0DF06F00D0FF0EF015
:1006080015500D26000E0E220E340E320D320E3409
:100618000E320D320DC011F00EC012F05BD70B5028
:10062800050D6F00CCFF0DF06F00D0FF0EF01550D8
:100638000D24056E000E0E20066E000E086E2A0EA2
:10064800076E13EC12F015D70B50080D6F00CCFF96
:100658000DF06F00D0FF0EF015500D24056E000E42
:100668000E20066E000E086E1C0E076E13EC12F0BC
:1006780000D70B50116E126A136A146A36D00C50E8
:100688000D6E0E6A0E50000AD8A4C8D60D50000A86
:10069800D8B4C4D6010AD8B4C3D6030AD8B4D5D6B8
:1006A800010AD8B4F0D6070AD8B4F7D6010AD8B4E4
:1006B80017D7030AD8B429D7010AD8B43ED70F0AE6
:1006C800D8B44CD7010AD8B461D7030AD8B473D7C1
:1006D800010AD8B48DD7070AD8B4A1D7010AD8B46B
:1006E800B3D7030AD8B4C5D799D600F01150120071
:1006F80008013551D8A411D03B0E3E01F16FF881A5
:10070800F8B1FED7020EF16FF881000E0801346FC0
:10071800000E366F010E356F12003E01F8B112005F
:1007280008013651D8A413D02DD0030E03D0000EE3
:1007380001D0010E3E01F16F1ED04FEC0CF0020EFD
:10074800336E000E0801356F000E366F12003451FB
:100758001E6E1F6A1F50000AD8A40DD01E50000A32
:10076800D8B4E3D7010AD8B4E2D7030AD8B4E1D79A
:10077800010AD8B4E2D70801342B000E366F3E01C7
:10078800F8811200010E366F3E01EF516F00C0FB79
:100798001EF01F6A1EC01FF01E6A1E26000E1F22B2
:1007A800D8901F321E32D8901F321E32D8901F3276
:1007B8001E321EC020F01FC021F0600080F037F804
:1007C800600084F038F83B0EF16FF88154D007C808
:1007D80039F808C83AF803C83BF804C83CF805C813
:1007E8003DF806C83EF81BC83FF81CC840F81DC8AD
:1007F80041F81EC842F854D00DC839F80EC83AF866
:1008080009C83BF80AC83CF80BC83DF80CC83EF8C4
:100818001FC83FF820C840F821C841F822C842F84C
:100828003FD013C839F814C83AF80FC83BF810C8B5
:100838003CF811C83DF812C83EF823C83FF824C850
:1008480040F825C841F826C842F82AD019C839F80E
:100858001AC83AF815C83BF816C83CF817C83DF846
:1008680018C83EF827C83FF828C840F829C841F8F2
:100878002AC842F815D0080134511E6E1F6A1F504D
:10088800000AD8A40DD01E50000AD8B4A0D7010A77
:10089800D8B4B2D7030AD8B4C4D7010AD8B4D6D7C3
:1008A8002F513D251E6E000E3E211F6E37511E5CD6
:1008B80038511F58D8B029D02F513D27000E3E235C
:1008C8003D07D8A03E073951375D3A513859D8A06D
:1008D80007D034514B0FD96EDA6AE40EDF6E12007E
:1008E80034514B0FD96EDA6A3D51375D0B6E3E516C
:1008F80038590C6E6200FCF00DF0620000F10EF049
:1009080064EC12F0810FDF6E12002F513D5D1E6EF8
:10091800000E3E591F6E1E50375D1F503859D8B013
:100928002BD02F513D5F000E3E5B3D07D8A03E0700
:1009380037513B5D38513C59D8A007D034514B0F43
:10094800D96EDA6A1C0EDF6E120034514B0FD96E65
:10095800DA6A37513D5D0B6E38513E590C6E6200B4
:1009680004F10DF0620008F10EF064EC12F01E6E56
:100978001E507F08DF6E120034514B0FD96EDA6AB1
:100988007F0EDF6E1200EAD0000E12000B5012002C
:10099800D8900C300F6E0B300E6E0E5012000BC03C
:1009A80005F00CC006F0000E086E550E076E13EC2D
:1009B80012F005C011F006C012F0136A146A125042
:1009C80012000BC00EF00CC00FF0D8900F320E3290
:1009D800D8900F320E320E5012000BC005F00CC02A
:1009E80006F0000E086E330E076E13EC12F0E1D716
:1009F8000BC005F00CC006F0000E086E2B0E076E3B
:100A080013EC12F0D6D70BC005F00CC006F0000EA0
:100A1800086E250E076E13EC12F0CBD70BC00EF044
:100A28000CC00FF0D8900F320E32D8900F320E3221
:100A3800D8900F320E320E5012000BC005F00CC0C9
:100A480006F0000E086E1C0E076E13EC12F0B1D7FC
:100A58000BC005F00CC006F0000E086E190E076EEC
:100A680013EC12F0A6D70BC005F00CC006F0000E70
:100A7800086E170E076E13EC12F09BD70BC005F02B
:100A88000CC006F0000E086E150E076E13EC12F07F
:100A980090D70BC005F00CC006F0000E086E140EBF
:100AA800076E13EC12F085D70BC005F00CC006F0EA
:100AB800000E086E120E076E13EC12F07AD70BC0F8
:100AC80005F00CC006F0000E086E110E076E13EC50
:100AD80012F06FD70BC00EF00CC00FF0040E106EA2
:100AE800D8900F320E32102EFBD70E5012000BC0CA
:100AF80005F00CC006F0000E086E0F0E076E13EC22
:100B080012F057D70BC005F00CC006F0000E086EA7
:100B18000E0E076E13EC12F04CD70BC005F00CC08C
:100B280006F0000E086E0D0E076E13EC12F041D79A
:100B38000BC005F00CC006F0000E086E0C0E076E18
:100B480013EC12F036D70BC005F00CC006F0000EFF
:100B5800086E0B0E076E13EC12F02BD70D500E6EAD
:100B68000F6A0F50000AD8A411D70E50000AD8B443
:100B78000BD7010AD8B40AD7030AD8B409D7010A8F
:100B8800D8B40DD7070AD8B41CD7010AD8B425D7CA
:100B9800030AD8B42DD7010AD8B435D70F0AD8B468
:100BA8003DD7010AD8B449D7030AD8B451D7010AA6
:100BB800D8B459D7070AD8B461D7010AD8B469D7C5
:100BC800030AD8B471D7010AD8B479D71F0AD8B4A0
:100BD80081D7010AD8B48BD7030AD8B493D7010AAE
:100BE800D8B49BD7070AD8B498D7010AD8B4A0D7E5
:100BF800030AD8B4A8D7CAD651EC12F0ABEC11F05E
:100C0800DCEC12F0000E3E01F16FF88FAEEC10F044
:100C1800000E0801326F000E336F2B45010B3313A2
:100C2800CCAACCB806D03341800B2B6FE4EC11F082
:100C38002CD0CCAACBBA05D03351800DF350020F7B
:100C4800F4D7CCA8CCB204D03351800DF328EDD71B
:100C5800CCA2CBBA05D03351800DF350030FE5D7A2
:100C6800CABE05D03351800DF350040FDED7CCB087
:100C78000CD03351D8A402D0010E01D0000E336F2E
:100C88002B9F3341800B2B13D1D7CAA8CCB605D0E4
:100C980099EC0FF0E4EC11F034D0CCB609D008018F
:100CA8002C51D8A402D0010E01D0000E2C6FF2D71F
:100CB800CAB827D0010E0801326F620E246E670E83
:100CC800236ECE0EE82EFED7232EFCD7242EFAD77D
:100CD8007DEC0BF016D0CCB60AD0CFEC0DF0E4ECDE
:100CE80011F0AEEC10F0000E0801326F0ED09DEC42
:100CF8000AF0150E236EC60EE82EFED7232EFCD75B
:100D080000D008013205D8B4E6D7290E246E960E15
:100D1800236E7F0EE82EFED7232EFCD7242EFAD77B
:100D280000F008012B9FD28E948E090E3918D8A492
:100D380010D0410E3518D8A40CD0D29E3F011F9F69
:100D480055EC08F029D0000E356E29D0000E336E10
:100D58002AD0190E3918D8A406D0D29E3F011F9F59
:100D680055EC08F019D0090E3918D8A409D0355017
:100D7800D8A406D0D29E3F011F9F79EC09F00CD071
:100D8800090E3918D8A411D03528D8A40ED0D29E6F
:100D98003F011F9F79EC09F0000E396ED4D73F014F
:100DA800208D00F0D3D7D28E16D0190E3918D8A4BA
:100DB80015D0400E3518D8A411D0D29E3F011F9FE0
:100DC8002FEC07F0000E396E000E356E3F01208DB6
:100DD80000F0010EBCD73F011F8F1ED0090E3964E9
:100DE8001BD035BC19D03901A19F3F01208F208D20
:100DF80000F03901918F949E000E396E000E356E09
:100E0800000E336E000E346E000E326E28EC12F0B7
:100E1800D28E3F011F8F948E3350D8B486D73404B6
:100E2800D8A408D008012C51D8B404D0CB88F00E2F
:100E38007D6E01D0CB983304D8B47CEC03F0020E5D
:100E48003318D8B403D0030E3318D8B40FEC00F01D
:100E580016EC0DF06AD70001490EE96E080E3B6FDB
:100E68003F01D29F000000010000000000000000C8
:100E78000000000000000000C3946F00BCFF3CF0BD
:100E8800566B5687CB943CAF84EF07F0564FF5EF7F
:100E980007F0000000000000000000000000000053
:100EA800000000000000CB840000000000000000EB
:100EB800000000000000000000000000000000002A
:100EC800000000000000000000000000000000001A
:100ED800000000000000000000000000000000000A
:100EE80000000000000000000000000000000000FA
:100EF800000000000000000000000000BDEF07F047
:100F0800564F25EF08F00000000000000000000028
:100F180000000000000000000000000000000000C9
:100F280000000000000000000000000000000000B9
:100F380000000000000000000000000000000000A9
:100F48000000000000000000000000000000000099
:100F580000000000000000000000CB84000000003A
:100F68000000000000000000000000000000000079
:100F780000003C3746EF07F0E92A3B2F41EF07F026
:100F88000000000000000000000000000000000059
:100F980000000000CB9400000000000000000000EA
:100FA8000000000000000000000000000000000039
:100FB8000000000000000000000000000000000029
:100FC8000000000000000000000000000000000019
:100FD8000000000000000000CB843F01D28FC384D2
:100FE80012000000000000000000000000000000E7
:100FF800000000000000CB8400000000000000009A
:1010080000000000000000000000000000000000D8
:1010180000000000000000000000000000000000C8
:1010280000000000000000000000000000000000B8
:101038000000000000000000000000000000C0EFF9
:1010480007F00000000000000000000000000000A1
:101058000000000000000000000000000000000088
:101068000000000000000000000000000000000078
:101078000000000000000000000000000000000068
:101088000000000000000000000000000000000058
:10109800000000000000CB8400000000C0EF07F053
:1010A800120000013F0EE96E0A0E3B6F3F01D29F0E
:1010B8000000000100000000000000000000000027
:1010C80000000000C3946F00BCFF3CF0566B5687CD
:1010D800CB943CAFA9EF08F0564F19EF09F0000088
:1010E80000000000000000000000000000000000F8
:1010F800CB84000000000000000000000000000099
:1011080000000000000000000000000000000000D7
:1011180000000000000000000000000000000000C7
:1011280000000000000000000000000000000000B7
:1011380000000000000000000000000000000000A7
:10114800000000000000E1EF08F0564F49EF09F0F9
:101158000000000000000000000000000000000087
:101168000000000000000000000000000000000077
:101178000000000000000000000000000000000067
:101188000000000000000000000000000000000057
:101198000000000000000000000000000000000047
:1011A8000000CB84000000000000000000000000E8
:1011B800000000000000000000003C376CEF08F061
:1011C800E92A3B2F67EF08F000000000000000004C
:1011D800000000000000000000000000CB940000A8
:1011E80000000000000000000000000000000000F7
:1011F80000000000000000000000000000000000E7
:1012080000000000000000000000000000000000D6
:1012180000000000000000000000000000000000C6
:10122800CB843F01D28FC38412000000000000006D
:101238000000000000000000000000000000CB8457
:101248000000000000000000000000000000000096
:101258000000000000000000000000000000000086
:101268000000000000000000000000000000000076
:101278000000000000000000000000000000000066
:10128800000000000000E4EF08F00000000000008B
:101298000000000000000000000000000000000046
:1012A8000000000000000000000000000000000036
:1012B8000000000000000000000000000000000026
:1012C8000000000000000000000000000000000016
:1012D8000000000000000000000000000000CB84B7
:1012E80000000000E4EF08F012000001510EE96E62
:1012F800030E3B6F3F01D29F000000010000000079
:10130800000000000000000000000000C3946F000F
:10131800BCFF3CF0566B5687CB943CAFCDEF09F041
:10132800564F3DEF0AF000000000000000000000EA
:101338000000000000000000CB8400000000000056
:101348000000000000000000000000000000000095
:101358000000000000000000000000000000000085
:101368000000000000000000000000000000000075
:101378000000000000000000000000000000000065
:10138800000000000000000000000000000005EF61
:101398000AF0564F6DEF0AF0000000000000000050
:1013A8000000000000000000000000000000000035
:1013B8000000000000000000000000000000000025
:1013C8000000000000000000000000000000000015
:1013D8000000000000000000000000000000000005
:1013E80000000000000000000000CB8400000000A6
:1013F80000000000000000000000000000000000E5
:1014080000003C3790EF09F0E92A3B2F8BEF09F0F9
:1014180000000000000000000000000000000000C4
:1014280000000000CB940000000000000000000055
:1014380000000000000000000000000000000000A4
:101448000000000000000000000000000000000094
:101458000000000000000000000000000000000084
:101468000000000000000000CB843F01D28FC3843D
:101478001200000000000000000000000000000052
:10148800000000000000CB84000000000000000005
:101498000000000000000000000000000000000044
:1014A8000000000000000000000000000000000034
:1014B8000000000000000000000000000000000024
:1014C800000000000000000000000000000008EF1D
:1014D8000AF000000000000000000000000000000A
:1014E80000000000000000000000000000000000F4
:1014F80000000000000000000000000000000000E4
:1015080000000000000000000000000000000000D3
:1015180000000000000000000000000000000000C3
:10152800000000000000CB840000000008EF0AF073
:10153800120008013551D8A411D03B0E3E01F16FBD
:10154800F881F8B1FED7020EF16FF881000E08019C
:10155800346F000E366F010E356F12003E01F8B180
:10156800120008013651D8A40ED028D0030E03D09B
:10157800000E01D0010E3E01F16F19D0000E356F3B
:10158800000E366F12003451056E066A0650000AC6
:10159800D8A40DD00550000AD8B4E8D7010AD8B4A9
:1015A800E7D7030AD8B4E6D7010AD8B4E7D70801C1
:1015B800342B000E366F3E01F8811200010E366F93
:1015C8003E01EF516F00C0FB05F0066A05C006F04A
:1015D800056A0526000E0622D89006320532D890F4
:1015E80006320532D89006320532600014F037F81A
:1015F800600018F038F83B0EF16FF88164D037516D
:10160800075D38510859D8B004D037C807F838C82A
:1016180008F80351375D04513859D8B004D037C899
:1016280003F838C804F837C805F838C806F81200AF
:1016380037510D5D38510E59D8B004D037C80DF860
:1016480038C80EF80951375D0A513859D8B004D056
:1016580037C809F838C80AF837C80BF838C80CF87A
:1016680012003751135D38511459D8B004D037C817
:1016780013F838C814F80F51375D10513859D8B0DD
:1016880004D037C80FF838C810F837C811F838C868
:1016980012F812003751195D38511A59D8B004D0D0
:1016A80037C819F838C81AF81551375D165138591E
:1016B800D8B004D037C815F838C816F837C817F89E
:1016C80038C818F8120008013451056E066A065029
:1016D800000AD8A412000550000AD8B490D7010A0D
:1016E800D8B4A6D7030AD8B4BCD7010AD8A4120024
:1016F800D1D73B0E3E01F16FF881F8B1FED7020E4B
:10170800F16FF881F8B1FED7EF516F00C0FB05F01B
:10171800066A05C006F0056A0526000E0622D8905E
:1017280006320532D89006320532D8900632053294
:1017380005C007F006C008F060001CF007F860005C
:1017480020F008F860001CF003F8600020F004F8AE
:1017580060001CF005F8600020F006F83B0EF16F01
:10176800F881F8B1FED7030EF16FF881F8B1FED712
:10177800EF516F00C0FB05F0066A05C006F0056A68
:101788000526000E0622D89006320532D890063279
:101798000532D8900632053205C007F006C008F0B9
:1017A80060001CF00DF8600020F00EF860001CF0DE
:1017B80009F8600020F00AF860001CF00BF86000DF
:1017C80020F00CF83B0EF16FF881F8B1FED7000E4F
:1017D800F16FF881F8B1FED7EF516F00C0FB05F04B
:1017E800066A05C006F0056A0526000E0622D8908E
:1017F80006320532D89006320532D89006320532C4
:1018080005C007F006C008F060001CF013F860007F
:1018180020F014F860001CF00FF8600020F010F8B9
:1018280060001CF011F8600020F012F83B0EF16F18
:10183800F881F8B1FED7010EF16FF881F8B1FED743
:10184800EF516F00C0FB05F0066A05C006F0056A97
:101858000526000E0622D89006320532D8900632A8
:101868000532D8900632053205C007F006C008F0E8
:1018780060001CF019F8600020F01AF860001CF0F5
:1018880015F8600020F016F860001CF017F86000EA
:1018980020F018F812003FEC10F02F50D8A431D0E7
:1018A8002C504B026F00CCFF27F06F00D0FF28F0C0
:1018B8002C504C026F00CCFF25F06F00D0FF26F0B3
:1018C800000E306E2C04546E010E2F6E4BC02EF09D
:1018D8004CC02DF0000E1D6E0FD01D50760FD96E26
:1018E800DA6A60002FF1DFFF1D50600FD96EDA6AE7
:1018F800600033F1DFFF1D2A2C501D5CD8B01200A8
:10190800ECD73050760FD96EDA6ADF50166E165063
:10191800275E000E285A3050600FD96EDA6ADF5001
:10192800166E1650255E000E265A542A5450166E0E
:10193800176AFF0E186EFF0E196E2C501A6E1B6A6E
:1019480018501A2619501B2216501A5C1B50800A70
:101958001C6E1750800A1C58D8B002D0000E546E66
:101968004B502726000E28225450760FD96EDA6A7B
:1019780060002FF1DFFF4C502526000E2622545020
:10198800600FD96EDA6A600033F1DFFF302A305019
:10199800166E176AFF0E186EFF0E196E2C501A6E0F
:1019A8001B6A18501A2619501B2216501A5C1B5015
:1019B800800A1C6E1750800A1C58D8B002D0000E3E
:1019C800306E27C00BF028C00CF02CC00DF0C7EC0F
:1019D80004F02E6E25C00BF026C00CF02CC00DF0C4
:1019E800C7EC04F02D6E810E4B6003D07E0E4B6069
:1019F80009D02EC00BF06200B4F00CF04B5010EC84
:101A080002F04B6E810E4C6003D07E0E4C601200CB
:101A18002DC00BF06200B8F00CF04C5010EC02F046
:101A28004C6E1200CAB821D02950D8A41ED0CCB20E
:101A380003D0020E296E1200CBBA03D0030E296E12
:101A48001200CCBA03D0050E296E1200CCB803D010
:101A5800040E296E1200CCBC03D0070E296E1200AA
:101A6800CCBE1200060E296E12002950D8B41200FE
:101A7800CCA20ED0020E2918D8A40AD008012D2B0A
:101A88000E0E2D6502D00E0E2D6F080E296E120057
:101A9800CBAA0CD0030E2918D8A408D008012D51C0
:101AA800D8A402D0000EF0D72D07EFD7CCA80BD0C2
:101AB800050E2918D8A407D008012E2B0E0E2E6566
:101AC800E4D70E0E0BD0CCAA0DD0040E2918D8A43A
:101AD80009D008012E51D8A403D0000E2E6FD5D7F7
:101AE8002E07D3D7CCAC0CD0070E2918D8A408D011
:101AF800040E08012F271B0E2F65C7D71C0E10D008
:101B0800CCAE10D0060E2918D8A40CD0040E0801AB
:101B18002F5F2F51D8B403D01C0E2F65B6D7000EF7
:101B28002F6FB3D7080E2918D8A41200D29E3F01F0
:101B38001F9FCFEC0DF0E4EC11F00A0E196E580E51
:101B4800E82EFED7192EFCD700D0AEEC10F00A0E06
:101B5800196E580EE82EFED7192EFCD700D0000EAD
:101B6800296E3901A19F3F01208F208D00F0390196
:101B7800918F949E000E396E000E356E000E336EF6
:101B8800000E346E000E326E28EC12F0D28E3F0139
:101B98001F8F948E120062001CF00CF0620020F07F
:101BA8000DF008012F5105250E6E000E06210F6E4F
:101BB80010EC11F0600030F01BF8600034F01CF8F5
:101BC80008012F51055D0C6E0651D8A006050D6E53
:101BD80062000CF00EF0620010F00FF010EC11F043
:101BE800600030F01DF8600034F01EF862004CF020
:101BF8000CF0620050F00DF008012F5111250E6E07
:101C0800000E12210F6E10EC11F0600030F023F876
:101C1800600034F024F808012F51115D0C6E125148
:101C2800D8A012050D6E62003CF00EF0620040F084
:101C38000FF010EC11F0600030F025F8600034F07F
:101C480026F8620034F00CF0620038F00DF008015C
:101C58002F510B250E6E000E0C210F6E10EC11F09B
:101C6800600030F01FF8600034F020F808012F51B0
:101C78000B5D0C6E0C51D8A00C050D6E620024F0A3
:101C88000EF0620028F00FF010EC11F0600030F058
:101C980021F8600034F022F8620064F00CF0620071
:101CA80068F00DF008012F5117250E6E000E18214F
:101CB8000F6E10EC11F0600030F027F8600034F07F
:101CC80028F808012F51175D0C6E1851D8A0180577
:101CD8000D6E620054F00EF0620058F00FF010EC38
:101CE80011F0600030F029F8600034F02AF8120092
:101CF80005C00FF006C010F009500A10D8B4120041
:101D080060003FF0D9FF600043F0DAFF60001FF089
:101D1800DFFF09500F240B6E0A5010200C6EFF0EC7
:101D28000B24D96EFF0E0C20DA6E60001FF0DFFF67
:101D38000A5004E1030E095CD8A0120020EE01F05D
:101D48000F50D9261050DA2260001FF0DFFF20EE76
:101D580002F00F50D9261050DA2260001FF0DFFF82
:101D680009500F240B6E0A5010200C6EFE0E0B2427
:101D7800D96EFF0E0C20DA6E60001FF0DFFF0950ED
:101D88000F240B6E0A5010200C6EFD0E0B24D96E1A
:101D9800FF0E0C20DA6E60001FF0DFFF0A5004E12E
:101DA800070E095CD8A0120020EE03F00F50D926C8
:101DB8001050DA2260001FF0DFFF09500F240B6E6D
:101DC8000A5010200C6EFC0E0B24D96EFF0E0C204E
:101DD800DA6E60001FF0DFFF0A5004E1090E095CAB
:101DE800D8A012000FC00BF010C00CF00B1E0C1E78
:101DF8000B4A0C2A030E0B140D6E0E6A0D500F269B
:101E08000E5010220D50095E0E500A5AFC0E09168B
:101E1800FF0E0A160ED060003FF0D9FF600043F0B5
:101E2800DAFF60001FF0DFFF0906D8A00A060F4A94
:101E3800102A09500A10D8B41200EDD76F0060FCC0
:101E480031F0390191BFA1AF57D0A19F000E926E1A
:101E58003250D8B451D0000126D0354731515561A0
:101E6800358147D031515561348143D000F03F016D
:101E78001F9F3901A19F3F01208F208D00F039015C
:101E8800918F949E000E396E000E356E000E336EE3
:101E9800000E346E000E326E3DEC12F0D28E3F0111
:101EA8001F8F948E26D03950036E046A0450000A9E
:101EB800D8A41FD00350000AD8B4CFD7010AD8B489
:101EC800CCD7030AD8B4C9D7010AD8B4C6D7070AE9
:101ED800D8B4C3D7010AD8B4C0D7030AD8B4BDD779
:101EE800010AD8B4BAD7100AD8B4BCD70D0AD8B4E6
:101EF800BDD70001392B00F0390199A31100A9A31E
:101F08001100A9933250D8A411003F011F9F00F07F
:101F18003901A19F3F01208F208D00F0010E326E04
:101F2800390199933F011F8F1100000E0801016FBD
:101F3800000E006F4A0E026F000E046F5E0E036FF4
:101F4800000E066FFE0E056F010E086F7E0E076FFE
:101F5800000E0A6F7C0E096F000E0C6F0B69010EE4
:101F68000E6F9F0E0D6F000E106F6C0E0F6F000E30
:101F7800126FEC0E116F010E146F810E136F000EAD
:101F8800166F5F0E156F000E186FEC0E176F010EAF
:101F98001A6F7C0E196F000E1C6FE30E1B6F000E7C
:101FA8001E6FB00E1D6F000E206FA30E1F6F000E68
:101FB800226FE30E216F000E246FC00E236F000EF8
:101FC800266FE30E256F000E286FC20E276F000ED6
:101FD8002A6FCC0E296F000E2D6F000E2E6FCFECDE
:101FE8000DF0000E08012B6F000E2C6F100E2F6FD6
:101FF8001200000E0A6E08AE06D0076C081ED8B094
:10200800082A010E0A6E06AE06D0056C061ED8B068
:10201800062A010E0A1A000E0C6E000E0B6E0750EF
:102028000810D8B41CD0010E096E04D0D890073619
:102038000836092A08AEFAD7D8900B360C3607505E
:10204800055C08500658D8A005D00750055E085012
:10205800065A0B80D89008320732092EEDD70A505D
:10206800D8B404D00B6C0C1ED8B00C2A0BC005F0E9
:102078000CC006F012006F0048FE0DF00E6A000E4C
:10208800926E3D500D5C056E3E500E58066ECBECC0
:1020980011F006BE27D0065004E1050E055CD8A055
:1020A80021D00DC03DF00EC03EF03EBE06D03E50E1
:1020B80006E10E0E3D5CD8B002D0160E10D03901E4
:1020C800A9A302D0010E0BD0010E066E200E056EDC
:1020D8003DC007F03EC008F0FDEC0FF005502C6E37
:1020E800000E2F6E3901A9931200F00EBA6E270E5A
:1020F800BB6EFB0EBC6EC268E70EC36EC468000EF2
:102108003A01606F000E506F0F0E406F000E816F26
:10211800230E516FF00E416FFB0E616F000E426F80
:10212800000E526F000E626F436953696369446918
:1021380054696469080E846F579556855595000E45
:10214800056E000E066ECDEC12F0090E0B6F0A0E2E
:10215800D26F1200000E056E080E066E000E086E95
:10216800000E076E000E0A6E300E096E7CEC0EF043
:10217800000E166E080E176E000E186E040018502A
:102188001624D96E000E1720DA6E18C005F0066AFC
:1021980087EC12F0DF6E020E1818D8A40AD04A0E87
:1021A80008010219D8B405D099EC0FF0E4EC11F04D
:1021B8001200182A2F0E1864E1D71200000E3E01F3
:1021C800DE6F000EDF6F000EE06F000EE16F000E95
:1021D800E46F000EE56F000EEA6F000EEC6F000E64
:1021E800F16F180EF36F000EF46F000EF56F000E0E
:1021F800F66F000EF76F010EF96F000EFA6F000E02
:10220800FB6F000EFC6F000EFD6F000EFE6F010EDF
:10221800FF6F840EF86F12000E500C5C106E0F509A
:102228000D58116E10C007F011C008F0270E066E89
:10223800100E056E3AEC11F005C006F0056A05C0EF
:1022480014F006C015F014C005F015C006F0000E15
:10225800086E640E076E3AEC11F005C012F006C065
:1022680013F012C00CF013C00DF01200000E0A6E2D
:10227800000E096E07500810D8B41CD0010E0B6E62
:1022880004D0D890073608360B2A08AEFAD7D8906B
:1022980009360A360750055C08500658D8A005D0FC
:1022A8000750055E0850065A0980D8900832073250
:1022B8000B2EEDD709C005F00AC006F01200480E33
:1022C800F66E250EF76E000EF86E00EE3FF010EE7B
:1022D80018F009006F00D7FFEEFFE550E150F9E173
:1022E80000EE60F02C0EEE6AE806FDE100EE25F047
:1022F8001A0EEE6AE806FDE1080ED56E000ED66EDF
:10230800000ED76E000EF86E000100EF06F0000E0A
:10231800D2BE010E086E0650030B3901E16F600052
:1023280017F0E0F960001FF0E3F93F0EE517E585C7
:10233800D29E550EE66FAA0EE66FE583E5B3FED78B
:10234800E59508B002D0D29E01D0D28E1200000EC0
:102358000801346F000E356F000E366F000E386FAF
:10236800000E376F000E3A6F000E396F000E3C6F8B
:10237800000E3B6F000E3E6F000E3D6F000E406F6B
:10238800000E3F6F000E426F000E416F120006BE36
:1023980005D0065010E10504D8B00DD005C007F0EF
:1023A80006C008F0071E081E074A082A07C005F0DD
:1023B80008C006F0120005C005F006C006F01200BD
:1023C800000E096E080E0A6E000E0B6E0BC005F0AB
:1023D800066A0B500924D96E000E0A20DA6EDF5007
:1023E800076E8BEC11F00B2A2F0E0B64EFD712003F
:1023F800990E3F011E6FC30E1F6F000E206F010E56
:10240800216F0A0E236F000E226F1D691C691B695C
:10241800208F208D3901918F3F011F8F12000550A9
:1024280007026F00CCFF09F06F00D0FF0AF00550DB
:102438000802F3500A2606500702F3500A2609C07C
:1024480005F00AC006F01200020E966E600E956E38
:10245800000E976E9368000E926E3901A9939983C6
:10246800000E056E000E066EC8EC12F0F00E946EAB
:102478001200020E966E600E956E000E976E9368AF
:10248800000E926EA9939983000E016E000E026EE3
:10249800D7EC12F0F00E946E1200D2EC12F076EC3B
:1024A80012F079EC10F0BCEC12F0B0EC12F028EC61
:1024B80012F0E2EC10F096EC12F0FCEC11F01200C5
:1024C800010E0D24056E000E0E20066E0BC007F0DF
:1024D8000CC008F013EC12F006500801436F446B6F
:1024E80043511200000EC06F000EC16F000EC26F84
:1024F800000EC36F000EC46F000EC56F000EC66FCE
:10250800000EC76F12000650030B3901E16F60001F
:1025180017F0E0F93F0EE517E58100F000F039010A
:10252800E3511200010EA26E000EA16E000EA36E02
:102538009F68000E9E6E3901A895800EA06E12004D
:10254800008080808080000002020080808080807F
:1025580000000900031664089C0E7E6EF00E7D6E66
:10256800000E7C6E3F015E51FC0B02095E6F12008B
:10257800600E3901D96F000EDB6F000EDD6F080E9B
:10258800DF6F000EDE6F120005C057F006C058F06E
:10259800120005C059F006C05AF01200D28A39015B
:1025A8008983818F120001C057F002C058F01200D1
:0625B8005F0E556E1200DB
:020000040020DA
:10000000FF0FFF0FFF0FFF0FFF0FFF0FFF0FFF0F80
:020000040030CA
:0A0000008CFFF7FF9FFFFFFFFFFFDB
:00000001FF
