:040000000DEF00F010
:04000800E8EF0BF022
:10001800FF00FFEF0CF03DB214EF00F016EF00F018
:100028001FEF00F0000E2F6E800E306E000E356E42
:10003800000E366E3D82CCA624EF00F028EF00F0CB
:10004800056A052A29EF00F0056A0538F00B2F121A
:100058004650D8A432EF00F034EF00F06DEF00F016
:10006800CCA039EF00F03DEF00F0056A052A3EEF1D
:1000780000F0056AD8900536D8900536D890053432
:100088002F12CAAC4AEF00F04EEF00F0056A052ABD
:100098004FEF00F0056AD8900536D89005342F1236
:1000A800CAAE59EF00F05DEF00F0056A052A5EEF71
:1000B80000F0056AD89005342F12CAAA66EF00F03E
:1000C80069EF00F0010E6AEF00F0000E2F12A4EFA6
:1000D80000F0CAAC72EF00F076EF00F0056A052A6E
:1000E80077EF00F0056AD8900536D8900536D89095
:1000F80005342F12CCA083EF00F087EF00F0056ADB
:10010800052A88EF00F0056AD8900536D89005349E
:100118002F12CAAA92EF00F096EF00F0056A052A9E
:1001280097EF00F0056AD89005342F12CAAE9FEFFA
:1001380000F0A2EF00F0010EA3EF00F0000E2F1266
:100148000301F851D8A4ABEF00F0ADEF00F015EFC4
:1001580001F0CCAAB2EF00F0B6EF00F0056A052A6C
:10016800B7EF00F0056A060E066ED8900536062E23
:10017800B9EF00F005503012CCAAC5EF00F0C7EF78
:1001880000F0CDEF00F0000E086E000E076ED1EF04
:1001980000F0000E086E800E076E07503512CCA8CE
:1001A800D8EF00F0DCEF00F0056A052ADDEF00F07B
:1001B800056A050E066ED8900536062EDFEF00F0AC
:1001C80005503012CCA8EBEF00F0EDEF00F0F3EFA4
:1001D80000F0000E0A6E000E096EF7EF00F0000E38
:1001E8000A6E800E096E09503612CBAAFEEF00F097
:1001F80002EF01F0056A052A03EF01F0056A0538E8
:10020800F00B3012CCA20BEF01F00FEF01F0056AF2
:10021800052A10EF01F0056A0538F00B3012FAEFE5
:1002280002F0F805D8A41BEF01F01DEF01F08BEFE9
:1002380001F0CCAA22EF01F026EF01F0056A052AA9
:1002480027EF01F0056A060E066ED8900536062ED1
:1002580029EF01F005503012CCAA35EF01F037EF45
:1002680001F03DEF01F0000E0C6E000E0B6E41EF39
:1002780001F0000E0C6E800E0B6E0B503512CCA8E0
:1002880048EF01F04CEF01F0056A052A4DEF01F047
:10029800056A050E066ED8900536062E4FEF01F05A
:1002A80005503012CCA85BEF01F05DEF01F063EF71
:1002B80001F0000E0E6E000E0D6E67EF01F0000EDD
:1002C8000E6E800E0D6E0D503612CCA26EEF01F040
:1002D80070EF01F076EF01F0000E106E000E0F6E59
:1002E8007AEF01F0000E106E800E0F6E0F5036126E
:1002F800CBAA81EF01F085EF01F0056A052A86EFA8
:1003080001F0056A0538F00B3012FAEF02F0020E20
:10031800F819D8A492EF01F094EF01F002EF02F07F
:10032800CCAA99EF01F09DEF01F0056A052A9EEF2E
:1003380001F0056A060E066ED8900536062EA0EF67
:1003480001F005503012CCAAACEF01F0AEEF01F08D
:10035800B4EF01F0000E126E000E116EB8EF01F04E
:10036800000E126E800E116E11503512CBAABFEF1F
:1003780001F0C1EF01F0C7EF01F0000E146E000E9E
:10038800136ECBEF01F0000E146E800E136E135037
:100398003512CCA8D2EF01F0D6EF01F0056A052A94
:1003A800D7EF01F0056A050E066ED8900536062EC1
:1003B800D9EF01F005503012CCA8E5EF01F0E7EFD6
:1003C80001F0EDEF01F0000E166E000E156EF1EF64
:1003D80001F0000E166E800E156E15503612CCA266
:1003E800F8EF01F0FCEF01F0056A052AFDEF01F0D6
:1003F800056A0538F00B3012FAEF02F0030EF8190F
:10040800D8A409EF02F00BEF02F07FEF02F0CCAABC
:1004180010EF02F014EF02F0056A052A15EF02F05A
:10042800056A060E066ED8900536062E17EF02F0FE
:1004380005503012CCAA23EF02F025EF02F02BEF83
:1004480002F0000E186E000E176E2FEF02F0000E6D
:10045800186E800E176E17503512CBAA36EF02F0C1
:1004680038EF02F03EEF02F0000E1A6E000E196E21
:1004780042EF02F0000E1A6E800E196E19503512F6
:10048800CCA849EF02F04DEF02F0056A052A4EEFBD
:1004980002F0056A050E066ED8900536062E50EF56
:1004A80002F005503012CCA85CEF02F05EEF02F0CB
:1004B80064EF02F0000E1C6E000E1B6E68EF02F077
:1004C800000E1C6E800E1B6E1B503612CCA26FEFF6
:1004D80002F071EF02F077EF02F0000E1E6E000ED0
:1004E8001D6E7BEF02F0000E1E6E800E1D6E1D50FD
:1004F8003612FAEF02F0040EF819D8A486EF02F0CB
:1005080088EF02F0FAEF02F0CCAA8DEF02F091EF3B
:1005180002F0056A052A92EF02F0056A060E066ED9
:10052800D8900536062E94EF02F005503012CCAA6A
:10053800A0EF02F0A2EF02F0A8EF02F0000E206E8A
:10054800000E1F6EACEF02F0000E206E800E1F6EC4
:100558001F503512CCA8B3EF02F0B7EF02F0056ACE
:10056800052AB8EF02F0056A050E066ED890053622
:10057800062EBAEF02F005503012CCA8C6EF02F0F2
:10058800C8EF02F0CEEF02F0000E226E000E216ED0
:10059800D2EF02F0000E226E800E216E215036122C
:1005A800CBA2D9EF02F0DDEF02F0056A052ADEEFF3
:1005B80002F0056A0538F00B3012CBAAE6EF02F01C
:1005C800E9EF02F0010EEAEF02F0000E3012CCA2C1
:1005D800F0EF02F0F4EF02F0056A052AF5EF02F0F9
:1005E800056A0538F00B3012FAEF02F0CCACFFEFD9
:1005F80002F003EF03F0056A052A04EF03F0056A29
:10060800D8900536D8900536D89005343012CCAE3F
:1006180010EF03F014EF03F0056A052A15EF03F055
:10062800056AD8900536D89005343012CBA01FEF54
:1006380003F023EF03F0056A052A24EF03F0056AA7
:10064800D89005343012040E0301F819D8B42FEFEE
:1006580003F031EF03F03BEF03F0CBA236EF03F0EA
:1006680039EF03F0010E3AEF03F0000E30121200DA
:100678004850D8A442EF03F044EF03F05AEF03F0D8
:100688003B0E3E01F16FF881F8B14DEF03F04FEFEB
:1006980003F048EF03F0020EF16FF881000E496E87
:1006A800000E476E010E486ECEEF04F03E01F8B121
:1006B80060EF03F062EF03F0CEEF04F04750D8B4D8
:1006C80068EF03F06AEF03F0A3EF03F080EF03F0A5
:1006D800030EF16F9DEF03F0000EF16F9DEF03F035
:1006E800010EF16F9DEF03F03D963D84000E486EBC
:1006F800000E476ECEEF04F049500F6E106A10508E
:10070800000AD8B48AEF03F09DEF03F00F50000AF7
:10071800D8B46CEF03F0010AD8B470EF03F0030A01
:10072800D8B474EF03F0010AD8B478EF03F09DEF62
:1007380003F0492A000E476EF881CEEF04F0010E4F
:10074800476EEF516F00C0FB0FF0106A0FC010F03A
:100758000F6A0F26000E1022D89010320F32D89050
:1007680010320F32D89010320F3260003CF0BFF3D5
:10077800600040F0C0F33B0EF16FF8811CEF04F00D
:10078800D4C3C1F3D5C3C2F3D0C3C3F3D1C3C4F335
:10079800D2C3C5F3D3C3C6F3E8C3C7F3E9C3C8F3E9
:1007A800EAC3C9F3EBC3CAF339EF04F0DAC3C1F300
:1007B800DBC3C2F3D6C3C3F3D7C3C4F3D8C3C5F3EB
:1007C800D9C3C6F3ECC3C7F3EDC3C8F3EEC3C9F38B
:1007D800EFC3CAF339EF04F0E0C3C1F3E1C3C2F3D6
:1007E800DCC3C3F3DDC3C4F3DEC3C5F3DFC3C6F3A1
:1007F800F0C3C7F3F1C3C8F3F2C3C9F3F3C3CAF331
:1008080039EF04F0E6C3C1F3E7C3C2F3E2C3C3F3AD
:10081800E3C3C4F3E4C3C5F3E5C3C6F3F4C3C7F342
:10082800F5C3C8F3F6C3C9F3F7C3CAF339EF04F045
:1008380049500F6E106A1050000AD8B426EF04F021
:1008480039EF04F00F50000AD8B4C4EF03F0010ADE
:10085800D8B4DAEF03F0030AD8B4F0EF03F0010AD2
:10086800D8B406EF04F039EF04F00301FA51C525B6
:100878000F6E000EC621106EBF510F5CC05110588C
:10088800D8B049EF04F04BEF04F07FEF04F0FA51D1
:10089800C527000EC623C507D8A0C607C151BF5D2E
:1008A800C251C059D8A05BEF04F05DEF04F067EFC8
:1008B80004F0310E4924D96EDA6A000EDA22E40E09
:1008C800DF6ECEEF04F0310E4924D96EDA6A000EDD
:1008D800DA22C551BF5D0B6EC651C0590C6E60005F
:1008E8001CFF0DF0600020FF0EF0A8EC0DF0810F4A
:1008F800DF6ECEEF04F0FA51C55D0F6E000EC659DB
:10090800106E0F50BF5D1050C059D8B08EEF04F074
:1009180090EF04F0C6EF04F0FA51C55F000EC65B15
:10092800C507D8A0C607BF51C35DC051C459D8A0D8
:10093800A0EF04F0A2EF04F0ACEF04F0310E49246C
:10094800D96EDA6A000EDA221C0EDF6ECEEF04F0E2
:10095800310E4924D96EDA6A000EDA22BF51C55D1C
:100968000B6EC051C6590C6E600024FF0DF060007C
:1009780028FF0EF0A8EC0DF00F6E0F507F08DF6E09
:10098800CEEF04F0310E4924D96EDA6A000EDA226D
:10099800800EDF6E1200CCEC0DF0000E3E01F16F00
:1009A800F88F6AEC0BF00301F845010B236E246AFB
:1009B80023504612CCBAE3EF04F0E5EF04F0F3EF6E
:1009C80004F0CCB8EAEF04F0ECEF04F0F3EF04F035
:1009D8004640800BF86F4CEC0DF057EF05F0CCBAA1
:1009E800F8EF04F0FAEF04F008EF05F0CBBAFFEFE8
:1009F80004F001EF05F008EF05F04650800DF350C4
:100A0800020FF86FEFEF04F0CCB80DEF05F00FEF21
:100A180005F01CEF05F0CCB214EF05F016EF05F069
:100A28001CEF05F04650800DF328F86FEFEF04F047
:100A3800CCB221EF05F023EF05F031EF05F0CBBA8A
:100A480028EF05F02AEF05F031EF05F04650800D4C
:100A5800F350030FF86FEFEF04F0CABE36EF05F05E
:100A680038EF05F03FEF05F04650800DF350040FC6
:100A7800F86FEFEF04F0CCB044EF05F046EF05F067
:100A880057EF05F04650D8B44CEF05F04FEF05F09E
:100A9800010E50EF05F0000E466EF89F4640800BA1
:100AA800F813EFEF04F0CCBC5CEF05F05EEF05F057
:100AB80071EF05F0040E0301FA271B0EFA6567EFC4
:100AC80005F069EF05F06BEF05F01C0EFA6F5DECB1
:100AD8000AF04CEC0DF06AEC0BF0CCBE76EF05F0AA
:100AE80078EF05F093EF05F0040E0301FA5FFA5171
:100AF800D8B481EF05F083EF05F08BEF05F01C0EFD
:100B0800FA6589EF05F08BEF05F08DEF05F0000E23
:100B1800FA6F5DEC0AF04CEC0DF06AEC0BF0CAB819
:100B280098EF05F09AEF05F0A7EF05F0CCB69FEF28
:100B380005F0A1EF05F0A7EF05F00AEC0BF04CEC7F
:100B48000DF0F1EF05F0CCB6ACEF05F0AEEF05F027
:100B5800BCEF05F00301F951D8B4B5EF05F0B8EFD3
:100B680005F0010EB9EF05F0000EF96FA3EF05F0DF
:100B7800CAB8C1EF05F0C3EF05F0D4EF05F0010ED8
:100B8800446E620E246E670E236ECE0EE82EFED7DC
:100B9800232EFCD7242EFAD79BEC08F0F1EF05F0B2
:100BA800F1EF05F0CCB6DBEF05F0DDEF05F0E7EF90
:100BB80005F05DEC0AF04CEC0DF06AEC0BF0000E61
:100BC800446EF9EF05F04FEC06F0150E236EC60ED5
:100BD800E82EFED7232EFCD700D04450D8A4F7EF38
:100BE80005F0F9EF05F0D6EF05F0D28E0301F89F76
:100BF80083EC0CF03DA003EF06F005EF06F007EFDD
:100C080006F020EC0EF089EC07F094EC0DF03DA610
:100C180010EF06F012EF06F042EF06F04204D8A4F7
:100C280018EF06F01AEF06F028EF06F00301F95165
:100C3800D8B421EF06F023EF06F028EF06F0CB88B2
:100C4800F00E7D6E40EF06F0020E4218D8A42FEF8A
:100C580006F031EF06F03FEF06F00301F951D8B482
:100C680038EF06F03AEF06F03FEF06F0CB88600E5B
:100C78007D6E40EF06F0CB983CEC03F03DA447EFC7
:100C880006F049EF06F0FCEF05F00FEC00F0FCEF82
:100C980005F00DEF00F04850D8A455EF06F057EFD7
:100CA80006F06DEF06F03B0E3E01F16FF881F8B1EA
:100CB80060EF06F062EF06F05BEF06F0020EF16FF0
:100CC800F881000E496E000E476E010E486E88EFDF
:100CD80007F03E01F8B173EF06F075EF06F088EF04
:100CE80007F04750D8B47BEF06F07DEF06F0B6EF7B
:100CF80006F093EF06F0030EF16FB0EF06F0000E6A
:100D0800F16FB0EF06F0010EF16FB0EF06F0000ED4
:100D1800486E000E476E88EF07F088EF07F04950DD
:100D2800056E066A0650000AD8B49DEF06F0B0EFCB
:100D380006F00550000AD8B47FEF06F0010AD8B4CF
:100D480083EF06F0030AD8B487EF06F0010AD8B497
:100D58008BEF06F0B0EF06F0492A000E476EF881D7
:100D680088EF07F0010E476EEF516F00C0FB05F0EA
:100D7800066A05C006F0056A0526000E0622D89008
:100D880006320532D89006320532D890063205323E
:100D9800600014F0BFF3600018F0C0F33B0EF16F71
:100DA800F8816BEF07F00301BF51D45DC051D559ED
:100DB800D8B0E1EF06F0E3EF06F0E7EF06F0BFC3C7
:100DC800D4F3C0C3D5F3D051BF5DD151C059D8B009
:100DD800F0EF06F0F2EF06F0F6EF06F0BFC3D0F33F
:100DE800C0C3D1F3BFC3D2F3C0C3D3F388EF07F0B6
:100DF8000301BF51DA5DC051DB59D8B006EF07F0E7
:100E080008EF07F00CEF07F0BFC3DAF3C0C3DBF35A
:100E1800D651BF5DD751C059D8B015EF07F017EFBD
:100E280007F01BEF07F0BFC3D6F3C0C3D7F3BFC3A8
:100E3800D8F3C0C3D9F388EF07F00301BF51E05DD1
:100E4800C051E159D8B02BEF07F02DEF07F031EF83
:100E580007F0BFC3E0F3C0C3E1F3DC51BF5DDD5170
:100E6800C059D8B03AEF07F03CEF07F040EF07F071
:100E7800BFC3DCF3C0C3DDF3BFC3DEF3C0C3DFF31E
:100E880088EF07F00301BF51E65DC051E759D8B0BC
:100E980050EF07F052EF07F056EF07F0BFC3E6F345
:100EA800C0C3E7F3E251BF5DE351C059D8B05FEF6B
:100EB80007F061EF07F065EF07F0BFC3E2F3C0C3C7
:100EC800E3F3BFC3E4F3C0C3E5F388EF07F0495089
:100ED800056E066A0650000AD8B475EF07F091EF60
:100EE80006F00550000AD8B4D7EF06F0010AD8B4C6
:100EF800FCEF06F0030AD8B421EF07F0010AD8B4D2
:100F080046EF07F091EF06F012003DAC1200C394D3
:100F180060003BF1E9FF6F00BCFF50F03F6A3F867D
:100F2800CB9450AE39D03F4EA5D000000000000051
:100F380000000000000000000000000000000000A9
:100F4800000000000000CB8400000000000000004A
:100F58000000000000000000000000000000000089
:100F68000000000000000000000000000000000079
:100F78000000000000000000000000000000000069
:100F88000000000000000000000000000000000059
:100F98000000000000003AD03F4E99D00000000049
:100FA8000000000000000000000000000000000039
:100FB8000000000000000000000000000000000029
:100FC8000000000000000000000000000000000019
:100FD8000000000000000000000000000000000009
:100FE80000000000000000000000000000000000F9
:100FF800000000000000CB8400000000000000009A
:10100800000000000000000000000000503688D7F3
:101018004E2A4F2E7DD7000000000000000000007F
:1010280000000000000000000000CB940000000059
:1010380000000000000000000000000000000000A8
:101048000000000000000000000000000000000098
:101058000000000000000000000000000000000088
:101068000000000000000000000000000000CB8429
:101078003D8A12000000000000000000000000008F
:101088000000000000000000000000000000CB8409
:101098000000000000000000000000000000000048
:1010A8000000000000000000000000000000000038
:1010B8000000000000000000000000000000000028
:1010C800000000000000000000000000A1D70000A0
:1010D8000000000000000000000000000000000008
:1010E80000000000000000000000000000000000F8
:1010F80000000000000000000000000000000000E8
:1011080000000000000000000000000000000000D7
:1011180000000000000000000000000000000000C7
:1011280000000000000000000000CB8471D73B0ED7
:101138003E01F16FF881F8B1A4EF08F0A6EF08F0CE
:101148009FEF08F0020EF16FF881F8B1AEEF08F0EA
:10115800B0EF08F0A9EF08F0EF516F00C0FB05F001
:10116800066A05C006F0056A0526000E0622D89014
:1011780006320532D89006320532D890063205324A
:1011880005C007F006C008F060001CF0D4F360004A
:1011980020F0D5F360001CF0D0F3600020F0D1F30C
:1011A80060001CF0D2F3600020F0D3F33B0EF16F27
:1011B800F881F8B1E2EF08F0E4EF08F0DDEF08F0AD
:1011C800030EF16FF881F8B1ECEF08F0EEEF08F0DC
:1011D800E7EF08F0EF516F00C0FB05F0066A05C0A5
:1011E80006F0056A0526000E0622D890063205325A
:1011F800D89006320532D8900632053205C007F07D
:1012080006C008F060001CF0DAF3600020F0DBF3A1
:1012180060001CF0D6F3600020F0D7F360001CF0EB
:10122800D8F3600020F0D9F33B0EF16FF881F8B1E4
:1012380020EF09F022EF09F01BEF09F0000EF16F23
:10124800F881F8B12AEF09F02CEF09F025EF09F041
:10125800EF516F00C0FB05F0066A05C006F0056A8D
:101268000526000E0622D89006320532D89006329E
:101278000532D8900632053205C007F006C008F0DE
:1012880060001CF0E0F3600020F0E1F360001CF067
:10129800DCF3600020F0DDF360001CF0DEF360009A
:1012A80020F0DFF33B0EF16FF881F8B15EEF09F043
:1012B80060EF09F059EF09F0010EF16FF881F8B10C
:1012C80068EF09F06AEF09F063EF09F0EF516F007A
:1012D800C0FB05F0066A05C006F0056A0526000E83
:1012E8000622D89006320532D89006320532D890B8
:1012F8000632053205C007F006C008F060001CF091
:10130800E6F3600020F0E7F360001CF0E2F3600011
:1013180020F0E3F360001CF0E4F3600020F0E5F354
:10132800120005C00FF006C010F009500A10D8A42A
:10133800A0EF09F0A2EF09F0A4EF09F05CEF0AF0C2
:1013480060003FF0D9FF600043F0DAFF60001FF053
:10135800DFFF09500F240B6E0A5010200C6EFF0E91
:101368000B24D96EFF0E0C20DA6E60001FF0DFFF31
:101378000A5007E1030E095CD8B0C5EF09F0C7EFC2
:1013880009F0C9EF09F05CEF0AF020EE01F00F5008
:10139800D9261050DA2260001FF0DFFF20EE02F09D
:1013A8000F50D9261050DA2260001FF0DFFF0950D5
:1013B8000F240B6E0A5010200C6EFE0E0B24D96EF3
:1013C800FF0E0C20DA6E60001FF0DFFF09500F24BB
:1013D8000B6E0A5010200C6EFD0E0B24D96EFF0EFA
:1013E8000C20DA6E60001FF0DFFF0A5007E1070EDD
:1013F800095CD8B002EF0AF004EF0AF006EF0AF031
:101408005CEF0AF020EE03F00F50D9261050DA22D4
:1014180060001FF0DFFF09500F240B6E0A501020E8
:101428000C6EFC0E0B24D96EFF0E0C20DA6E6000D9
:101438001FF0DFFF0A5007E1090E095CD8B027EF5B
:101448000AF029EF0AF02BEF0AF05CEF0AF00FC060
:101458000BF010C00CF00B1E0C1E0B4A0C2A030ECE
:101468000B140D6E0E6A0D500F260E5010220D50E3
:10147800095E0E500A5AFC0E0916FF0E0A1653EFA3
:101488000AF060003FF0D9FF600043F0DAFF600027
:101498001FF0DFFF0906D8A00A060F4A102A0950D4
:1014A8000A10D8A45AEF0AF05CEF0AF045EF0AF0E8
:1014B8001200600050FF0CF0600054FF0DF00301B3
:1014C800FA51D2250E6E000ED3210F6EADEC0CF042
:1014D800600030F0E8F3600034F0E9F30301FA51FA
:1014E800D25D0C6ED351D8A0D3050D6E600040FFBD
:1014F8000EF0600044FF0FF0ADEC0CF0600030F02F
:10150800EAF3600034F0EBF3600080FF0CF0600059
:1015180084FF0DF00301FA51DE250E6E000EDF2167
:101528000F6EADEC0CF0600030F0F0F3600034F0BA
:10153800F1F30301FA51DE5D0C6EDF51D8A0DF052F
:101548000D6E600070FF0EF0600074FF0FF0ADECE0
:101558000CF0600030F0F2F3600034F0F3F3600058
:1015680068FF0CF060006CFF0DF00301FA51D825FC
:101578000E6E000ED9210F6EADEC0CF0600030F04D
:10158800ECF3600034F0EDF30301FA51D85D0C6E12
:10159800D951D8A0D9050D6E600058FF0EF0600033
:1015A8005CFF0FF0ADEC0CF0600030F0EEF3600083
:1015B80034F0EFF3600098FF0CF060009CFF0DF032
:1015C8000301FA51E4250E6E000EE5210F6EADEC15
:1015D8000CF0600030F0F4F3600034F0F5F3030130
:1015E800FA51E45D0C6EE551D8A0E5050D6E60007A
:1015F80088FF0EF060008CFF0FF0ADEC0CF060007F
:1016080030F0F6F3600034F0F7F31200000E030137
:10161800CE6F000ECD6F4E0ECF6F000ED16F5E0EE7
:10162800D06F000ED36FFE0ED26F010ED56F7E0EF7
:10163800D46F000ED76F7C0ED66F000ED96FD869A5
:10164800010EDB6F9F0EDA6F000EDD6F6C0EDC6F24
:10165800000EDF6FEC0EDE6F010EE16F810EE06FA2
:10166800000EE36F5F0EE26F000EE56FEC0EE46FA5
:10167800010EE76F7C0EE66F000EE96FE30EE86F70
:10168800000EEB6FB00EEA6F000EED6FA30EEC6F5D
:10169800000EEF6FE30EEE6F000EF16FC00EF06FED
:1016A800000EF36FE30EF26F000EF56FC20EF46FCB
:1016B800000EF76FCC0EF66F5DEC0AF0000E03011A
:1016C800F86F000EF96F100EFA6F1200CD0E056E4E
:1016D800030E066E000E086E000E076E000E0A6EF0
:1016E8002E0E096E95EC09F0CD0E166E030E176ED0
:1016F800000E186E040018501624D96E000E17201C
:10170800DA6E18C005F0066ADDEC0DF0DF6E020E29
:101718001818D8A492EF0BF094EF0BF0A4EF0BF08D
:101728004E0E0301CF19D8B49CEF0BF09EEF0BF0CF
:10173800A4EF0BF00AEC0BF04CEC0DF0ADEF0BF056
:10174800182A2D0E1864ABEF0BF0ADEF0BF07EEFFF
:101758000BF01200000E0A6E000E096E07500810FA
:10176800D8B4B9EF0BF0BBEF0BF0E3EF0BF0010EC1
:101778000B6EC3EF0BF0D890073608360B2A08AE6D
:10178800C8EF0BF0CAEF0BF0BFEF0BF0D89009369B
:101798000A360750055C08500658D8A0D6EF0BF05B
:1017A800D8EF0BF0DDEF0BF00750055E0850065A36
:1017B8000980D890083207320B2ECAEF0BF009C007
:1017C80005F00AC006F012006F00D8FF01F06F00A4
:1017D800DCFF02F06F00E0FF03F06F00D4FF04F0BD
:1017E800390191AFFAEF0BF0FCEF0BF012EF0CF0B0
:1017F800A1AF01EF0CF003EF0CF012EF0CF0A19F7A
:101808006F0060FC4CF03DA40CEF0CF00EEF0CF0F8
:1018180010EF0CF03D943D92D7EC0CF0600013F003
:10182800F5FF60000FF0F8FF60000BF0F7FF6000B5
:1018380007F0F6FF1100F00EBA6E270EBB6EFB0E16
:10184800BC6EC268E70EC36EC468000E3A01606FD2
:10185800000E506F0F0E406F000E816F230E516FF8
:10186800F00E416FFB0E616F000E426F000E526F5B
:10187800000E626F43695369636944695469646916
:10188800080E846F579556855595000E056E000E07
:10189800066E2AEC0EF0090E3A010B6F0A0ED26F93
:1018A8001200000E3E01DE6F000EDF6F000EE06FCB
:1018B800000EE16F000EE46F000EE56F000EEA6F98
:1018C800000EEC6F000EF16F180EF36F000EF46F40
:1018D800000EF56F000EF66F000EF76F010EF96F30
:1018E800000EFA6F000EFB6F000EFC6F000EFD6F0E
:1018F800000EFE6F010EFF6F840EF86F12003DAEF2
:1019080012003F01D29F1F9F600003F1E8FF3A18C1
:10191800E86605D02F0E4E6E4F863D8C1200600093
:1019280003F1E8FF3B18E86606D0250E4E6E4F8699
:101938004F823D8C1200600003F1E8FFE86607D093
:101948004F804F82370E4E6E3D823D8C12003D8097
:1019580012000E500C5C106E0F500D58116E10C016
:1019680007F011C008F0270E066E100E056EAEECDB
:101978000BF005C006F0056A05C014F006C015F0A6
:1019880014C005F015C006F0000E086E640E076E50
:10199800AEEC0BF005C012F006C013F012C00CF04C
:1019A80013C00DF0120060002BF1E9FF3DA80ED026
:1019B8003EB613D0EF46EF90600033F1E8FF3C608D
:1019C800EF803E2E12004A2A3E861200080E4C5C1A
:1019D8003C6E3D88EF903E061200406602D03D8E78
:1019E8001200600033F1E8FF3C6003D0EF903E0640
:1019F80012003D8E1200F40EF66E1B0EF76E000EEE
:101A0800F86E00EE25F010EE1BF009006F00D7FF0E
:101A1800EEFFE550E150F9E100EE60F03C0EEE6AB1
:101A2800E806FDE100EE40F0110EEE6AE806FDE181
:101A3800080ED56E000ED66E000ED76E000EF86E2C
:101A48000001CFEF04F0000ED2BE010E086E065062
:101A5800030B3901E16F600017F0E0F960001FF037
:101A6800E3F93F0EE517E585D29E550EE66FAA0EFF
:101A7800E66FE583E5B343EF0DF045EF0DF03EEF7C
:101A88000DF0E59508B002D0D29E01D0D28E12009A
:101A9800CD0E096E030E0A6E000E0B6E0BC005F01C
:101AA800066A0B500924D96E000E0A20DA6EDF5040
:101AB800076E27EC0DF00B2A2D0E0B6466EF0DF068
:101AC80068EF0DF052EF0DF012009C0E3F011E6FF3
:101AD800C30E1F6F000E206F000E216F000E236FC4
:101AE800000E226F1D691C691B693901918F919D38
:101AF8003F011F8F1200055007026F00CCFF09F04D
:101B08006F00D0FF0AF005500802F3500A2606506D
:101B18000702F3500A2609C005F00AC006F01200B1
:101B28003DAA1200400E6F00A0FF4AF03E6A3E86B2
:101B38003D6A506A4E6A4F6A4B6A4C6A3D86C38456
:101B48003F01D28F1F8F1200010E0D24056E000E6B
:101B58000E20066E0BC007F00CC008F07FEC0DF0ED
:101B680006500301CB6FCC6BCB511200000E39012C
:101B7800C06F000EC16F000EC26F000EC36F000E63
:101B8800C46F000EC56F000EC66F000EC76F12003F
:101B98002FEC0EF0BAEC0DF01FEC0CF014EC0EF07C
:101BA80008EC0EF055EC0CF0ECEC0DF069EC0DF0D7
:101BB80012000650030B3901E16F600017F0E0F9DD
:101BC8003F0EE517E58100F000F03901E3511200FE
:101BD800010EA26E000EA16E000EA36E9F68000E8D
:101BE8009E6E3901A895800EA06E1200008080803C
:101BF800808000000202000083837D7D00000900D0
:071C08000340412D200808F4
:101C10009C0E7E6EF00E7D6E000E7C6E3F015E515E
:101C2000FC0B02095E6F1200600E3901D96F000EC5
:101C3000DB6F000EDD6F080EDF6F000EDE6F12002F
:101C40000A0E056E580EE82EFED7052EFCD700D0E2
:101C50003D8A120005C051F006C052F01200D28A2F
:081C60003901818F818D120012
:020000040020DA
:10000000FF0FFF0FFF0FFF0FFF0FFF0FFF0FFF0F80
:020000040030CA
:0A0000008CFFF7FF9FFFFFFFFFFFDB
:00000001FF
