:040000000DEF00F010
:04000800BFEF0EF048
:10001800FF00F2EF10F0020E3318D8A40AD0000E39
:10002800496E800E4A6E000E4F6E000E506E030E23
:10003800336ECCB603D0056A052A01D0056A0538A7
:10004800F00B491208013351D8A425D0CCB003D005
:10005800056A052A01D0056AD8900536D890053674
:10006800D89005344912CABC03D0056A052A01D0C4
:10007800056AD8900536D89005344912CABE03D00F
:10008800056A052A01D0056AD89005344912CABA0A
:1000980025D0010E24D0CABC03D0056A052A01D098
:1000A800056AD8900536D8900536D8900534491297
:1000B800CCB003D0056A052A01D0056AD890053668
:1000C800D89005344912CABA03D0056A052A01D066
:1000D800056AD89005344912CAAEDBD7000E49121A
:1000E80008012B51D8A43ED0CCBA03D0056A052A02
:1000F80001D0056A060E066ED8900536062EFCD786
:1001080005504A12CCAA04D0000E086E000E03D087
:10011800000E086E800E076E07504F12CCB803D041
:10012800056A052A01D0056A050E066ED8900536BF
:10013800062EFCD705504A12CCA804D0000E0A6E31
:10014800000E03D0000E0A6E800E096E0950501280
:10015800CBBA03D0056A052A01D0056A0538F00B29
:100168004A128AD02B05D8A443D0CCBA03D0056A4A
:10017800052A01D0056A060E066ED8900536062EA9
:10018800FCD705504A12CCAA04D0000E0C6E000E03
:1001980003D0000E0C6E800E0B6E0B504F12CCB8B5
:1001A80003D0056A052A01D0056A050E066ED890A7
:1001B8000536062EFCD705504A12CCA804D0000EEE
:1001C8000E6E000E03D0000E0E6E800E0D6E0D50DA
:1001D8005012CCA204D0000E106E000E03D0000EF8
:1001E800106E800E0F6E0F505012CBBAE4D046D06E
:1001F800020E2B19D8A445D0CCBA03D0056A052A1B
:1002080001D0056A060E066ED8900536062EFCD774
:1002180005504A12CCAA04D0000E126E000E03D06C
:10022800000E126E800E116E11504F12CBAA04D020
:10023800000E146E000E03D0000E146E800E136EA6
:1002480013504F12CCB803D0056A052A01D0056AAD
:10025800050E066ED8900536062EFCD705504A12B4
:10026800CCA804D0000E166E000E03D0000E166E39
:10027800800E156E15505012CCB29DD0056A052A15
:100288009BD0030E2B19D8A44DD0CCBA03D0056A45
:10029800052A01D0056A060E066ED8900536062E88
:1002A800FCD705504A12CCAA04D0000E186E000ED6
:1002B80003D0000E186E800E176E17504F12CBAA7F
:1002C80004D0000E1A6E000E03D0000E1A6E800EB7
:1002D800196E19504F12CCB803D0056A052A01D0FF
:1002E800056A050E066ED8900536062EFCD7055011
:1002F8004A12CCA804D0000E1C6E000E03D0000ECB
:100308001C6E800E1B6E1B505012CCA204D0000E27
:100318001E6E000E03D0000E1E6E800E1D6E1D5048
:1003280050124DD0040E2B19D8A449D0CCBA03D002
:10033800056A052A01D0056A060E066ED8900536AC
:10034800062EFCD705504A12CCAA04D0000E206E07
:10035800000E03D0000E206E800E1F6E1F504F122D
:10036800CCB803D0056A052A01D0056A050E066EC9
:10037800D8900536062EFCD705504A12CCA804D0D2
:10038800000E226E000E03D0000E226E800E216E2B
:1003980021505012CBB203D0056A052A01D0056A54
:1003A8000538F00B4A12CBBA02D0010E01D0000E6C
:1003B8004A12CCA263D7056A0538F00B4A12CCBCA6
:1003C80003D0056A052A01D0056AD8900536D89069
:1003D8000536D89005344A12CCBE03D0056A052AE2
:1003E80001D0056AD8900536D89005344A12CBB0AA
:1003F80003D0056A052A01D0056AD89005344A1247
:10040800040E08012B19D8B41200CBB202D0010E89
:1004180001D0000E4A121200156E31D115502AD1A2
:100428001550080D6F00CCFF0DF06F00D0FF0EF0D7
:100438000B500D24056E000E0E20066E000E086E81
:100448001C0E076EA2EC11F014D01550050D6F00AC
:10045800CCFF0DF06F00D0FF0EF00B500D24056E91
:10046800000E0E20066E000E086E2A0E076EA2EC15
:1004780011F006C005F0066A05BE066805C011F051
:1004880006C012F027D01550030D6F00CCFF0DF0F9
:100498006F00D0FF0EF00B50B4D01550020D6F0056
:1004A800CCFF0DF06F00D0FF0EF015C00FF0D89004
:1004B8000F320F500D26000E0E220B500D24056E24
:1004C800000E0E20066E000E086E490E076EA2EC96
:1004D80011F0CFD7000E12BEFF0E136E146E05D1A9
:1004E8001550020D6F00CCFF0DF06F00D0FF0EF01D
:1004F8000B500D24056E000E0E20066E000E086EC1
:10050800550E076EA2EC11F0B4D715C00DF0D890B7
:100518000D320D5015C00EF00F6A0E26000E0F2278
:100528000B500E24056E000E0F20066E000E086E8E
:10053800660E076EA2EC11F09CD70B5015C00DF09B
:100548000E6A0D26000E0E220E340E30106E0D307F
:100558000F6E0FC011F010C012F0BCD70BC00DF019
:10056800D8900D320D500BC00EF00F6A0E26000EFB
:100578000F2215500E24056E000E0F20066E000E79
:10058800086E660E076EA2EC11F073D70B50020DC1
:100598006F00CCFF0DF06F00D0FF0EF015500D244A
:1005A800056E000E0E20066E000E086E550E076EC4
:1005B800A2EC11F05ED70B50020D6F00CCFF0DF0CE
:1005C8006F00D0FF0EF00BC00FF0D8900F320F5015
:1005D8000D26000E0E2215500D24056E000E0E205D
:1005E800066E000E086E490E076EA2EC11F041D798
:1005F8000B50030D6F00CCFF0DF06F00D0FF0EF015
:1006080015500D26000E0E220E340E320D320E3409
:100618000E320D320DC011F00EC012F05BD70B5028
:10062800050D6F00CCFF0DF06F00D0FF0EF01550D8
:100638000D24056E000E0E20066E000E086E2A0EA2
:10064800076EA2EC11F015D70B50080D6F00CCFF08
:100658000DF06F00D0FF0EF015500D24056E000E42
:100668000E20066E000E086E1C0E076EA2EC11F02E
:1006780000D70B50116E126A136A146A36D00C50E8
:100688000D6E0E6A0E50000AD8A4C8D60D50000A86
:10069800D8B4C4D6010AD8B4C3D6030AD8B4D5D6B8
:1006A800010AD8B4F0D6070AD8B4F7D6010AD8B4E4
:1006B80017D7030AD8B429D7010AD8B43ED70F0AE6
:1006C800D8B44CD7010AD8B461D7030AD8B473D7C1
:1006D800010AD8B48DD7070AD8B4A1D7010AD8B46B
:1006E800B3D7030AD8B4C5D799D600F01150120071
:1006F80008013551D8A411D03B0E3E01F16FF881A5
:10070800F8B1FED7020EF16FF881000E0801346FC0
:10071800000E366F010E356F12003E01F8B112005F
:1007280008013651D8A413D02DD0030E03D0000EE3
:1007380001D0010E3E01F16F1ED05EEC0BF0020EEF
:10074800336E000E0801356F000E366F12003451FB
:100758001C6E1D6A1D50000AD8A40DD01C50000A3A
:10076800D8B4E3D7010AD8B4E2D7030AD8B4E1D79A
:10077800010AD8B4E2D70801342B000E366F3E01C7
:10078800F8811200010E366F3E01EF516F00C0FB79
:100798001CF01D6A1CC01DF01C6A1C26000E1D22C0
:1007A800D8901D321C32D8901D321C32D8901D3280
:1007B8001C321CC01EF01DC01FF01EC037F81FC021
:1007C80038F83B0EF16FF88154D007C839F808C8DB
:1007D8003AF803C83BF804C83CF805C83DF806C811
:1007E8003EF81BC83FF81CC840F81DC841F81EC891
:1007F80042F854D00DC839F80EC83AF809C83BF881
:100808000AC83CF80BC83DF80CC83EF81FC83FF8AA
:1008180020C840F821C841F822C842F83FD013C880
:1008280039F814C83AF80FC83BF810C83CF811C892
:100838003DF812C83EF823C83FF824C840F825C838
:1008480041F826C842F82AD019C839F81AC83AF81F
:1008580015C83BF816C83CF817C83DF818C83EF844
:1008680027C83FF828C840F829C841F82AC842F8DC
:1008780015D0080134511C6E1D6A1D50000AD8A4F9
:100888000DD01C50000AD8B4A0D7010AD8B4B2D7EA
:10089800030AD8B4C4D7010AD8B4D6D72F513D25F6
:1008A8001C6E000E3E211D6E37511C5C38511D58C0
:1008B800D8B027D02F513D27000E3E233D07D8A0A2
:1008C8003E073951375D3A513859D8A007D03451CD
:1008D8004B0FD96EDA6AE40EDF6E120034514B0FFB
:1008E800D96EDA6A3D51375D0B6E3E5138590C6E40
:1008F8003FC80DF040C80EF0F3EC11F0810FDF6E29
:1009080012002F513D5D1C6E000E3E591D6E1C508D
:10091800375D1D503859D8B029D02F513D5F000E92
:100928003E5B3D07D8A03E0737513B5D38513C59E7
:10093800D8A007D034514B0FD96EDA6A1C0EDF6E7F
:10094800120034514B0FD96EDA6A37513D5D0B6E88
:1009580038513E590C6E41C80DF042C80EF0F3EC08
:1009680011F01C6E1C507F08DF6E120034514B0FC3
:10097800D96EDA6A7F0EDF6E1200EAD0000E12001E
:100988000B501200D8900C300F6E0B300E6E0E50BC
:1009980012000BC005F00CC006F0000E086E550ED4
:1009A800076EA2EC11F005C011F006C012F0136A30
:1009B800146A125012000BC00EF00CC00FF0D89041
:1009C8000F320E32D8900F320E320E5012000BC07A
:1009D80005F00CC006F0000E086E330E076EA2EC90
:1009E80011F0E1D70BC005F00CC006F0000E086E40
:1009F8002B0E076EA2EC11F0D6D70BC005F00CC079
:100A080006F0000E086E250E076EA2EC11F0CBD78B
:100A18000BC00EF00CC00FF0D8900F320E32D890E9
:100A28000F320E32D8900F320E320E5012000BC019
:100A380005F00CC006F0000E086E1C0E076EA2EC46
:100A480011F0B1D70BC005F00CC006F0000E086E0F
:100A5800190E076EA2EC11F0A6D70BC005F00CC05A
:100A680006F0000E086E170E076EA2EC11F09BD769
:100A78000BC005F00CC006F0000E086E150E076ED0
:100A8800A2EC11F090D70BC005F00CC006F0000ED8
:100A9800086E140E076EA2EC11F085D70BC005F096
:100AA8000CC006F0000E086E120E076EA2EC11F0D4
:100AB8007AD70BC005F00CC006F0000E086E110EB8
:100AC800076EA2EC11F06FD70BC00EF00CC00FF040
:100AD800040E106ED8900F320E32102EFBD70E5027
:100AE80012000BC005F00CC006F0000E086E0F0EC9
:100AF800076EA2EC11F057D70BC005F00CC006F03A
:100B0800000E086E0E0E076EA2EC11F04CD70BC04B
:100B180005F00CC006F0000E086E0D0E076EA2EC74
:100B280011F041D70BC005F00CC006F0000E086E9E
:100B38000C0E076EA2EC11F036D70BC005F00CC0F6
:100B480006F0000E086E0B0E076EA2EC11F02BD704
:100B58000D500E6E0F6A0F50000AD8A411D70E5010
:100B6800000AD8B40BD7010AD8B40AD7030AD8B4F4
:100B780009D7010AD8B40DD7070AD8B41CD7010A77
:100B8800D8B425D7030AD8B42DD7010AD8B435D795
:100B98000F0AD8B43DD7010AD8B449D7030AD8B444
:100BA80051D7010AD8B459D7070AD8B461D7010A6E
:100BB800D8B469D7030AD8B471D7010AD8B479D799
:100BC8001F0AD8B481D7010AD8B48BD7030AD8B47E
:100BD80093D7010AD8B49BD7070AD8B498D7010A83
:100BE800D8B4A0D7030AD8B4A8D7CAD60001490EEA
:100BF800E96E080E3B6F3F01D29F00000001000024
:100C08000000000000000000000000000000C39485
:100C18006F00BCFF3CF0566B5687CB943CAF4FEF50
:100C280006F0564FC0EF06F000000000000000007C
:100C3800000000000000000000000000CB8400005D
:100C4800000000000000000000000000000000009C
:100C5800000000000000000000000000000000008C
:100C6800000000000000000000000000000000007C
:100C7800000000000000000000000000000000006C
:100C8800000000000000000000000000000000005C
:100C9800000088EF06F0564FF0EF06F00000000065
:100CA800000000000000000000000000000000003C
:100CB800000000000000000000000000000000002C
:100CC800000000000000000000000000000000001C
:100CD800000000000000000000000000000000000C
:100CE80000000000000000000000000000000000FC
:100CF800CB8400000000000000000000000000009D
:100D080000000000000000003C3711EF06F0E92A5F
:100D18003B2F0CEF06F00000000000000000000070
:100D280000000000000000000000CB94000000005C
:100D380000000000000000000000000000000000AB
:100D4800000000000000000000000000000000009B
:100D5800000000000000000000000000000000008B
:100D68000000000000000000000000000000CB842C
:100D78003F01D28FC3841200000000000000000071
:100D8800000000000000000000000000CB8400000C
:100D9800000000000000000000000000000000004B
:100DA800000000000000000000000000000000003B
:100DB800000000000000000000000000000000002B
:100DC800000000000000000000000000000000001B
:100DD800000000008BEF06F000000000000000009B
:100DE80000000000000000000000000000000000FB
:100DF80000000000000000000000000000000000EB
:100E080000000000000000000000000000000000DA
:100E180000000000000000000000000000000000CA
:100E2800000000000000000000000000CB8400006B
:100E380000008BEF06F0120000013F0EE96E0A0E6B
:100E48003B6F3F01D29F000000010000000000003E
:100E580000000000000000000000C3946F00BCFF09
:100E68003CF0566B5687CB943CAF74EF07F0564F67
:100E7800E4EF07F0000000000000000000000000A0
:100E8800000000000000CB8400000000000000000B
:100E9800000000000000000000000000000000004A
:100EA800000000000000000000000000000000003A
:100EB800000000000000000000000000000000002A
:100EC800000000000000000000000000000000001A
:100ED800000000000000000000000000ACEF07F078
:100EE800564F14EF08F0000000000000000000005A
:100EF80000000000000000000000000000000000EA
:100F080000000000000000000000000000000000D9
:100F180000000000000000000000000000000000C9
:100F280000000000000000000000000000000000B9
:100F38000000000000000000CB840000000000005A
:100F48000000000000000000000000000000000099
:100F58003C3737EF07F0E92A3B2F32EF07F0000064
:100F68000000000000000000000000000000000079
:100F78000000CB940000000000000000000000000A
:100F88000000000000000000000000000000000059
:100F98000000000000000000000000000000000049
:100FA8000000000000000000000000000000000039
:100FB800000000000000CB843F01D28FC3841200E0
:100FC8000000000000000000000000000000000019
:100FD80000000000CB8400000000000000000000BA
:100FE80000000000000000000000000000000000F9
:100FF80000000000000000000000000000000000E9
:1010080000000000000000000000000000000000D8
:10101800000000000000000000000000AFEF07F033
:1010280000000000000000000000000000000000B8
:1010380000000000000000000000000000000000A8
:101048000000000000000000000000000000000098
:101058000000000000000000000000000000000088
:101068000000000000000000000000000000000078
:1010780000000000CB8400000000AFEF07F0120072
:101088000001510EE96E030E3B6F3F01D29F000035
:101098000001000000000000000000000000000047
:1010A8000000C3946F00BCFF3CF0566B5687CB948E
:1010B8003CAF98EF08F0564F08EF09F00000000029
:1010C8000000000000000000000000000000CB84C9
:1010D8000000000000000000000000000000000008
:1010E80000000000000000000000000000000000F8
:1010F80000000000000000000000000000000000E8
:1011080000000000000000000000000000000000D7
:1011180000000000000000000000000000000000C7
:1011280000000000D0EF08F0564F38EF09F000003B
:1011380000000000000000000000000000000000A7
:101148000000000000000000000000000000000097
:101158000000000000000000000000000000000087
:101168000000000000000000000000000000000077
:101178000000000000000000000000000000000067
:10118800CB84000000000000000000000000000008
:1011980000000000000000003C375BEF08F0E92A7F
:1011A8003B2F56EF08F00000000000000000000090
:1011B80000000000000000000000CB9400000000C8
:1011C8000000000000000000000000000000000017
:1011D8000000000000000000000000000000000007
:1011E80000000000000000000000000000000000F7
:1011F8000000000000000000000000000000CB8498
:101208003F01D28FC38412000000000000000000DC
:10121800000000000000000000000000CB84000077
:1012280000000000000000000000000000000000B6
:1012380000000000000000000000000000000000A6
:101248000000000000000000000000000000000096
:101258000000000000000000000000000000000086
:1012680000000000D3EF08F00000000000000000BC
:101278000000000000000000000000000000000066
:101288000000000000000000000000000000000056
:101298000000000000000000000000000000000046
:1012A8000000000000000000000000000000000036
:1012B800000000000000000000000000CB840000D7
:1012C8000000D3EF08F01200E0EC11F03AEC11F056
:1012D8006BEC12F0000E3E01F16FF88F3DEC10F050
:1012E800000E0801326F000E336F2B45010B3313CC
:1012F800CCAACCB806D03341800B2B6F73EC11F01D
:101308002CD0CCAACBBA05D03351800DF350020FA4
:10131800F4D7CCA8CCB204D03351800DF328EDD744
:10132800CCA2CBBA05D03351800DF350030FE5D7CB
:10133800CABE05D03351800DF350040FDED7CCB0B0
:101348000CD03351D8A402D0010E01D0000E336F57
:101358002B9F3341800B2B13D1D7CAA8CCB605D00D
:1013680028EC0FF073EC11F034D0CCB609D008019A
:101378002C51D8A402D0010E01D0000E2C6FF2D748
:10138800CAB827D0010E0801326F620E246E670EAC
:10139800236ECE0EE82EFED7232EFCD7242EFAD7A6
:1013A80019EC0CF016D0CCB60AD032EC0EF073EC77
:1013B80011F03DEC10F0000E0801326F0ED080ECF9
:1013C8000AF0150E236EC60EE82EFED7232EFCD784
:1013D80000D008013205D8B4E6D7290E246E960E3F
:1013E800236E7F0EE82EFED7232EFCD7242EFAD7A5
:1013F80000F008012B9FD28E948E090E3918D8A4BC
:1014080010D0030E3518D8A40CD0D29E3F011F9FD0
:1014180020EC07F012D0000E356E12D0000E336E9D
:1014280013D0090E3918D8A411D03550D8A40ED02D
:10143800D29E3F011F9F44EC08F0000E396EEBD797
:101448003F01208D00F0EAD7D28E15D0190E391839
:10145800D8A414D03504D8A411D0D29E3F011F9F20
:10146800FAEC05F0000E396E000E356E3F01208D46
:1014780000F0010ED4D73F011F8F1FD0080E39642A
:101488001CD03504D8B419D03901A19F3F01208F51
:10149800208D00F03901918F949E000E396E000E58
:1014A800356E000E336E000E346E000E326EB7ECE1
:1014B80011F0D28E3F011F8F948E3350D8B49DD730
:1014C8003404D8A408D008012C51D8B404D0CB884F
:1014D800F00E7D6E01D0CB983304D8B47CEC03F0C9
:1014E800020E3318D8B403D0030E3318D8B40FEC57
:1014F80000F0D3EC0CF081D708013551D8A411D0F5
:101508003B0E3E01F16FF881F8B1FED7020EF16F84
:10151800F881000E0801346F000E366F010E356F2A
:1015280012003E01F8B1120008013651D8A40ED0BD
:1015380028D0030E03D0000E01D0010E3E01F16F3A
:1015480019D0000E356F000E366F12003451056E3B
:10155800066A0650000AD8A40DD00550000AD8B46F
:10156800E8D7010AD8B4E7D7030AD8B4E6D7010AFE
:10157800D8B4E7D70801342B000E366F3E01F88146
:101588001200010E366F3E01EF516F00C0FB05F0EF
:10159800066A05C006F0056A0526000E0622D890E0
:1015A80006320532D89006320532D8900632053216
:1015B80005C037F806C038F83B0EF16FF88164D0E3
:1015C8003751075D38510859D8B004D037C807F8E3
:1015D80038C808F80351375D04513859D8B004D0D9
:1015E80037C803F838C804F837C805F838C806F803
:1015F800120037510D5D38510E59D8B004D037C894
:101608000DF838C80EF80951375D0A513859D8B065
:1016180004D037C809F838C80AF837C80BF838C8EA
:101628000CF812003751135D38511459D8B004D052
:1016380037C813F838C814F80F51375D10513859A6
:10164800D8B004D037C80FF838C810F837C811F820
:1016580038C812F812003751195D38511A59D8B0E4
:1016680004D037C819F838C81AF81551375D16511B
:101678003859D8B004D037C815F838C816F837C85C
:1016880017F838C818F8120008013451056E066AB0
:101698000650000AD8A412000550000AD8B490D702
:1016A800010AD8B4A6D7030AD8B4BCD7010AD8A46B
:1016B8001200D1D7CEEC0FF02F50D8A431D02C5037
:1016C8004B026F00CCFF27F06F00D0FF28F02C50A2
:1016D8004C026F00CCFF25F06F00D0FF26F0000E03
:1016E800306E2C04546E010E2F6E4BC02EF04CC081
:1016F8002DF0000E1B6E0FD01B50760FD96EDA6AD4
:1017080060002FF1DFFF1B50600FD96EDA6A6000AE
:1017180033F1DFFF1B2A2C501B5CD8B01200ECD72A
:101728003050760FD96EDA6ADF50166E1650275E83
:10173800000E285A3050600FD96EDA6ADF50166EE4
:101748001650255E000E265A542A5450166E176AF3
:10175800FF0E2C24186E196AFF0E19221650185CF9
:101768001950800A1A6E1750800A1A58D8B002D039
:10177800000E546E4B502726000E28225450760F28
:10178800D96EDA6A60002FF1DFFF4C502526000E73
:1017980026225450600FD96EDA6A600033F1DFFFF9
:1017A800302A3050166E176AFF0E2C24186E196AEC
:1017B800FF0E19221650185C1950800A1A6E17501D
:1017C800800A1A58D8B002D0000E306E27C00BF02D
:1017D80028C00CF02CC00DF0C1EC04F02E6E25C012
:1017E8000BF026C00CF02CC00DF0C1EC04F02D6EEF
:1017F800810E4B6003D07E0E4B6008D02EC00BF0DC
:101808002DC80CF04B5010EC02F04B6E810E4C6062
:1018180003D07E0E4C6012002DC00BF02EC80CF0C9
:101828004C5010EC02F04C6E12003B0E3E01F16F72
:10183800F881F8B1FED7020EF16FF881F8B1FED742
:10184800EF516F00C0FB05F0066A05C006F0056A97
:101858000526000E0622D89006320532D8900632A8
:101868000532D8900632053205C007F006C008F0E8
:1018780007C007F808C008F807C003F808C004F84C
:1018880007C005F808C006F83B0EF16FF881F8B1FB
:10189800FED7030EF16FF881F8B1FED7EF516F0054
:1018A800C0FB05F0066A05C006F0056A0526000EAD
:1018B8000622D89006320532D89006320532D890E2
:1018C8000632053205C007F006C008F007C00DF85B
:1018D80008C00EF807C009F808C00AF807C00BF8D6
:1018E80008C00CF83B0EF16FF881F8B1FED7000E76
:1018F800F16FF881F8B1FED7EF516F00C0FB05F02A
:10190800066A05C006F0056A0526000E0622D8906C
:1019180006320532D89006320532D89006320532A2
:1019280005C007F006C008F007C013F808C014F88F
:1019380007C00FF808C010F807C011F808C012F85F
:101948003B0EF16FF881F8B1FED7010EF16FF88107
:10195800F8B1FED7EF516F00C0FB05F0066A05C06D
:1019680006F0056A0526000E0622D89006320532D2
:10197800D89006320532D8900632053205C007F0F5
:1019880006C008F007C019F808C01AF807C015F80B
:1019980008C016F807C017F808C018F81200CAB827
:1019A80021D02950D8A41ED0CCB203D0020E296E63
:1019B8001200CBBA03D0030E296E1200CCBA03D0A2
:1019C800050E296E1200CCB803D0040E296E120041
:1019D800CCBC03D0070E296E1200CCBE1200060E36
:1019E800296E12002950D8B41200CCA20ED0020ED3
:1019F8002918D8A40AD008012D2B0E0E2D6502D067
:101A08000E0E2D6F080E296E1200CBAA0CD0030EF5
:101A18002918D8A408D008012D51D8A402D0000E46
:101A2800F0D72D07EFD7CCA80BD0050E2918D8A4CE
:101A380007D008012E2B0E0E2E65E4D70E0E0BD004
:101A4800CCAA0DD0040E2918D8A409D008012E510B
:101A5800D8A403D0000E2E6FD5D72E07D3D7CCAC81
:101A68000CD0070E2918D8A408D0040E08012F2777
:101A78001B0E2F65C7D71C0E10D0CCAE10D0060E8B
:101A88002918D8A40CD0040E08012F5F2F51D8B400
:101A980003D01C0E2F65B6D7000E2F6FB3D7080ED4
:101AA8002918D8A41200D29E3F011F9F32EC0EF0D5
:101AB80073EC11F00A0E196E580EE82EFED7192E87
:101AC800FCD700D03DEC10F00A0E196E580EE82E27
:101AD800FED7192EFCD700D0000E296E3901A19F20
:101AE8003F01208F208D00F03901918F949E000EC8
:101AF800396E000E356E000E336E000E346E000E19
:101B0800326EB7EC11F0D28E3F011F8F948E120007
:101B180005C00FF006C010F009500A10D8B4120022
:101B280060003FF0D9FF600043F0DAFF60001FF06B
:101B3800DFFF09500F240B6E0A5010200C6EFF0EA9
:101B48000B24D96EFF0E0C20DA6E60001FF0DFFF49
:101B58000A5004E1030E095CD8A0120020EE01F03F
:101B68000F50D9261050DA2260001FF0DFFF20EE58
:101B780002F00F50D9261050DA2260001FF0DFFF64
:101B880009500F240B6E0A5010200C6EFE0E0B2409
:101B9800D96EFF0E0C20DA6E60001FF0DFFF0950CF
:101BA8000F240B6E0A5010200C6EFD0E0B24D96EFC
:101BB800FF0E0C20DA6E60001FF0DFFF0A5004E110
:101BC800070E095CD8A0120020EE03F00F50D926AA
:101BD8001050DA2260001FF0DFFF09500F240B6E4F
:101BE8000A5010200C6EFC0E0B24D96EFF0E0C2030
:101BF800DA6E60001FF0DFFF0A5004E1090E095C8D
:101C0800D8A012000FC00BF010C00CF00B1E0C1E59
:101C18000B4A0C2A030E0B140D6E0E6A0D500F267C
:101C28000E5010220D50095E0E500A5AFC0E09166D
:101C3800FF0E0A160ED060003FF0D9FF600043F097
:101C4800DAFF60001FF0DFFF0906D8A00A060F4A76
:101C5800102A09500A10D8B41200EDD707C80CF0A2
:101C680008C80DF008012F5105250E6E000E06213B
:101C78000F6E9FEC10F00CC01BF80DC01CF808018B
:101C88002F51055D0C6E0651D8A006050D6E03C8D0
:101C98000EF004C80FF09FEC10F00CC01DF80DC03A
:101CA8001EF813C80CF014C80DF008012F511125A7
:101CB8000E6E000E12210F6E9FEC10F00CC023F870
:101CC8000DC024F808012F51115D0C6E1251D8A0D7
:101CD80012050D6E0FC80EF010C80FF09FEC10F033
:101CE8000CC025F80DC026F80DC80CF00EC80DF074
:101CF80008012F510B250E6E000E0C210F6E9FEC64
:101D080010F00CC01FF80DC020F808012F510B5D12
:101D18000C6E0C51D8A00C050D6E09C80EF00AC83F
:101D28000FF09FEC10F00CC021F80DC022F819C874
:101D38000CF01AC80DF008012F5117250E6E000E71
:101D480018210F6E9FEC10F00CC027F80DC028F872
:101D580008012F51175D0C6E1851D8A018050D6E8B
:101D680015C80EF016C80FF09FEC10F00CC029F83B
:101D78000DC02AF812006F0060FC31F0390191BFE4
:101D8800A1AF49D0A19F000E926E3250D8B443D073
:101D9800000100F029D031515561358139D03151D8
:101DA8005561358335D031515561348131D000F0DA
:101DB8003F011F9F3901A19F3F01208F208D00F017
:101DC8003901918F949E000E396E000E356E000E0B
:101DD800336E000E346E000E326ECCEC11F0D28EE3
:101DE8003F011F8F948E14D03950036E046A04503B
:101DF800000AD8A40DD00350010AD8B4CCD7060ADB
:101E0800D8B4CDD7100AD8B4CED70D0AD8B4CFD706
:101E18000001392B00F0390199A31100A9A3110081
:101E2800A9933250D8A411003F011F9F00F0390137
:101E3800A19F3F01208F208D00F0010E326E3901E5
:101E480099933F011F8F1100000E0801016F000ECA
:101E5800006F4A0E026F000E046F5E0E036F000ED5
:101E6800066FFE0E056F010E086F7E0E076F000EDF
:101E78000A6F7C0E096F000E0C6F0B69010E0E6F56
:101E88009F0E0D6F000E106F6C0E0F6F000E126F0D
:101E9800EC0E116F010E146F810E136F000E166F8A
:101EA8005F0E156F000E186FEC0E176F010E1A6F8C
:101EB8007C0E196F000E1C6FE30E1B6F000E1E6F59
:101EC800B00E1D6F000E206FA30E1F6F000E226F45
:101ED800E30E216F000E246FC00E236F000E266FD5
:101EE800E30E256F000E286FC20E276F000E2A6FB3
:101EF800CC0E296F000E2D6F000E2E6F32EC0EF0F7
:101F0800000E08012B6F000E2C6F100E2F6F1200A1
:101F1800000E0A6E08AE06D0076C081ED8B0082A54
:101F2800010E0A6E06AE06D0056C061ED8B0062A4B
:101F3800010E0A1A000E0C6E000E0B6E07500810E8
:101F4800D8B41CD0010E096E04D0D89007360836D4
:101F5800092A08AEFAD7D8900B360C360750055C1C
:101F680008500658D8A005D00750055E0850065AF4
:101F78000B80D89008320732092EEDD70A50D8B412
:101F880004D00B6C0C1ED8B00C2A0BC005F00CC08A
:101F980006F012006F0048FE0DF00E6A000E926EF9
:101FA8003D500D5C056E3E500E58066E5AEC11F011
:101FB80006BE27D0065004E1050E055CD8A021D046
:101FC8000DC03DF00EC03EF03EBE06D03E5006E1CC
:101FD8000E0E3D5CD8B002D0160E10D03901A9A360
:101FE80002D0010E0BD0010E066E200E056E3DC00C
:101FF80007F03EC008F08CEC0FF005502C6E000E78
:102008002F6E3901A9931200F00EBA6E270EBB6E1F
:10201800FB0EBC6EC268E70EC36EC468000E3A01C0
:10202800606F000E506F0F0E406F000E816F230E11
:10203800516FF00E416FFB0E616F000E426F000E84
:10204800526F000E626F436953696369446954694A
:102058006469080E846F579556855595000E056E70
:10206800000E066E5CEC12F0090E0B6F0A0ED26FB2
:102078001200000E056E080E066E000E086E000EA9
:10208800076E000E0A6E300E096E8CEC0DF0000E15
:10209800166E080E176E000E186E040018501624DF
:1020A800D96E000E1720DA6E18C005F0066A16EC15
:1020B80012F0DF6E020E1818D8A40AD04A0E0801D2
:1020C8000219D8B405D028EC0FF073EC11F0120007
:1020D800182A2F0E1864E1D71200000E3E01DE6F99
:1020E800000EDF6F000EE06F000EE16F000EE46F70
:1020F800000EE56F000EEA6F000EEC6F000EF16F38
:10210800180EF36F000EF46F000EF56F000EF66FE9
:10211800000EF76F010EF96F000EFA6F000EFB6FDD
:10212800000EFC6F000EFD6F000EFE6F010EFF6FBC
:10213800840EF86F12000E500C5C106E0F500D5884
:10214800116E10C007F011C008F0270E066E100EB1
:10215800056EC9EC10F005C006F0056A05C014F05C
:1021680006C015F014C005F015C006F0000E086E84
:10217800640E076EC9EC10F005C012F006C013F02B
:1021880012C00CF013C00DF01200000E0A6E000E03
:10219800096E07500810D8B41CD0010E0B6E04D07D
:1021A800D890073608360B2A08AEFAD7D8900936E1
:1021B8000A360750055C08500658D8A005D00750C5
:1021C800055E0850065A0980D890083207320B2E4F
:1021D800EDD709C005F00AC006F01200660EF66ECB
:1021E800240EF76E000EF86E00EE3FF010EE18F0B9
:1021F80009006F00D7FFEEFFE550E150F9E100EE6E
:1022080060F02C0EEE6AE806FDE100EE25F01A0EED
:10221800EE6AE806FDE1080ED56E000ED66E000ED9
:10222800D76E000EF86E000168EF09F0000ED2BEFE
:10223800010E086E0650030B3901E16F600017F0BC
:10224800E0F960001FF0E3F93F0EE517E585D29E3F
:10225800550EE66FAA0EE66FE583E5B3FED7E59562
:1022680008B002D0D29E01D0D28E1200000E080112
:10227800346F000E356F000E366F000E386F000E8B
:10228800376F000E3A6F000E396F000E3C6F000E6C
:102298003B6F000E3E6F000E3D6F000E406F000E4C
:1022A8003F6F000E426F000E416F120006BE05D050
:1022B800065010E10504D8B00DD005C007F006C0DF
:1022C80008F0071E081E074A082A07C005F008C0BC
:1022D80006F0120005C005F006C006F01200000E58
:1022E800096E080E0A6E000E0B6E0BC005F0066A2A
:1022F8000B500924D96E000E0A20DA6EDF50076EE3
:102308001AEC11F00B2A2F0E0B64EFD71200990E5E
:102318003F011E6FC30E1F6F000E206F010E216F4D
:102328000A0E236F000E226F1D691C691B69208F1E
:10233800208D3901918F3F011F8F12000550070230
:102348006F00CCFF09F06F00D0FF0AF005500802BB
:10235800F3500A2606500702F3500A2609C005F072
:102368000AC006F01200020E966E600E956E000E00
:10237800976E9368000E926E3901A9939983000EA7
:10238800056E000E066E57EC12F0F00E946E1200F9
:10239800020E966E600E956E000E976E9368000E94
:1023A800926EA9939983000E016E000E026E66EC80
:1023B80012F0F00E946E120061EC12F005EC12F0BF
:1023C80008EC10F04BEC12F03FEC12F0B7EC11F007
:1023D80071EC10F025EC12F08BEC11F01200010EEC
:1023E8000D24056E000E0E20066E0BC007F00CC003
:1023F80008F0A2EC11F006500801436F446B4351FA
:102408001200000EC06F000EC16F000EC26F000EEA
:10241800C36F000EC46F000EC56F000EC66F000EAE
:10242800C76F12000650030B3901E16F600017F007
:10243800E0F93F0EE517E58100F000F03901E351BE
:102448001200010EA26E000EA16E000EA36E9F6810
:10245800000E9E6E3901A895800EA06E12000080B5
:1024680080808080000002020080808080800000E0
:102478000900031664089C0E7E6EF00E7D6E000E39
:102488007C6E3F015E51FC0B02095E6F1200600E0C
:102498003901D96F000EDB6F000EDD6F080EDF6F9C
:1024A800000EDE6F120005C057F006C058F012008B
:1024B80005C059F006C05AF01200D28A3901898342
:1024C800818F120001C057F002C058F012005F0E51
:0424D800556E12002B
:020000040020DA
:10000000FF0FFF0FFF0FFF0FFF0FFF0FFF0FFF0F80
:020000040030CA
:0A0000008CFFF7FF9FFFFFFFFFFFDB
:00000001FF
