:040000000DEF00F010
:0400080025EF0FF0E1
:10001800FF00EAEF10F0020E4B18D8A40AD0000E29
:100028002F6E800E306E000E356E000E366E030E8B
:100038004B6ECCB603D0056A052A01D0056A05388F
:10004800F00B2F1208013351D8A425D0CCB003D01F
:10005800056A052A01D0056AD8900536D890053674
:10006800D89005342F12CABC03D0056A052A01D0DE
:10007800056AD8900536D89005342F12CABE03D029
:10008800056A052A01D0056AD89005342F12CABA24
:1000980025D0010E24D0CABC03D0056A052A01D098
:1000A800056AD8900536D8900536D89005342F12B1
:1000B800CCB003D0056A052A01D0056AD890053668
:1000C800D89005342F12CABA03D0056A052A01D080
:1000D800056AD89005342F12CAAEDBD7000E2F124E
:1000E80008012B51D8A43ED0CCBA03D0056A052A02
:1000F80001D0056A060E066ED8900536062EFCD786
:1001080005503012CCAA04D0000E086E000E03D0A1
:10011800000E086E800E076E07503512CCB803D05B
:10012800056A052A01D0056A050E066ED8900536BF
:10013800062EFCD705503012CCA804D0000E0A6E4B
:10014800000E03D0000E0A6E800E096E095036129A
:10015800CBBA03D0056A052A01D0056A0538F00B29
:1001680030128AD02B05D8A443D0CCBA03D0056A64
:10017800052A01D0056A060E066ED8900536062EA9
:10018800FCD705503012CCAA04D0000E0C6E000E1D
:1001980003D0000E0C6E800E0B6E0B503512CCB8CF
:1001A80003D0056A052A01D0056A050E066ED890A7
:1001B8000536062EFCD705503012CCA804D0000E08
:1001C8000E6E000E03D0000E0E6E800E0D6E0D50DA
:1001D8003612CCA204D0000E106E000E03D0000E12
:1001E800106E800E0F6E0F503612CBBAE4D046D088
:1001F800020E2B19D8A445D0CCBA03D0056A052A1B
:1002080001D0056A060E066ED8900536062EFCD774
:1002180005503012CCAA04D0000E126E000E03D086
:10022800000E126E800E116E11503512CBAA04D03A
:10023800000E146E000E03D0000E146E800E136EA6
:1002480013503512CCB803D0056A052A01D0056AC7
:10025800050E066ED8900536062EFCD705503012CE
:10026800CCA804D0000E166E000E03D0000E166E39
:10027800800E156E15503612CCB29DD0056A052A2F
:100288009BD0030E2B19D8A44DD0CCBA03D0056A45
:10029800052A01D0056A060E066ED8900536062E88
:1002A800FCD705503012CCAA04D0000E186E000EF0
:1002B80003D0000E186E800E176E17503512CBAA99
:1002C80004D0000E1A6E000E03D0000E1A6E800EB7
:1002D800196E19503512CCB803D0056A052A01D019
:1002E800056A050E066ED8900536062EFCD7055011
:1002F8003012CCA804D0000E1C6E000E03D0000EE5
:100308001C6E800E1B6E1B503612CCA204D0000E41
:100318001E6E000E03D0000E1E6E800E1D6E1D5048
:1003280036124DD0040E2B19D8A449D0CCBA03D01C
:10033800056A052A01D0056A060E066ED8900536AC
:10034800062EFCD705503012CCAA04D0000E206E21
:10035800000E03D0000E206E800E1F6E1F50351247
:10036800CCB803D0056A052A01D0056A050E066EC9
:10037800D8900536062EFCD705503012CCA804D0EC
:10038800000E226E000E03D0000E226E800E216E2B
:1003980021503612CBB203D0056A052A01D0056A6E
:1003A8000538F00B3012CBBA02D0010E01D0000E86
:1003B8003012CCA263D7056A0538F00B3012CCBCDA
:1003C80003D0056A052A01D0056AD8900536D89069
:1003D8000536D89005343012CCBE03D0056A052AFC
:1003E80001D0056AD8900536D89005343012CBB0C4
:1003F80003D0056A052A01D0056AD8900534301261
:10040800040E08012B19D8B41200CBB202D0010E89
:1004180001D0000E30121200156E31D115502AD1BC
:100428001550080D6F00CCFF0DF06F00D0FF0EF0D7
:100438000B500D24056E000E0E20066E000E086E81
:100448001C0E076E81EC11F014D01550050D6F00CD
:10045800CCFF0DF06F00D0FF0EF00B500D24056E91
:10046800000E0E20066E000E086E2A0E076E81EC36
:1004780011F006C005F0066A05BE066805C011F051
:1004880006C012F027D01550030D6F00CCFF0DF0F9
:100498006F00D0FF0EF00B50B4D01550020D6F0056
:1004A800CCFF0DF06F00D0FF0EF015C00FF0D89004
:1004B8000F320F500D26000E0E220B500D24056E24
:1004C800000E0E20066E000E086E490E076E81ECB7
:1004D80011F0CFD7000E12BEFF0E136E146E05D1A9
:1004E8001550020D6F00CCFF0DF06F00D0FF0EF01D
:1004F8000B500D24056E000E0E20066E000E086EC1
:10050800550E076E81EC11F0B4D715C00DF0D890D8
:100518000D320D5015C00EF00F6A0E26000E0F2278
:100528000B500E24056E000E0F20066E000E086E8E
:10053800660E076E81EC11F09CD70B5015C00DF0BC
:100548000E6A0D26000E0E220E340E30106E0D307F
:100558000F6E0FC011F010C012F0BCD70BC00DF019
:10056800D8900D320D500BC00EF00F6A0E26000EFB
:100578000F2215500E24056E000E0F20066E000E79
:10058800086E660E076E81EC11F073D70B50020DE2
:100598006F00CCFF0DF06F00D0FF0EF015500D244A
:1005A800056E000E0E20066E000E086E550E076EC4
:1005B80081EC11F05ED70B50020D6F00CCFF0DF0EF
:1005C8006F00D0FF0EF00BC00FF0D8900F320F5015
:1005D8000D26000E0E2215500D24056E000E0E205D
:1005E800066E000E086E490E076E81EC11F041D7B9
:1005F8000B50030D6F00CCFF0DF06F00D0FF0EF015
:1006080015500D26000E0E220E340E320D320E3409
:100618000E320D320DC011F00EC012F05BD70B5028
:10062800050D6F00CCFF0DF06F00D0FF0EF01550D8
:100638000D24056E000E0E20066E000E086E2A0EA2
:10064800076E81EC11F015D70B50080D6F00CCFF29
:100658000DF06F00D0FF0EF015500D24056E000E42
:100668000E20066E000E086E1C0E076E81EC11F04F
:1006780000D70B50116E126A136A146A36D00C50E8
:100688000D6E0E6A0E50000AD8A4C8D60D50000A86
:10069800D8B4C4D6010AD8B4C3D6030AD8B4D5D6B8
:1006A800010AD8B4F0D6070AD8B4F7D6010AD8B4E4
:1006B80017D7030AD8B429D7010AD8B43ED70F0AE6
:1006C800D8B44CD7010AD8B461D7030AD8B473D7C1
:1006D800010AD8B48DD7070AD8B4A1D7010AD8B46B
:1006E800B3D7030AD8B4C5D799D600F01150120071
:1006F800BFEC11F032EC11F04BEC12F0000E3E01A1
:10070800F16FF88F35EC10F0000E0801326F000E13
:10071800336F2B45010B3313CCAACCB806D0334129
:10072800800B2B6F52EC11F02CD0CCAACBBA05D091
:100738003351800DF350020FF4D7CCA8CCB204D0BB
:100748003351800DF328EDD7CCA2CBBA05D0335165
:10075800800DF350030FE5D7CABE05D03351800D85
:10076800F350040FDED7CCB00CD03351D8A402D04C
:10077800010E01D0000E336F2B9F3341800B2B13DA
:10078800D1D7CAA8CCB605D09CEC0FF052EC11F02A
:1007980034D0CCB609D008012C51D8A402D0010E0F
:1007A80001D0000E2C6FF2D7CAB827D0010E08016D
:1007B800326F620E246E670E236ECE0EE82EFED7C1
:1007C800232EFCD7242EFAD7ADEC0BF016D0CCB6DE
:1007D8000AD038EC0DF052EC11F035EC10F0000EA8
:1007E8000801326F0ED0CDEC0AF0150E236EC60E3E
:1007F800E82EFED7232EFCD700D008013205D8B446
:10080800E6D7150E236EC60EE82EFED7232EFCD78C
:1008180000D008012B9FD28E948E47D04B04D8A4C9
:1008280010D04C04D8A408D008012C51D8B404D056
:10083800CB88F00E7D6E01D0CB98D9EC04F07FEC1C
:100848000CF00FEC00F0190E5118D8A413D0400E7C
:100858004D18D8A40FD0D29E3F011F9F5DEC07F022
:10086800000E516E000E4D6E3F01208D010E4B6E35
:10087800D28E34D0090E516418D04DBC16D039012F
:10088800A19F3F01208F208D00F03901918F949E08
:10089800000E516E000E4D6E000E4B6E000E4C6E2B
:1008A800000E4A6E96EC11F078D04B50D8B479D03F
:1008B800B5D7090E5118D8A413D0410E4D18D8A495
:1008C8000FD0D29E3F011F9F85EC08F02CD0000E60
:1008D8004D6E2CD0000E4B6E2DD03F011F8F61D076
:1008E800190E5118D8A406D0D29E3F011F9F85EC3F
:1008F80008F019D0090E5118D8A409D04D50D8A421
:1009080006D0D29E3F011F9FA9EC09F00CD0090E1A
:100918005118D8A411D04D28D8A40ED0D29E3F018A
:100928001F9FA9EC09F0000E516ED1D73F01208D11
:1009380000F0D0D7D28ED1D7190E5118D8A413D021
:10094800400E4D18D8A40FD0D29E3F011F9F5DECDA
:1009580007F0000E516E000E4D6E010E4B6ED28EDA
:100968003F011F8FA2D7090E51641BD04DBC19D06F
:100978003901A19F3F01208F208D00F03901918F0F
:10098800949E000E516E000E4D6E000E4B6E000EC2
:100998004C6E000E4A6E96EC11F0D28E3F011F8FFE
:1009A800948E4B50D8A481D784D708013551D8A448
:1009B80011D03B0E3E01F16FF881F8B1FED7020E5F
:1009C800F16FF881000E0801346F000E366F010ECA
:1009D800356F12003E01F8B1120008013651D8A453
:1009E80013D02DD0030E03D0000E01D0010E3E010E
:1009F800F16F1ED08BEC0EF0020E4B6E000E08014C
:100A0800356F000E366F12003451186E196A19507E
:100A1800000AD8A40DD01850000AD8B4E3D7010AA8
:100A2800D8B4E2D7030AD8B4E1D7010AD8B4E2D7D8
:100A38000801342B000E366F3E01F8811200010EBA
:100A4800366F3E01EF516F00C0FB18F0196A18C0ED
:100A580019F0186A1826000E1922D890193218327F
:100A6800D89019321832D8901932183218C01AF0A2
:100A780019C01BF0600068F037F860006CF038F8B7
:100A88003B0EF16FF88154D007C839F808C83AF816
:100A980003C83BF804C83CF805C83DF806C83EF84A
:100AA8001BC83FF81CC840F81DC841F81EC842F8CA
:100AB80054D00DC839F80EC83AF809C83BF80AC826
:100AC8003CF80BC83DF80CC83EF81FC83FF820C8D2
:100AD80040F821C841F822C842F83FD013C839F875
:100AE80014C83AF80FC83BF810C83CF811C83DF8CC
:100AF80012C83EF823C83FF824C840F825C841F872
:100B080026C842F82AD019C839F81AC83AF815C8B8
:100B18003BF816C83CF817C83DF818C83EF827C86F
:100B28003FF828C840F829C841F82AC842F815D023
:100B380008013451186E196A1950000AD8A40DD04A
:100B48001850000AD8B4A0D7010AD8B4B2D7030AFB
:100B5800D8B4C4D7010AD8B4D6D72F513D25186EBA
:100B6800000E3E21196E3751185C38511958D8B00B
:100B780029D02F513D27000E3E233D07D8A03E0720
:100B88003951375D3A513859D8A007D03451310F0F
:100B9800D96EDA6AE40EDF6E12003451310FD96E65
:100BA800DA6A3D51375D0B6E3E5138590C6E620062
:100BB800FCF00DF0620000F10EF0D2EC11F0810FA4
:100BC800DF6E12002F513D5D186E000E3E59196EF2
:100BD8001850375D19503859D8B02BD02F513D5F78
:100BE800000E3E5B3D07D8A03E0737513B5D3851AC
:100BF8003C59D8A007D03451310FD96EDA6A1C0E8F
:100C0800DF6E12003451310FD96EDA6A37513D5D0B
:100C18000B6E38513E590C6E620004F10DF0620003
:100C280008F10EF0D2EC11F0186E18507F08DF6E44
:100C380012003451310FD96EDA6A7F0EDF6E12005E
:100C4800EAD0000E12000B501200D8900C300F6E34
:100C58000B300E6E0E5012000BC005F00CC006F0E3
:100C6800000E086E550E076E81EC11F005C011F0EC
:100C780006C012F0136A146A125012000BC00EF06C
:100C88000CC00FF0D8900F320E32D8900F320E32BF
:100C98000E5012000BC005F00CC006F0000E086ED6
:100CA800330E076E81EC11F0E1D70BC005F00CC0D4
:100CB80006F0000E086E2B0E076E81EC11F0D6D7E9
:100CC8000BC005F00CC006F0000E086E250E076E6E
:100CD80081EC11F0CBD70BC00EF00CC00FF0D89000
:100CE8000F320E32D8900F320E32D8900F320E32A9
:100CF8000E5012000BC005F00CC006F0000E086E76
:100D08001C0E076E81EC11F0B1D70BC005F00CC0BA
:100D180006F0000E086E190E076E81EC11F0A6D7CA
:100D28000BC005F00CC006F0000E086E170E076E1B
:100D380081EC11F09BD70BC005F00CC006F0000E3B
:100D4800086E150E076E81EC11F090D70BC005F0F8
:100D58000CC006F0000E086E140E076E81EC11F040
:100D680085D70BC005F00CC006F0000E086E120EF9
:100D7800076E81EC11F07AD70BC005F00CC006F0B5
:100D8800000E086E110E076E81EC11F06FD70BC0C4
:100D98000EF00CC00FF0040E106ED8900F320E3209
:100DA800102EFBD70E5012000BC005F00CC006F039
:100DB800000E086E0F0E076E81EC11F057D70BC0AE
:100DC80005F00CC006F0000E086E0E0E076E81ECE2
:100DD80011F04CD70BC005F00CC006F0000E086EE1
:100DE8000D0E076E81EC11F041D70BC005F00CC059
:100DF80006F0000E086E0C0E076E81EC11F036D767
:100E08000BC005F00CC006F0000E086E0B0E076E46
:100E180081EC11F02BD70D500E6E0F6A0F50000A9F
:100E2800D8A411D70E50000AD8B40BD7010AD8B4E9
:100E38000AD7030AD8B409D7010AD8B40DD7070AC4
:100E4800D8B41CD7010AD8B425D7030AD8B42DD7EB
:100E5800010AD8B435D70F0AD8B43DD7010AD8B497
:100E680049D7030AD8B451D7010AD8B459D7070AC1
:100E7800D8B461D7010AD8B469D7030AD8B471D7EE
:100E8800010AD8B479D71F0AD8B481D7010AD8B4CF
:100E98008BD7030AD8B493D7010AD8B49BD7070ACB
:100EA800D8B498D7010AD8B4A0D7030AD8B4A8D719
:100EB800CAD600012F0EE96E080E536F3F01D29F6C
:100EC8000000000100000000000000000000000019
:100ED80000000000C3946F00BCFF54F03D6B3D87D9
:100EE800CB9454AFB3EF07F03D4F23EF08F0000069
:100EF80000000000000000000000000000000000EA
:100F080000000000CB84000000000000000000008A
:100F180000000000000000000000000000000000C9
:100F280000000000000000000000000000000000B9
:100F380000000000000000000000000000000000A9
:100F48000000000000000000000000000000000099
:100F580000000000000000000000F1EF07F03D4F26
:100F680053EF08F00000000000000000000000003F
:100F78000000000000000000000000000000000069
:100F88000000000000000000000000000000000059
:100F98000000000000000000000000000000000049
:100FA8000000000000000000000000000000000039
:100FB800000000000000000000000000CB840000DA
:100FC8000000000000000000000000000000000019
:100FD80000000000000000000000543774EF07F024
:100FE800E92A532F6FEF07F000000000000000000F
:100FF800CB9400000000000000000000000000008A
:1010080000000000000000000000000000000000D8
:1010180000000000000000000000000000000000C8
:1010280000000000000000000000000000000000B8
:1010380000000000CB843F01D28FC384120000005F
:101048000000000000000000000000000000000098
:101058000000CB8400000000000000000000000039
:101068000000000000000000000000000000000078
:101078000000000000000000000000000000000068
:101088000000000000000000000000000000000058
:1010980000000000000000000000F4EF07F000006E
:1010A8000000000000000000000000000000000038
:1010B8000000000000000000000000000000000028
:1010C8000000000000000000000000000000000018
:1010D8000000000000000000000000000000000008
:1010E80000000000000000000000000000000000F8
:1010F8000000CB840000000000000000F4EF07F0BF
:1011080012000001250EE96E0A0E536F3F01D29FAF
:1011180000000001000000000000000000000000C6
:1011280000000000C3946F00BCFF54F03D6B3D8786
:10113800CB9454AFD9EF08F03D4F49EF09F00000C8
:101148000000000000000000000000000000000097
:10115800CB84000000000000000000000000000038
:101168000000000000000000000000000000000077
:101178000000000000000000000000000000000067
:101188000000000000000000000000000000000057
:101198000000000000000000000000000000000047
:1011A80000000000000011EF09F03D4F79EF09F051
:1011B8000000000000000000000000000000000027
:1011C8000000000000000000000000000000000017
:1011D8000000000000000000000000000000000007
:1011E80000000000000000000000000000000000F7
:1011F80000000000000000000000000000000000E7
:101208000000CB8400000000000000000000000087
:101218000000000000000000000054379CEF08F0B8
:10122800E92A532F97EF08F00000000000000000A3
:10123800000000000000000000000000CB94000047
:101248000000000000000000000000000000000096
:101258000000000000000000000000000000000086
:101268000000000000000000000000000000000076
:101278000000000000000000000000000000000066
:10128800CB843F01D28FC38412000000000000000D
:101298000000000000000000000000000000CB84F7
:1012A8000000000000000000000000000000000036
:1012B8000000000000000000000000000000000026
:1012C8000000000000000000000000000000000016
:1012D8000000000000000000000000000000000006
:1012E80000000000000014EF09F0000000000000FA
:1012F80000000000000000000000000000000000E6
:1013080000000000000000000000000000000000D5
:1013180000000000000000000000000000000000C5
:1013280000000000000000000000000000000000B5
:101338000000000000000000000000000000CB8456
:101348000000000014EF09F012000001370EE96EEA
:10135800030E536F3F01D29F000000010000000000
:10136800000000000000000000000000C3946F00AF
:10137800BCFF54F03D6B3D87CB9454AFFDEF09F0B3
:101388003D4F6DEF0AF00000000000000000000073
:101398000000000000000000CB84000000000000F6
:1013A8000000000000000000000000000000000035
:1013B8000000000000000000000000000000000025
:1013C8000000000000000000000000000000000015
:1013D8000000000000000000000000000000000005
:1013E800000000000000000000000000000035EFD1
:1013F8000AF03D4F9DEF0AF00000000000000000D9
:1014080000000000000000000000000000000000D4
:1014180000000000000000000000000000000000C4
:1014280000000000000000000000000000000000B4
:1014380000000000000000000000000000000000A4
:1014480000000000000000000000CB840000000045
:101458000000000000000000000000000000000084
:1014680000005437C0EF09F0E92A532FBBEF09F009
:101478000000000000000000000000000000000064
:1014880000000000CB9400000000000000000000F5
:101498000000000000000000000000000000000044
:1014A8000000000000000000000000000000000034
:1014B8000000000000000000000000000000000024
:1014C8000000000000000000CB843F01D28FC384DD
:1014D80012000000000000000000000000000000F2
:1014E800000000000000CB840000000000000000A5
:1014F80000000000000000000000000000000000E4
:1015080000000000000000000000000000000000D3
:1015180000000000000000000000000000000000C3
:10152800000000000000000000000000000038EF8C
:101538000AF00000000000000000000000000000A9
:101548000000000000000000000000000000000093
:101558000000000000000000000000000000000083
:101568000000000000000000000000000000000073
:101578000000000000000000000000000000000063
:10158800000000000000CB840000000038EF0AF0E3
:10159800120008013551D8A411D03B0E3E01F16F5D
:1015A800F881F8B1FED7020EF16FF881000E08013C
:1015B800346F000E366F010E356F12003E01F8B120
:1015C800120008013651D8A40ED028D0030E03D03B
:1015D800000E01D0010E3E01F16F19D0000E356FDB
:1015E800000E366F12003451056E066A0650000A66
:1015F800D8A40DD00550000AD8B4E8D7010AD8B449
:10160800E7D7030AD8B4E6D7010AD8B4E7D7080160
:10161800342B000E366F3E01F8811200010E366F32
:101628003E01EF516F00C0FB05F0066A05C006F0E9
:10163800056A0526000E0622D89006320532D89093
:1016480006320532D89006320532600014F037F8B9
:10165800600018F038F83B0EF16FF88164D037510C
:10166800075D38510859D8B004D037C807F838C8CA
:1016780008F80351375D04513859D8B004D037C839
:1016880003F838C804F837C805F838C806F812004F
:1016980037510D5D38510E59D8B004D037C80DF800
:1016A80038C80EF80951375D0A513859D8B004D0F6
:1016B80037C809F838C80AF837C80BF838C80CF81A
:1016C80012003751135D38511459D8B004D037C8B7
:1016D80013F838C814F80F51375D10513859D8B07D
:1016E80004D037C80FF838C810F837C811F838C808
:1016F80012F812003751195D38511A59D8B004D070
:1017080037C819F838C81AF81551375D16513859BD
:10171800D8B004D037C815F838C816F837C817F83D
:1017280038C818F8120008013451056E066A0650C8
:10173800000AD8A412000550000AD8B490D7010AAC
:10174800D8B4A6D7030AD8B4BCD7010AD8A41200C3
:10175800D1D73B0E3E01F16FF881F8B1FED7020EEA
:10176800F16FF881F8B1FED7EF516F00C0FB05F0BB
:10177800066A05C006F0056A0526000E0622D890FE
:1017880006320532D89006320532D8900632053234
:1017980005C007F006C008F060001CF007F86000FC
:1017A80020F008F860001CF003F8600020F004F84E
:1017B80060001CF005F8600020F006F83B0EF16FA1
:1017C800F881F8B1FED7030EF16FF881F8B1FED7B2
:1017D800EF516F00C0FB05F0066A05C006F0056A08
:1017E8000526000E0622D89006320532D890063219
:1017F8000532D8900632053205C007F006C008F059
:1018080060001CF00DF8600020F00EF860001CF07D
:1018180009F8600020F00AF860001CF00BF860007E
:1018280020F00CF83B0EF16FF881F8B1FED7000EEE
:10183800F16FF881F8B1FED7EF516F00C0FB05F0EA
:10184800066A05C006F0056A0526000E0622D8902D
:1018580006320532D89006320532D8900632053263
:1018680005C007F006C008F060001CF013F860001F
:1018780020F014F860001CF00FF8600020F010F859
:1018880060001CF011F8600020F012F83B0EF16FB8
:10189800F881F8B1FED7010EF16FF881F8B1FED7E3
:1018A800EF516F00C0FB05F0066A05C006F0056A37
:1018B8000526000E0622D89006320532D890063248
:1018C8000532D8900632053205C007F006C008F088
:1018D80060001CF019F8600020F01AF860001CF095
:1018E80015F8600020F016F860001CF017F860008A
:1018F80020F018F81200CAB821D04250D8A41ED03F
:10190800CCB203D0020E426E1200CBBA03D0030E43
:10191800426E1200CCBA03D0050E426E1200CCB84B
:1019280003D0040E426E1200CCBC03D0070E426EE8
:101938001200CCBE1200060E426E12004250D8B4FD
:101948001200CCA20ED0020E4218D8A40AD0080168
:101958002D2B0E0E2D6502D00E0E2D6F080E426E29
:101968001200CBAA0CD0030E4218D8A408D0080144
:101978002D51D8A402D0000EF0D72D07EFD7CCA850
:101988000BD0050E4218D8A407D008012E2B0E0E36
:101998002E65E4D70E0E0BD0CCAA0DD0040E42183B
:1019A800D8A409D008012E51D8A403D0000E2E6F58
:1019B800D5D72E07D3D7CCAC0CD0070E4218D8A455
:1019C80008D0040E08012F271B0E2F65C7D71C0E41
:1019D80010D0CCAE10D0060E4218D8A40CD0040EED
:1019E80008012F5F2F51D8B403D01C0E2F65B6D72E
:1019F800000E2F6FB3D7080E4218D8A41200D29E3B
:101A08003F011F9F38EC0DF052EC11F00A0E196ED1
:101A1800580EE82EFED7192EFCD700D035EC10F062
:101A28000A0E196E580EE82EFED7192EFCD700D0D4
:101A3800000E426E3901A19F3F01208F208D00F0DA
:101A48003901918F949E000E516E000E4D6E000E5E
:101A58004B6E000E4C6E000E4A6E96EC11F0D28E54
:101A68003F011F8F948E120062001CF00CF0620080
:101A780020F00DF008012F5105250E6E000E0621ED
:101A88000F6E97EC10F0600030F01BF8600034F037
:101A98001CF808012F51055D0C6E0651D8A00605EB
:101AA8000D6E62000CF00EF0620010F00FF097EC73
:101AB80010F0600030F01DF8600034F01EF862008D
:101AC8004CF00CF0620050F00DF008012F51112578
:101AD8000E6E000E12210F6E97EC10F0600030F0C1
:101AE80023F8600034F024F808012F51115D0C6EC2
:101AF8001251D8A012050D6E62003CF00EF0620083
:101B080040F00FF097EC10F0600030F025F860001E
:101B180034F026F8620034F00CF0620038F00DF072
:101B280008012F510B250E6E000E0C210F6E97EC3D
:101B380010F0600030F01FF8600034F020F8080161
:101B48002F510B5D0C6E0C51D8A00C050D6E620068
:101B580024F00EF0620028F00FF097EC10F060000F
:101B680030F021F8600034F022F8620064F00CF0E4
:101B7800620068F00DF008012F5117250E6E000E57
:101B880018210F6E97EC10F0600030F027F8600015
:101B980034F028F808012F51175D0C6E1851D8A0A1
:101BA80018050D6E620054F00EF0620058F00FF048
:101BB80097EC10F0600030F029F8600034F02AF853
:101BC800120005C00FF006C010F009500A10D8B472
:101BD800120060003FF0D9FF600043F0DAFF6000B8
:101BE8001FF0DFFF09500F240B6E0A5010200C6EF7
:101BF800FF0E0B24D96EFF0E0C20DA6E60001FF06A
:101C0800DFFF0A5004E1030E095CD8A0120020EEA1
:101C180001F00F50D9261050DA2260001FF0DFFFC4
:101C280020EE02F00F50D9261050DA2260001FF083
:101C3800DFFF09500F240B6E0A5010200C6EFE0EA9
:101C48000B24D96EFF0E0C20DA6E60001FF0DFFF48
:101C580009500F240B6E0A5010200C6EFD0E0B2439
:101C6800D96EFF0E0C20DA6E60001FF0DFFF0A50FD
:101C780004E1070E095CD8A0120020EE03F00F5013
:101C8800D9261050DA2260001FF0DFFF09500F2418
:101C98000B6E0A5010200C6EFC0E0B24D96EFF0E32
:101CA8000C20DA6E60001FF0DFFF0A5004E1090E15
:101CB800095CD8A012000FC00BF010C00CF00B1E6E
:101CC8000C1E0B4A0C2A030E0B140D6E0E6A0D50D7
:101CD8000F260E5010220D50095E0E500A5AFC0EA7
:101CE8000916FF0E0A160ED060003FF0D9FF6000FB
:101CF80043F0DAFF60001FF0DFFF0906D8A00A06EC
:101D08000F4A102A09500A10D8B41200EDD74750CC
:101D1800D8A430D03150100D6F00CCFF40F06F00C8
:101D2800D0FF41F03250100D6F00CCFF3EF06F0035
:101D3800D0FF3FF0000E486E0F0E3B6E010E476E4F
:101D480031C046F032C045F0000E176E0FD0175064
:101D5800700FD96EDA6A6000C7F0DFFF1750600FA6
:101D6800D96EDA6A6000CBF0DFFF172A0F0E17640E
:101D7800EED712004850700FD96EDA6ADF50166E2F
:101D88001650405E000E415A4850600FD96EDA6A0C
:101D9800DF50166E16503E5E000E3F5A3B2A0F0E5D
:101DA8003B6402D0000E3B6E31504026000E4122AB
:101DB8003B50700FD96EDA6A6000C7F0DFFF32500F
:101DC8003E26000E3F223B50600FD96EDA6A600053
:101DD800CBF0DFFF482A0F0E486402D0000E486E91
:101DE80040C00BF041C00CF0100E0D6E24EC06F054
:101DF800466E3EC00BF03FC00CF0100E0D6E24EC8A
:101E080006F0456E810E316003D07E0E316009D038
:101E180046C00BF06200B4F00CF0315010EC02F048
:101E2800316E810E326003D07E0E3260120045C0E2
:101E38000BF06200B8F00CF0325010EC02F0326E89
:101E480012006F0060FC49F0390191BFA1AF57D073
:101E5800A19F000E926E4A50D8B451D0000126D0EE
:101E68004D4749513C614D8147D049513C614C81B6
:101E780043D000F03F011F9F3901A19F3F01208FF0
:101E8800208D00F03901918F949E000E516E000E46
:101E98004D6E000E4B6E000E4C6E000E4A6EABEC93
:101EA80011F0D28E3F011F8F948E26D05150036EB1
:101EB800046A0450000AD8A41FD00350000AD8B4FA
:101EC800CFD7010AD8B4CCD7030AD8B4C9D7010AE6
:101ED800D8B4C6D7070AD8B4C3D7010AD8B4C0D76C
:101EE800030AD8B4BDD7010AD8B4BAD7100AD8B4EF
:101EF800BCD70D0AD8B4BDD70001512B00F0390169
:101F080099A31100A9A31100A9934A50D8A41100BC
:101F18003F011F9F00F03901A19F3F01208F208DB5
:101F280000F0010E4A6E390199933F011F8F11008D
:101F3800000E0801016F000E006F4B0E026F000EBD
:101F4800046F5E0E036F000E066FFE0E056F010E26
:101F5800086F7E0E076F000E0A6F7C0E096F000E69
:101F68000C6F0B69010E0E6F9F0E0D6F000E106F38
:101F78006C0E0F6F000E126FEC0E116F010E146FC6
:101F8800810E136F000E166F5F0E156F000E186F1F
:101F9800EC0E176F010E1A6F7C0E196F000E1C6F76
:101FA800E30E1B6F000E1E6FB00E1D6F000E206F2C
:101FB800A30E1F6F000E226FE30E216F000E246F19
:101FC800C00E236F000E266FE30E256F000E286FDC
:101FD800C20E276F000E2A6FCC0E296F000E2D6FD0
:101FE800000E2E6F38EC0DF0000E08012B6F000E5E
:101FF8002C6F100E2F6F1200F00EBA6E270EBB6EEC
:10200800FB0EBC6EC268E70EC36EC468000E3A01D0
:10201800606F000E506F0F0E406F000E816F230E21
:10202800516FF00E416FFB0E616F000E426F000E94
:10203800526F000E626F436953696369446954695A
:102048006469080E846F579556855595000E056E80
:10205800000E066E3CEC12F0090E0B6F0A0ED26FE2
:102068001200000E056E080E066E000E086E000EB9
:10207800076E000E0A6E300E096EE5EC0DF0000ECC
:10208800166E080E176E000E186E040018501624EF
:10209800D96E000E1720DA6E18C005F0066AF5EC46
:1020A80011F0DF6E020E1818D8A40AD04B0E0801E2
:1020B8000219D8B405D09CEC0FF052EC11F01200C4
:1020C800182A2F0E1864E1D71200000E3E01DE6FA9
:1020D800000EDF6F000EE06F000EE16F000EE46F80
:1020E800000EE56F000EEA6F000EEC6F000EF16F48
:1020F800180EF36F000EF46F000EF56F000EF66FFA
:10210800000EF76F010EF96F000EFA6F000EFB6FED
:10211800000EFC6F000EFD6F000EFE6F010EFF6FCC
:10212800840EF86F12000E500C5C106E0F500D5894
:10213800116E10C007F011C008F0270E066E100EC1
:10214800056EC1EC10F005C006F0056A05C014F074
:1021580006C015F014C005F015C006F0000E086E94
:10216800640E076EC1EC10F005C012F006C013F043
:1021780012C00CF013C00DF01200000E0A6E000E13
:10218800096E07500810D8B41CD0010E0B6E04D08D
:10219800D890073608360B2A08AEFAD7D8900936F1
:1021A8000A360750055C08500658D8A005D00750D5
:1021B800055E0850065A0980D890083207320B2E5F
:1021C800EDD709C005F00AC006F01200240EF66E1D
:1021D800240EF76E000EF86E00EE25F010EE19F0E2
:1021E80009006F00D7FFEEFFE550E150F9E100EE7E
:1021F80060F0200EEE6AE806FDE100EE3EF0170EF4
:10220800EE6AE806FDE1080ED56E000ED66E000EE9
:10221800D76E000EF86E00017CEF03F0000ED2BE00
:10222800010E086E0650030B3901E16F600017F0CC
:10223800E0F960001FF0E3F93F0EE517E585D29E4F
:10224800550EE66FAA0EE66FE583E5B3FED7E59572
:1022580008B002D0D29E01D0D28E1200000E080122
:10226800346F000E356F000E366F000E386F000E9B
:10227800376F000E3A6F000E396F000E3C6F000E7C
:102288003B6F000E3E6F000E3D6F000E406F000E5C
:102298003F6F000E426F000E416F1200000E096E74
:1022A800080E0A6E000E0B6E0BC005F0066A0B5086
:1022B8000924D96E000E0A20DA6EDF50076E12EC80
:1022C80011F00B2A2F0E0B64EFD71200990E3F0165
:1022D8001E6FC30E1F6F000E206F010E216F0A0EB6
:1022E800236F000E226F1D691C691B69208F208DCA
:1022F8003901918F3F011F8F1200055007026F00AF
:10230800CCFF09F06F00D0FF0AF005500802F35027
:102318000A2606500702F3500A2609C005F00AC02B
:1023280006F01200020E966E600E956E000E976E05
:102338009368000E926E3901A9939983000E056E79
:10234800000E066E37EC12F0F00E946E1200020EBC
:10235800966E600E956E000E976E9368000E926EE4
:10236800A9939983000E016E000E026E46EC12F0DE
:10237800F00E946E120041EC12F0E4EC11F000EC57
:1023880010F02BEC12F01FEC12F096EC11F069EC47
:1023980010F004EC12F06AEC11F01200010E0D249A
:1023A800056E000E0E20066E0BC007F00CC008F07C
:1023B80081EC11F006500801436F446B4351120041
:1023C800000EC06F000EC16F000EC26F000EC36F0B
:1023D800000EC46F000EC56F000EC66F000EC76FEB
:1023E80012000650030B3901E16F600017F0E0F9A5
:1023F8003F0EE517E58100F000F03901E3511200C6
:10240800010EA26E000EA16E000EA36E9F68000E54
:102418009E6E3901A895800EA06E12000080808003
:102428008080000002020080808080800000090017
:0524380003101664080A
:10243E009C0E7E6EF00E7D6E000E7C6E3F015E5128
:10244E00FC0B02095E6F1200600E3901D96F000E8F
:10245E00DB6F000EDD6F080EDF6F000EDE6F1200F9
:10246E0005C055F006C056F0120005C057F006C064
:10247E0058F01200D28A39018983818F120001C06F
:0E248E0055F002C056F012005F0E3C6E1200B8
:020000040020DA
:10000000FF0FFF0FFF0FFF0FFF0FFF0FFF0FFF0F80
:020000040030CA
:0A0000008CFFF7FF9FFFFFFFFFFFDB
:00000001FF
