:040000000DEF00F010
:0400080001EF0FF005
:10001800FF00C7EF10F0020E3118D8A40AD0000E66
:10002800476E800E486E000E4D6E000E4E6E030E2B
:10003800316ECCB603D0036A032A01D0036A0338B1
:10004800F00B471208013351D8A425D0CCB003D007
:10005800036A032A01D0036AD8900336D89003367E
:10006800D89003344712CABC03D0036A032A01D0CC
:10007800036AD8900336D89003344712CABE03D017
:10008800036A032A01D0036AD89003344712CABA14
:1000980025D0010E24D0CABC03D0036A032A01D09C
:1000A800036AD8900336D8900336D89003344712A1
:1000B800CCB003D0036A032A01D0036AD890033670
:1000C800D89003344712CABA03D0036A032A01D06E
:1000D800036AD89003344712CAAEDBD7000E471222
:1000E80008012B51D8A43ED0CCBA03D0036A032A06
:1000F80001D0036A060E046ED8900336042EFCD78E
:1001080003504812CCAA04D0000E066E000E03D08D
:10011800000E066E800E056E05504D12CCB803D049
:10012800036A032A01D0036A050E046ED8900336C9
:10013800042EFCD703504812CCA804D0000E086E39
:10014800000E03D0000E086E800E076E07504E1288
:10015800CBBA03D0036A032A01D0036A0338F00B31
:1001680048128AD02B05D8A443D0CCBA03D0036A4E
:10017800032A01D0036A060E046ED8900336042EB3
:10018800FCD703504812CCAA04D0000E0A6E000E09
:1001980003D0000E0A6E800E096E09504D12CCB8BD
:1001A80003D0036A032A01D0036A050E046ED890AF
:1001B8000336042EFCD703504812CCA804D0000EF6
:1001C8000C6E000E03D0000E0C6E800E0B6E0B50E2
:1001D8004E12CCA204D0000E0E6E000E03D0000EFC
:1001E8000E6E800E0D6E0D504E12CBBAE4D046D076
:1001F800020E2B19D8A445D0CCBA03D0036A032A1F
:1002080001D0036A060E046ED8900336042EFCD77C
:1002180003504812CCAA04D0000E106E000E03D072
:10022800000E106E800E0F6E0F504D12CBAA04D028
:10023800000E126E000E03D0000E126E800E116EAC
:1002480011504D12CCB803D0036A032A01D0036AB7
:10025800050E046ED8900336042EFCD703504812BE
:10026800CCA804D0000E146E000E03D0000E146E3D
:10027800800E136E13504E12CCB29DD0036A032A1F
:100288009BD0030E2B19D8A44DD0CCBA03D0036A47
:10029800032A01D0036A060E046ED8900336042E92
:1002A800FCD703504812CCAA04D0000E166E000EDC
:1002B80003D0000E166E800E156E15504D12CBAA87
:1002C80004D0000E186E000E03D0000E186E800EBB
:1002D800176E17504D12CCB803D0036A032A01D009
:1002E800036A050E046ED8900336042EFCD703501B
:1002F8004812CCA804D0000E1A6E000E03D0000ECF
:100308001A6E800E196E19504E12CCA204D0000E2F
:100318001C6E000E03D0000E1C6E800E1B6E1B5050
:100328004E124DD0040E2B19D8A449D0CCBA03D004
:10033800036A032A01D0036A060E046ED8900336B6
:10034800042EFCD703504812CCAA04D0000E1E6E0F
:10035800000E03D0000E1E6E800E1D6E1D504D1235
:10036800CCB803D0036A032A01D0036A050E046ED1
:10037800D8900336042EFCD703504812CCA804D0DA
:10038800000E206E000E03D0000E206E800E1F6E31
:100398001F504E12CBB203D0036A032A01D0036A5E
:1003A8000338F00B4812CBBA02D0010E01D0000E70
:1003B8004812CCA263D7036A0338F00B4812CCBCAE
:1003C80003D0036A032A01D0036AD8900336D89071
:1003D8000336D89003344812CCBE03D0036A032AEC
:1003E80001D0036AD8900336D89003344812CBB0B2
:1003F80003D0036A032A01D0036AD8900334481251
:10040800040E08012B19D8B41200CBB202D0010E89
:1004180001D0000E48121200136E31D113502AD1A8
:100428001350080D6F00CCFF0BF06F00D0FF0CF0DD
:1004380009500B24036E000E0C20046E000E066E8D
:100448001C0E056E77EC11F014D01350050D6F00DB
:10045800CCFF0BF06F00D0FF0CF009500B24036E9B
:10046800000E0C20046E000E066E2A0E056E77EC48
:1004780011F004C003F0046A03BE046803C00FF05F
:1004880004C010F027D01350030D6F00CCFF0BF001
:100498006F00D0FF0CF00950B4D01350020D6F005C
:1004A800CCFF0BF06F00D0FF0CF013C00DF0D8900C
:1004B8000D320D500B26000E0C2209500B24036E32
:1004C800000E0C20046E000E066E490E056E77ECC9
:1004D80011F0CFD7000E10BEFF0E116E126E05D1AF
:1004E8001350020D6F00CCFF0BF06F00D0FF0CF023
:1004F80009500B24036E000E0C20046E000E066ECD
:10050800550E056E77EC11F0B4D713C00BF0D890E8
:100518000B320B5013C00CF00D6A0C26000E0D2286
:1005280009500C24036E000E0D20046E000E066E9A
:10053800660E056E77EC11F09CD7095013C00BF0CE
:100548000C6A0B26000E0C220C340C300E6E0B308D
:100558000D6E0DC00FF00EC010F0BCD709C00BF027
:10056800D8900B320B5009C00CF00D6A0C26000E07
:100578000D2213500C24036E000E0D20046E000E85
:10058800066E660E056E77EC11F073D70950020DF2
:100598006F00CCFF0BF06F00D0FF0CF013500B2452
:1005A800036E000E0C20046E000E066E550E056ECE
:1005B80077EC11F05ED70950020D6F00CCFF0BF0FD
:1005C8006F00D0FF0CF009C00DF0D8900D320D501F
:1005D8000B26000E0C2213500B24036E000E0C2069
:1005E800046E000E066E490E056E77EC11F041D7C9
:1005F8000950030D6F00CCFF0BF06F00D0FF0CF01B
:1006080013500B26000E0C220C340C320B320C3417
:100618000C320B320BC00FF00CC010F05BD7095036
:10062800050D6F00CCFF0BF06F00D0FF0CF01350DE
:100638000B24036E000E0C20046E000E066E2A0EAC
:10064800056E77EC11F015D70950080D6F00CCFF37
:100658000BF06F00D0FF0CF013500B24036E000E4C
:100668000C20046E000E066E1C0E056E77EC11F061
:1006780000D709500F6E106A116A126A36D00A50F4
:100688000B6E0C6A0C50000AD8A4C8D60B50000A8E
:10069800D8B4C4D6010AD8B4C3D6030AD8B4D5D6B8
:1006A800010AD8B4F0D6070AD8B4F7D6010AD8B4E4
:1006B80017D7030AD8B429D7010AD8B43ED70F0AE6
:1006C800D8B44CD7010AD8B461D7030AD8B473D7C1
:1006D800010AD8B48DD7070AD8B4A1D7010AD8B46B
:1006E800B3D7030AD8B4C5D799D600F00F50120073
:1006F80008013551D8A411D03B0E3E01F16FF881A5
:10070800F8B1FED7020EF16FF881000E0801346FC0
:10071800000E366F010E356F12003E01F8B112005F
:1007280008013651D8A413D02DD0030E03D0000EE3
:1007380001D0010E3E01F16F1ED03CEC0BF0020E11
:10074800316E000E0801356F000E366F12003451FD
:100758001A6E1B6A1B50000AD8A40DD01A50000A42
:10076800D8B4E3D7010AD8B4E2D7030AD8B4E1D79A
:10077800010AD8B4E2D70801342B000E366F3E01C7
:10078800F8811200010E366F3E01EF516F00C0FB79
:100798001AF01B6A1AC01BF01A6A1A26000E1B22CE
:1007A800D8901B321A32D8901B321A32D8901B328A
:1007B8001A321AC01CF01BC01DF01CC037F81DC02F
:1007C80038F83B0EF16FF88154D007C839F808C8DB
:1007D8003AF803C83BF804C83CF805C83DF806C811
:1007E8003EF81BC83FF81CC840F81DC841F81EC891
:1007F80042F854D00DC839F80EC83AF809C83BF881
:100808000AC83CF80BC83DF80CC83EF81FC83FF8AA
:1008180020C840F821C841F822C842F83FD013C880
:1008280039F814C83AF80FC83BF810C83CF811C892
:100838003DF812C83EF823C83FF824C840F825C838
:1008480041F826C842F82AD019C839F81AC83AF81F
:1008580015C83BF816C83CF817C83DF818C83EF844
:1008680027C83FF828C840F829C841F82AC842F8DC
:1008780015D0080134511A6E1B6A1B50000AD8A4FF
:100888000DD01A50000AD8B4A0D7010AD8B4B2D7EC
:10089800030AD8B4C4D7010AD8B4D6D72F513D25F6
:1008A8001A6E000E3E211B6E37511A5C38511B58C8
:1008B800D8B027D02F513D27000E3E233D07D8A0A2
:1008C8003E073951375D3A513859D8A007D03451CD
:1008D800490FD96EDA6AE40EDF6E12003451490FFF
:1008E800D96EDA6A3D51375D096E3E5138590A6E44
:1008F8003FC80BF040C80CF0B4EC11F0810FDF6E6C
:1009080012002F513D5D1A6E000E3E591B6E1A5093
:10091800375D1B503859D8B029D02F513D5F000E94
:100928003E5B3D07D8A03E0737513B5D38513C59E7
:10093800D8A007D03451490FD96EDA6A1C0EDF6E81
:1009480012003451490FD96EDA6A37513D5D096E8C
:1009580038513E590A6E41C80BF042C80CF0B4EC4D
:1009680011F01A6E1A507F08DF6E12003451490FC9
:10097800D96EDA6A7F0EDF6E1200EAD0000E12001E
:1009880009501200D8900A300D6E09300C6E0C50C8
:10099800120009C003F00AC004F0000E066E550EDE
:1009A800056E77EC11F003C00FF004C010F0116A67
:1009B800126A1050120009C00CF00AC00DF0D8904D
:1009C8000D320C32D8900D320C320C50120009C086
:1009D80003F00AC004F0000E066E330E056E77ECC5
:1009E80011F0E1D709C003F00AC004F0000E066E4A
:1009F8002B0E056E77EC11F0D6D709C003F00AC0AC
:100A080004F0000E066E250E056E77EC11F0CBD7BC
:100A180009C00CF00AC00DF0D8900D320C32D890F5
:100A28000D320C32D8900D320C320C50120009C025
:100A380003F00AC004F0000E066E1C0E056E77EC7B
:100A480011F0B1D709C003F00AC004F0000E066E19
:100A5800190E056E77EC11F0A6D709C003F00AC08D
:100A680004F0000E066E170E056E77EC11F09BD79A
:100A780009C003F00AC004F0000E066E150E056EDC
:100A880077EC11F090D709C003F00AC004F0000E0B
:100A9800066E140E056E77EC11F085D709C003F0C9
:100AA8000AC004F0000E066E120E056E77EC11F007
:100AB8007AD709C003F00AC004F0000E066E110EC2
:100AC800056E77EC11F06FD709C00CF00AC00DF075
:100AD800040E0E6ED8900D320C320E2EFBD70C5031
:100AE800120009C003F00AC004F0000E066E0F0ED3
:100AF800056E77EC11F057D709C003F00AC004F06F
:100B0800000E066E0E0E056E77EC11F04CD709C07C
:100B180003F00AC004F0000E066E0D0E056E77ECA9
:100B280011F041D709C003F00AC004F0000E066EA8
:100B38000C0E056E77EC11F036D709C003F00AC029
:100B480004F0000E066E0B0E056E77EC11F02BD735
:100B58000B500C6E0D6A0D50000AD8A411D70C501A
:100B6800000AD8B40BD7010AD8B40AD7030AD8B4F4
:100B780009D7010AD8B40DD7070AD8B41CD7010A77
:100B8800D8B425D7030AD8B42DD7010AD8B435D795
:100B98000F0AD8B43DD7010AD8B449D7030AD8B444
:100BA80051D7010AD8B459D7070AD8B461D7010A6E
:100BB800D8B469D7030AD8B471D7010AD8B479D799
:100BC8001F0AD8B481D7010AD8B48BD7030AD8B47E
:100BD80093D7010AD8B49BD7070AD8B498D7010A83
:100BE800D8B4A0D7030AD8B4A8D7CAD60001470EEC
:100BF800E96E080E396F3F01D29F00000001000026
:100C08000000000000000000000000000000C39485
:100C18006F00BCFF3AF0546B5487CB943AAF4FEF58
:100C280006F0544FC0EF06F000000000000000007E
:100C3800000000000000000000000000CB8400005D
:100C4800000000000000000000000000000000009C
:100C5800000000000000000000000000000000008C
:100C6800000000000000000000000000000000007C
:100C7800000000000000000000000000000000006C
:100C8800000000000000000000000000000000005C
:100C9800000088EF06F0544FF0EF06F00000000067
:100CA800000000000000000000000000000000003C
:100CB800000000000000000000000000000000002C
:100CC800000000000000000000000000000000001C
:100CD800000000000000000000000000000000000C
:100CE80000000000000000000000000000000000FC
:100CF800CB8400000000000000000000000000009D
:100D080000000000000000003A3711EF06F0E92A61
:100D1800392F0CEF06F00000000000000000000072
:100D280000000000000000000000CB94000000005C
:100D380000000000000000000000000000000000AB
:100D4800000000000000000000000000000000009B
:100D5800000000000000000000000000000000008B
:100D68000000000000000000000000000000CB842C
:100D78003F01D28FC3841200000000000000000071
:100D8800000000000000000000000000CB8400000C
:100D9800000000000000000000000000000000004B
:100DA800000000000000000000000000000000003B
:100DB800000000000000000000000000000000002B
:100DC800000000000000000000000000000000001B
:100DD800000000008BEF06F000000000000000009B
:100DE80000000000000000000000000000000000FB
:100DF80000000000000000000000000000000000EB
:100E080000000000000000000000000000000000DA
:100E180000000000000000000000000000000000CA
:100E2800000000000000000000000000CB8400006B
:100E380000008BEF06F0120000013D0EE96E0A0E6D
:100E4800396F3F01D29F0000000100000000000040
:100E580000000000000000000000C3946F00BCFF09
:100E68003AF0546B5487CB943AAF74EF07F0544F71
:100E7800E4EF07F0000000000000000000000000A0
:100E8800000000000000CB8400000000000000000B
:100E9800000000000000000000000000000000004A
:100EA800000000000000000000000000000000003A
:100EB800000000000000000000000000000000002A
:100EC800000000000000000000000000000000001A
:100ED800000000000000000000000000ACEF07F078
:100EE800544F14EF08F0000000000000000000005C
:100EF80000000000000000000000000000000000EA
:100F080000000000000000000000000000000000D9
:100F180000000000000000000000000000000000C9
:100F280000000000000000000000000000000000B9
:100F38000000000000000000CB840000000000005A
:100F48000000000000000000000000000000000099
:100F58003A3737EF07F0E92A392F32EF07F0000068
:100F68000000000000000000000000000000000079
:100F78000000CB940000000000000000000000000A
:100F88000000000000000000000000000000000059
:100F98000000000000000000000000000000000049
:100FA8000000000000000000000000000000000039
:100FB800000000000000CB843F01D28FC3841200E0
:100FC8000000000000000000000000000000000019
:100FD80000000000CB8400000000000000000000BA
:100FE80000000000000000000000000000000000F9
:100FF80000000000000000000000000000000000E9
:1010080000000000000000000000000000000000D8
:10101800000000000000000000000000AFEF07F033
:1010280000000000000000000000000000000000B8
:1010380000000000000000000000000000000000A8
:101048000000000000000000000000000000000098
:101058000000000000000000000000000000000088
:101068000000000000000000000000000000000078
:1010780000000000CB8400000000AFEF07F0120072
:1010880000014F0EE96E030E396F3F01D29F000039
:101098000001000000000000000000000000000047
:1010A8000000C3946F00BCFF3AF0546B5487CB9494
:1010B8003AAF98EF08F0544F08EF09F0000000002D
:1010C8000000000000000000000000000000CB84C9
:1010D8000000000000000000000000000000000008
:1010E80000000000000000000000000000000000F8
:1010F80000000000000000000000000000000000E8
:1011080000000000000000000000000000000000D7
:1011180000000000000000000000000000000000C7
:1011280000000000D0EF08F0544F38EF09F000003D
:1011380000000000000000000000000000000000A7
:101148000000000000000000000000000000000097
:101158000000000000000000000000000000000087
:101168000000000000000000000000000000000077
:101178000000000000000000000000000000000067
:10118800CB84000000000000000000000000000008
:1011980000000000000000003A375BEF08F0E92A81
:1011A800392F56EF08F00000000000000000000092
:1011B80000000000000000000000CB9400000000C8
:1011C8000000000000000000000000000000000017
:1011D8000000000000000000000000000000000007
:1011E80000000000000000000000000000000000F7
:1011F8000000000000000000000000000000CB8498
:101208003F01D28FC38412000000000000000000DC
:10121800000000000000000000000000CB84000077
:1012280000000000000000000000000000000000B6
:1012380000000000000000000000000000000000A6
:101248000000000000000000000000000000000096
:101258000000000000000000000000000000000086
:1012680000000000D3EF08F00000000000000000BC
:101278000000000000000000000000000000000066
:101288000000000000000000000000000000000056
:101298000000000000000000000000000000000046
:1012A8000000000000000000000000000000000036
:1012B800000000000000000000000000CB840000D7
:1012C8000000D3EF08F01200A1EC11F00FEC11F0C0
:1012D80027EC12F0000E3E01F16FF88F12EC10F0BF
:1012E800000E0801326F000E336F2B45010B3313CC
:1012F800CCAACCB806D03341800B2B6F48EC11F048
:101308002CD0CCAACBBA05D03351800DF350020FA4
:10131800F4D7CCA8CCB204D03351800DF328EDD744
:10132800CCA2CBBA05D03351800DF350030FE5D7CB
:10133800CABE05D03351800DF350040FDED7CCB0B0
:101348000CD03351D8A402D0010E01D0000E336F57
:101358002B9F3341800B2B13D1D7CAA8CCB605D00D
:101368009DEC0EF048EC11F034D0CCB609D0080151
:101378002C51D8A402D0010E01D0000E2C6FF2D748
:10138800CAB827D0010E0801326F620E226E670EAE
:10139800216ECE0EE82EFED7212EFCD7222EFAD7AC
:1013A800F7EC0BF016D0CCB60AD010EC0EF048ECE7
:1013B80011F012EC10F0000E0801326F0ED05EEC46
:1013C8000AF0150E216EC60EE82EFED7212EFCD788
:1013D80000D008013205D8B4E6D7290E226E960E41
:1013E800216E7F0EE82EFED7212EFCD7222EFAD7AB
:1013F80000F008012B9FD28E948E090E3718D8A4BE
:101408000FD0030E3318D8A40BD0D29E3F011F9FD4
:1014180020EC07F011D0000E336E11D0000E27D04B
:10142800090E3718D8A40FD03350D8A40CD0D29EA8
:101438003F011F9F44EC08F0000E376EECD73F01C8
:10144800208D00F0EBD7190E3718D8A414D0330428
:10145800D8A411D0D29E3F011F9FFAEC05F0000ED0
:10146800376E000E336E3F01208D00F0010E316E95
:10147800D28E3F011F8F3150D8B4BFD73204D8A4C1
:1014880008D008012C51D8B404D0CB88F00E7D6E5A
:1014980001D0CB983104D8B47CEC03F0020E31189B
:1014A800D8B403D0030E3118D8B40FEC00F0B1EC67
:1014B8000CF0A3D708013551D8A411D03B0E3E013A
:1014C800F16FF881F8B1FED7020EF16FF881000EC6
:1014D8000801346F000E366F010E356F12003E01A1
:1014E800F8B1120008013651D8A40ED028D0030E46
:1014F80003D0000E01D0010E3E01F16F19D0000E8D
:10150800356F000E366F12003451036E046A0450B2
:10151800000AD8A40DD00350000AD8B4E8D7010AAD
:10152800D8B4E7D7030AD8B4E6D7010AD8B4E7D7BE
:101538000801342B000E366F3E01F8811200010EAF
:10154800366F3E01EF516F00C0FB03F0046A03C021
:1015580004F0036A0326000E0422D89004320332F2
:10156800D89004320332D8900432033203C037F8DB
:1015780004C038F83B0EF16FF88164D03751075D2D
:1015880038510859D8B004D037C807F838C808F80F
:101598000351375D04513859D8B004D037C803F81F
:1015A80038C804F837C805F838C806F812003751A3
:1015B8000D5D38510E59D8B004D037C80DF838C869
:1015C8000EF80951375D0A513859D8B004D037C8D8
:1015D80009F838C80AF837C80BF838C80CF81200E8
:1015E8003751135D38511459D8B004D037C813F89F
:1015F80038C814F80F51375D10513859D8B004D095
:1016080037C80FF838C810F837C811F838C812F8B2
:1016180012003751195D38511A59D8B004D037C85B
:1016280019F838C81AF81551375D16513859D8B015
:1016380004D037C815F838C816F837C817F838C8A6
:1016480018F8120008013451036E046A0450000AA5
:10165800D8A412000350000AD8B490D7010AD8B40D
:10166800A6D7030AD8B4BCD7010AD8A41200D1D788
:10167800A3EC0FF02D50D8A431D02A5049026F00A6
:10168800CCFF25F06F00D0FF26F02A504A026F00E9
:10169800CCFF23F06F00D0FF24F0000E2E6E2A043A
:1016A800526E010E2D6E49C02CF04AC02BF0000E70
:1016B800196E0FD01950760FD96EDA6A600027F1CB
:1016C800DFFF1950600FD96EDA6A60002BF1DFFF77
:1016D800192A2A50195CD8B01200ECD72E50760F70
:1016E800D96EDA6ADF50146E1450255E000E265A41
:1016F8002E50600FD96EDA6ADF50146E1450235ED4
:10170800000E245A522A5250146E156AFF0E2A24CB
:10171800166E176AFF0E17221450165C1750800AAF
:10172800186E1550800A1858D8B002D0000E526EA4
:1017380049502526000E26225250760FD96EDA6AB5
:10174800600027F1DFFF4A502326000E2422525062
:10175800600FD96EDA6A60002BF1DFFF2E2A2E5057
:10176800146E156AFF0E2A24166E176AFF0E1722CA
:101778001450165C1750800A186E1550800A1858B5
:10178800D8B002D0000E2E6E25C009F026C00AF08F
:101798002AC00BF0C1EC04F02C6E23C009F024C061
:1017A8000AF02AC00BF0C1EC04F02B6E810E4960E0
:1017B80003D07E0E496008D02CC009F02DC80AF06D
:1017C800495010EC02F0496E810E4A6003D07E0E3B
:1017D8004A6012002BC009F02EC80AF04A5010ECDB
:1017E80002F04A6E12003B0E3E01F16FF881F8B12B
:1017F800FED7020EF16FF881F8B1FED7EF516F00F6
:10180800C0FB03F0046A03C004F0036A0326000E59
:101818000422D89004320332D89004320332D8908C
:101828000432033203C005F004C006F005C007F80F
:1018380006C008F805C003F806C004F805C005F896
:1018480006C006F83B0EF16FF881F8B1FED7030E1B
:10185800F16FF881F8B1FED7EF516F00C0FB03F0CC
:10186800046A03C004F0036A0326000E0422D89019
:1018780004320332D89004320332D890043203324F
:1018880003C005F004C006F005C00DF806C00EF848
:1018980005C009F806C00AF805C00BF806C00CF820
:1018A8003B0EF16FF881F8B1FED7000EF16FF881A9
:1018B800F8B1FED7EF516F00C0FB03F0046A03C014
:1018C80004F0036A0326000E0422D890043203327F
:1018D800D89004320332D8900432033203C005F0A2
:1018E80004C006F005C013F806C014F805C00FF8C8
:1018F80006C010F805C011F806C012F83B0EF16FCB
:10190800F881F8B1FED7010EF16FF881F8B1FED772
:10191800EF516F00C0FB03F0046A03C004F0036AD0
:101928000326000E0422D89004320332D8900432E1
:101938000332D8900432033203C005F004C006F025
:1019480005C019F806C01AF805C015F806C016F83B
:1019580005C017F806C018F81200CAB821D02750D9
:10196800D8A41ED0CCB203D0020E276E1200CBBA78
:1019780003D0030E276E1200CCBA03D0050E276ED3
:101988001200CCB803D0040E276E1200CCBC03D0D2
:10199800070E276E1200CCBE1200060E276E12002C
:1019A8002750D8B41200CCA20ED0020E2718D8A403
:1019B8000AD008012D2B0E0E2D6502D00E0E2D6FAC
:1019C800080E276E1200CBAA0CD0030E2718D8A435
:1019D80008D008012D51D8A402D0000EF0D72D0749
:1019E800EFD7CCA80BD0050E2718D8A407D008012C
:1019F8002E2B0E0E2E65E4D70E0E0BD0CCAA0DD0D2
:101A0800040E2718D8A409D008012E51D8A403D051
:101A1800000E2E6FD5D72E07D3D7CCAC0CD0070E1F
:101A28002718D8A408D0040E08012F271B0E2F65ED
:101A3800C7D71C0E10D0CCAE10D0060E2718D8A4CD
:101A48000CD0040E08012F5F2F51D8B403D01C0E00
:101A58002F65B6D7000E2F6FB3D7080E2718D8A456
:101A68001200D29E3F011F9F10EC0EF048EC11F0BF
:101A78000A0E176E580EE82EFED7172EFCD700D088
:101A880012EC10F00A0E176E580EE82EFED7172E1D
:101A9800FCD700D0000E276E3901A19F3F01208F8F
:101AA800208D00F03901918F949E000E376E000E44
:101AB800336E000E316E000E326E000E306E8CECFE
:101AC80011F0D28E3F011F8F948E120003C00DF0CB
:101AD80004C00EF007500810D8B41200600037F0A8
:101AE800D9FF60003BF0DAFF600017F0DFFF075016
:101AF8000D24096E08500E200A6EFF0E0924D96EB7
:101B0800FF0E0A20DA6E600017F0DFFF085004E1CC
:101B1800030E075CD8A0120020EE01F00D50D92664
:101B28000E50DA22600017F0DFFF20EE02F00D50B1
:101B3800D9260E50DA22600017F0DFFF07500D2477
:101B4800096E08500E200A6EFE0E0924D96EFF0E8B
:101B58000A20DA6E600017F0DFFF07500D24096EC7
:101B680008500E200A6EFD0E0924D96EFF0E0A20B9
:101B7800DA6E600017F0DFFF085004E1070E075C1B
:101B8800D8A0120020EE03F00D50D9260E50DA220C
:101B9800600017F0DFFF07500D24096E08500E2073
:101BA8000A6EFC0E0924D96EFF0E0A20DA6E600058
:101BB80017F0DFFF085004E1090E075CD8A01200F7
:101BC8000DC009F00EC00AF0091E0A1E094A0A2AA9
:101BD800030E09140B6E0C6A0B500D260C500E22C6
:101BE8000B50075E0C50085AFC0E0716FF0E08161D
:101BF8000ED0600037F0D9FF60003BF0DAFF6000DC
:101C080017F0DFFF0706D8A008060D4A0E2A07506E
:101C18000810D8B41200EDD707C80AF008C80BF0AE
:101C280008012F5105250C6E000E06210D6E74EC6F
:101C380010F00AC01BF80BC01CF808012F51055DF5
:101C48000A6E0651D8A006050B6E03C80CF004C82E
:101C58000DF074EC10F00AC01DF80BC01EF813C884
:101C68000AF014C80BF008012F5111250C6E000E54
:101C780012210D6E74EC10F00AC023F80BC024F882
:101C880008012F51115D0A6E1251D8A012050B6E72
:101C98000FC80CF010C80DF074EC10F00AC025F84D
:101CA8000BC026F80DC80AF00EC80BF008012F511A
:101CB8000B250C6E000E0C210D6E74EC10F00AC092
:101CC8001FF80BC020F808012F510B5D0A6E0C514C
:101CD800D8A00C050B6E09C80CF00AC80DF074ECFE
:101CE80010F00AC021F80BC022F819C80AF01AC867
:101CF8000BF008012F5117250C6E000E18210D6EE0
:101D080074EC10F00AC027F80BC028F808012F510E
:101D1800175D0A6E1851D8A018050B6E15C80CF07F
:101D280016C80DF074EC10F00AC029F80BC02AF898
:101D38001200000E0801016F000E006F4A0E026FBC
:101D4800000E046F5E0E036F000E066FFE0E056F29
:101D5800010E086F7E0E076F000E0A6F7C0E096F6A
:101D6800000E0C6F0B69010E0E6F9F0E0D6F000EAB
:101D7800106F6C0E0F6F000E126FEC0E116F010ECC
:101D8800146F810E136F000E166F5F0E156F000E25
:101D9800186FEC0E176F010E1A6F7C0E196F000E7C
:101DA8001C6FE30E1B6F000E1E6FB00E1D6F000E32
:101DB800206FA30E1F6F000E226FE30E216F000E1F
:101DC800246FC00E236F000E266FE30E256F000EE2
:101DD800286FC20E276F000E2A6FCC0E296F000ED7
:101DE8002D6F000E2E6F10EC0EF0000E08012B6FF9
:101DF800000E2C6F100E2F6F12006F0060FC2FF07A
:101E0800390191BFA1AF40D0A19F000E926E305012
:101E1800D8B43AD0000100F020D02F51536133815B
:101E280030D02F51536133832CD02F5153613281DD
:101E380028D000F03F011F9F000E926E3901919F3C
:101E4800A9939983000E376E000E336E000E316E23
:101E5800000E326E000E306E14D03750016E026ADA
:101E68000250000AD8A40DD00150010AD8B4D5D721
:101E7800060AD8B4D6D7100AD8B4D7D70D0AD8B41A
:101E8800D8D70001372B00F0390199A31100A9A375
:101E98001100A9933050D8A411003F011F9F00F0F2
:101EA8003901A19F3F01208F208D00F0010E306E77
:101EB800390199933F011F8F1100000E086E06AE7D
:101EC80006D0056C061ED8B0062A010E086E04AEB0
:101ED80006D0036C041ED8B0042A010E081A000E9E
:101EE8000A6E000E096E05500610D8B41CD0010EFB
:101EF800076E04D0D89005360636072A06AEFAD7FC
:101F0800D89009360A360550035C06500458D8A004
:101F180005D00550035E0650045A0980D890063251
:101F28000532072EEDD70850D8B404D0096C0A1E24
:101F3800D8B00A2A09C003F00AC004F012006F00E2
:101F480048FE0BF00C6A000E926E3B500B5C036E61
:101F58003C500C58046E2FEC11F004BE27D00450EE
:101F680004E1050E035CD8A021D00BC03BF00CC0E7
:101F78003CF03CBE06D03C5006E10E0E3B5CD8B0AF
:101F880002D0160E10D03901A9A302D0010E0BD031
:101F9800010E046E200E036E3BC005F03CC006F037
:101FA80061EC0FF003502A6E000E2D6E3901A993D3
:101FB8001200F00EBA6E270EBB6EFB0EBC6EC26826
:101FC800E70EC36EC468000E3A01606F000E506FD2
:101FD8000F0E406F000E816F230E516FF00E416F90
:101FE800FB0E616F000E426F000E526F000E626FA3
:101FF800436953696369446954696469080E846F65
:10200800579556855595000E036E000E046E1DEC0F
:1020180012F0090E0B6F0A0ED26F1200000E036E3B
:10202800080E046E000E066E000E056E000E086E99
:10203800300E076E6AEC0DF0000E146E080E156E69
:10204800000E166E040016501424D96E000E1520CA
:10205800DA6E16C003F0046AD7EC11F0DF6E020ED8
:102068001618D8A40AD04A0E08010219D8B405D007
:102078009DEC0EF048EC11F01200162A2F0E166493
:10208800E1D71200000E3E01DE6F000EDF6F000E7A
:10209800E06F000EE16F000EE46F000EE56F000EBA
:1020A800EA6F000EEC6F000EF16F180EF36F000E62
:1020B800F46F000EF56F000EF66F000EF76F010E4D
:1020C800F96F000EFA6F000EFB6F000EFC6F000E2A
:1020D800FD6F000EFE6F010EFF6F840EF86F120089
:1020E8000C500A5C0E6E0D500B580F6E0EC005F0AA
:1020F8000FC006F0270E046E100E036E9EEC10F053
:1021080003C004F0036A03C012F004C013F012C045
:1021180003F013C004F0000E066E640E056E9EEC0C
:1021280010F003C010F004C011F010C00AF011C084
:102138000BF01200000E086E000E076E0550061018
:10214800D8B41CD0010E096E04D0D89005360636D6
:10215800092A06AEFAD7D890073608360550035C28
:1021680006500458D8A005D00550035E0650045AFE
:102178000780D89006320532092EEDD707C003F044
:1021880008C004F01200E80EF66E230EF76E000E7B
:10219800F86E00EE3DF010EE18F009006F00D7FF62
:1021A800EEFFE550E150F9E100EE60F02C0EEE6A2A
:1021B800E806FDE100EE23F01A0EEE6AE806FDE1FE
:1021C800080ED56E000ED66E000ED76E000EF86E95
:1021D800000168EF09F0000ED2BE010E066E045031
:1021E800030B3901E16F60000FF0E0F9600017F0B0
:1021F800E3F93F0EE517E585D29E550EE66FAA0E68
:10220800E66FE583E5B3FED7E59506B002D0D29E2A
:1022180001D0D28E1200000E0801346F000E356F07
:10222800000E366F000E386F000E376F000E3A6FD3
:10223800000E396F000E3C6F000E3B6F000E3E6FB4
:10224800000E3D6F000E406F000E3F6F000E426F94
:10225800000E416F120004BE05D0045010E10304C3
:10226800D8B00DD003C005F004C006F0051E061E48
:10227800054A062A05C003F006C004F0120003C090
:1022880003F004C004F01200000E076E080E086E7A
:10229800000E096E09C003F0046A09500724D96EBC
:1022A800000E0820DA6EDF50056EEFEC10F0092AF8
:1022B8002F0E0964EFD71200990E3F011E6FC30E4F
:1022C8001F6F000E206F010E216F0A0E236F000E84
:1022D800226F1D691C691B69208F208D3901918F20
:1022E8003F011F8F1200035005026F00CCFF07F05B
:1022F8006F00D0FF08F003500602F3500826045080
:102308000502F350082607C003F008C004F01200C5
:10231800020E966E600E956E000E976E9368000E14
:10232800926E3901A9939983000E036E000E046E14
:1023380018EC12F0F00E946E120022EC12F0C6ECBB
:1023480011F0DDEC0FF00CEC12F000EC12F08CEC5C
:1023580011F046EC10F0E6EC11F060EC11F0120010
:10236800010E0B24036E000E0C20046E09C005F04C
:102378000AC006F077EC11F004500801436F446B73
:1023880043511200000EC06F000EC16F000EC26FE5
:10239800000EC36F000EC46F000EC56F000EC66F2F
:1023A800000EC76F12000450030B3901E16F600083
:1023B8000FF0E0F93F0EE517E58100F000F0390174
:1023C800E3511200010EA26E000EA16E000EA36E64
:1023D8009F68000E9E6E3901A895800EA06E1200AF
:1023E80000808080808000000202008080808080E1
:1023F80000000900031664089C0E7E6EF00E7D6EC8
:10240800000E7C6E3F015E51FC0B02095E6F1200EC
:10241800600E3901D96F000EDB6F000EDD6F080EFC
:10242800DF6F000EDE6F120003C055F004C056F0D7
:10243800120003C057F004C058F01200D28A3901C4
:0C2448008983818F12005F0E536E12001A
:020000040020DA
:10000000FF0FFF0FFF0FFF0FFF0FFF0FFF0FFF0F80
:020000040030CA
:0A0000008CFFF7FF9FFFFFFFFFFFDB
:00000001FF
